S01700007261696E795F6475616C5F435055312E737265636D
S315020E0000200418227D1F0E02411E0E02871F0E02AB
S315020E0010871F0E02871F0E02871F0E02871F0E02F2
S315020E0020000000000000000000000000871F0E0204
S315020E0030871F0E0200000000871F0E02871F0E0288
S315020E004063100E028D170E0219190E02311A0E02C6
S315020E0050151B0E021B0E0E023D0D0E02A30E0E02F6
S309020E0060F50E0E0273
S30D020E00640102000010C2100099
S315020E006C70B1007940F20001421EC2F21821022A28
S315020E007C087005D840F24C40C2F2182001210170CC
S315020E008C70472DE9F04F81B040F24F4AC2F2182A50
S315020E009C9AF8000040F2010940F24D4840F24E47E2
S315020E00AC42F274160024C2F218294FF0020BC2F257
S315020E00BC1828C2F218270128C0F20E268DF8034014
S315020E00CC89F800B088F800403C7005D1B1683068EA
S315020E00DCC96988478AF8004040F27845C2F218255B
S315020E00EC284640F205110022002401F010F81420C5
S315020E00FC4FF47A7101F057FE284640F20511012291
S315020E010C012501F004F84FF496704FF47A7101F052
S315020E011C4AFEA420C4F2400001880088C1F3C02115
S315020E012C0BEAD0200844032838701FD196E8070034
S315020E013C1268904708B100241AE001208AF80000D2
S315020E014C0DF10301A320012200F016F84FF0000464
S315020E015C58B19DF80300032588F800000138FE28D5
S315020E016C38BF012438BF002500E0022589F800505D
S315020E017C204601B0BDE8F08F2DE9F04F81B00E4648
S315020E018C40F24F41C2F218210978002701298DF847
S315020E019C03004CD140F24C4440F20008C2F2182431
S315020E01ACC2F218280120277088F8000042F2741049
S315020E01BCC0F20E20D0F80890D0F800A0D9F808504C
S315020E01CC93460DF10301504601220123A84770BB3B
S315020E01DC4FF2FF65CFF6C275284600BF2178013065
S315020E01EC09B90028FAD1E8B198F80000032819D1FA
S315020E01FC00270120277088F80000D9F804C0504653
S315020E020C31465A460023E04708B110E01DB120785C
S315020E021C01350028FAD02DB198F80000022801D12A
S315020E022C012704E0D9F80C105046884700273846A9
S315020E023C01B0BDE8F08F40F20100C2F21820007830
S315020E024C704740F24E40C2F2182000787047B0B595
S315020E025C82B04FF00005B8B1044605710DF10301DB
S315020E026C02200522FFF788FF70B19DF8030000F0FD
S315020E027C0F00C11E11F1020F05D39DF8041001F0E9
S315020E028CC002402A03D10025284602B0B0BD9DF805
S315020E029C052001F00F019DF806309DF8075042EA33
S315020E02AC012103F00F028B09042B45EA022298BF99
S315020E02BCB2F5F07F09D34B090E2B4FF00005E3D89E
S315020E02CC9309042B1346DFD801E00B461146012582
S315020E02DC238061802071D7E780B500F02FF808B124
S315020E02EC30BFFDE7BDE8804000F072B8022818BF99
S315020E02FC704740F2784042F2C411C2F21820C0F294
S315020E030C0E2100F0F9BEC0B1817AC90715D040682C
S315020E031C00F07040B0F1804F0FD141F20400CEF2D4
S315020E032C0000006840F25041C2F21821086040F2F9
S315020E033C5440C2F2182001210170704710B54EF6C8
S315020E034CFC50CEF20000016841F08071016041F260
S315020E035C0000CEF2000000214160016841F001015D
S315020E036C01604EF22000C4F20100006840F2985071
S315020E037CC2F21820006844F6D351C1F26201A0FBF8
S315020E038C01129109B0F57A7F40F2584038BF01211D
S315020E039CC2F21820016042F29011C0F20E2107C968
S315020E03AC12689047044680B9FFF76BFE40F25C4129
S315020E03BCC2F21821087000F0CEF9B0FA80F040F2B3
S315020E03CC5D414009C2F218210870204610BDD4D4E4
S315020E03DC8AB041F20404CEF2000420684FF6FF7B7B
S315020E03EC029042F29010C0F20E20D4F800800668EB
S315020E03FCD0F808A0002000250790CDE90300CDE920
S315020E040C05A0019640F25C40C2F21820007800213B
S315020E041CADF824100891D8B108A8FFF718FF81463B
S315020E042CA84228D1C5B10699BDF8200089B28842D8
S315020E043C0CD10499BDF8220089B2884206D10399D1
S315020E044C9DF82400C9B28842A94607D0A94612E0E5
S315020E045C4FF0000915B10EE04FF0000940F258416B
S315020E046C2068C2F21821029A0968801AB0FBF1F0C2
S315020E047C6428C0F0E380BDF82000BDF822109DF86A
S315020E048C24206FF35F206FF35F2140EA412002F0C6
S315020E049C030140EA814009F0010140EA0150DAF803
S315020E04AC042000F180513046904748B140F25E412D
S315020E04BCC2F21821088858451CBF0130088001E08B
S315020E04CC20680290BDF820000690BDF8220004901A
S315020E04DC9DF82400039000F065F940F25D41C2F2DC
S315020E04EC18210978A9B307460798874231D000F02E
S315020E04FC52F9054600F046F9A9B260F31041DAF844
S315020E050C042001F100513046904760B140F25E4034
S315020E051CC2F218200088584505D040F25E410130D1
S315020E052CC2F21821088000F043F980B267F31B4021
S315020E053CDAF8042000F1A0413046904740B140F261
S315020E054C5E41C2F21821088858451CBF013008803C
S315020E055C079740F258402168C2F218200068A1EBA8
S315020E056C0801B1FBF0F1B1F57A7F60D340F254413A
S315020E057CC2F2182109784FF6FF7B79B140F250413F
S315020E058CC2F21821096822680027511AB1FBF0F043
S315020E059C40F6B931884238BF202700E0002740F2D8
S315020E05AC5C40C2F2182090F800A0FFF744FE0546F6
S315020E05BCFFF747FE40F26044C2F21824227840F24C
S315020E05CC5D41561C26700AF00106C2F2182140F243
S315020E05DC5E4805F0030537430978C2F2182800F077
S315020E05EC030047EA4507B8F8003047EAC00040EA6E
S315020E05FC8110C0B26FF31F33059940EA0320019E98
S315020E060C40EA02504A6800F140513046904730B1EA
S315020E061CB8F8000058451CBF0130A8F8000041F28C
S315020E062C0404CEF20004D4F80080DDF814A00A20DD
S315020E063C4FF47A7101F0B7FB4D46E3E6A9464AE74B
S315020E064CB0B50079012868D140F2614040F268419A
S315020E065CC2F21820C2F2182100780A68FF2802F19B
S315020E066C01020A6040F26241C2F218210A7801D0E6
S315020E067C002A46D00B785A1C0A7040F27242C2F20B
S315020E068C1822D0540B78042B3BD31378FF2B2ED176
S315020E069CD378FE2B2BD15378947844EA032C0FFA8B
S315020E06AC8CF4A30013F5004F48F20003CFF6FF733A
S315020E06BCC8BFA300B4F5005F40F26444A8BF47F668
S315020E06CCFF73C2F21824238040F27043C2F218232F
S315020E06DCA3F800C040F26C43C2F218231C68013414
S315020E06EC1C6040F26343C2F2182301241C70A0F163
S315020E06FCFF03B3FA83F35B090B700978012908BF62
S315020E070C107042F23810C0F20E20816800684B68E7
S315020E071C40F26141C2F2182119E010F0780F08BFAF
S315020E072CB0BD42F23810C0F20E20856804686A69B2
S315020E073C20460121904740F26240C2F21820002157
S315020E074C01706B6840F26141C2F2182120460122F9
S315020E075CBDE8B040184770B542F23810C0F20E2002
S315020E076C8668D0E90041326820469047054638B96C
S315020E077C736840F26141C2F2182120460122984753
S315020E078C284670BD40F26340C2F21820007800284B
S315020E079C18BF0120704740F26440C2F21820B0F91D
S315020E07AC0000704740F26C40C2F218200068704787
S315020E07BC40F27040C2F21820B0F90000704780B5B4
S315020E07CCFFF78AFD002080BD2DE9F0470D46044643
S315020E07DC087848F20001C4F2350101EB0020606282
S315020E07EC0020207025626969A162A969C4E90B0110
S315020E07FCA078D5F81C8020F00300411CA1706978F4
S315020E080C11B940F00200A07095F90B604EF2001968
S315020E081CCEF2000906F01F014FF0010C0CFA01F391
S315020E082C09F180017009AA7A41F820304CF2003A8D
S315020E083CBFF34F8FC4F2000ABFF36F8F5AF826001E
S315020E084C40F2685E20F480304AF826005AF82600EA
S315020E085C100109F54072C2F2182E90554EF826402A
S315020E086C95F905002E7900F01F030CFA03F34709CE
S315020E087C41F82730BFF34F8FBFF36F8F5AF82030E4
S315020E088C23F480334AF820305AF8203033011354AD
S315020E089C4EF8204095F90700AB7900F01F060CFABC
S315020E08AC06F6470941F82760BFF34F8FBFF36F8FDA
S315020E08BC5AF820601B0126F480364AF820605AF844
S315020E08CC206013544EF8204095F909002B7A00F04D
S315020E08DC1F060CFA06F6470941F82760BFF34F8F2F
S315020E08ECBFF36F8F5AF8201021F480314AF820107C
S315020E08FC5AF82010190111544EF82040EFF31086B7
S315020E090C8CF3108843F204022878C4F220024FF0BC
S315020E091C0041136821FA00F023EA000010601068F9
S315020E092C1E20012101F03FFA86F31088606A4FF4FD
S315020E093C80618160E869EB786A784FF48047467875
S315020E094C07EA8333417B077806F0010662F3092325
S315020E095C01F0010143EAC63207F0030742EA41519E
S315020E096C41EA0761626A01F58051D0F804C0516101
S315020E097C027802F0FE01022907D14FF60471CFF668
S315020E098C0071022A08BF203101E0DCF80010626AFF
S315020E099C0C231161027BAF78817863F39F024FF4BD
S315020E09AC4073022F08BF4FF48073002F18BF1A43E1
S315020E09BC01F00101636A42EA0171D960626A002191
S315020E09CC91612A78092A04D8626A0023C1F61F732A
S315020E09DC5362827BB0F80F00636A42EA002041F63C
S315020E09EC0172C0F21F02104018632046C4E90411AC
S315020E09FCC4E9061100F065F9B8F80A001021A081B7
S315020E0A0C606AC9F607518166206A90F905205AF872
S315020E0A1C220002F01F0120F480304AF822005AF806
S315020E0A2C2200012000FA01F309F5C0715209BFF337
S315020E0A3C5F8F41F8223049F82230226A92F90B2046
S315020E0A4C5AF8223023F480334AF822305AF82230DE
S315020E0A5C02F01F0300FA03F35209BFF35F8F41F83C
S315020E0A6C223049F82230226A92F907205AF822309D
S315020E0A7C23F480334AF822305AF8223002F01F033E
S315020E0A8C00FA03F35209BFF35F8F41F8223049F88D
S315020E0A9C2230226A92F909205AF8223023F4803334
S315020E0AAC4AF822305AF8223002F01F0398405209A5
S315020E0ABCBFF35F8F41F8220049F82200606A40F2BA
S315020E0ACC1141C0F201018160606A00BF017FC90744
S315020E0ADCFCD044F64211C5F2433100206160BDE8EA
S315020E0AECF08703460020C3E90612704780B5D0F88C
S315020E0AFC24E0DEF808C02CF44013CEF80830D0F8F9
S315020E0B0C24C000BFDCF848305B00FBD5DCF808309D
S315020E0B1C23F01003CCF80830D0F824C09CF81C3005
S315020E0B2CDB06FBD4C0E90412DCF8080040F0101107
S315020E0B3C0020CCF8081080BD70B50446406A0D46EE
S315020E0B4C82684FF6EE71CFF6CE711140816000209F
S315020E0B5C2061204622F4401600F0B3F82868616A2A
S315020E0B6C0861616A00208E6070BD4FF0FF32002064
S315020E0B7C0A604A607047D4D48A0701D4062212E060
S315020E0B8C426A936823F440139360426A936C5B0039
S315020E0B9CFCD5936823F010039360426A137FDB062F
S315020E0BACFCD400224261C9071CBF0022C261104648
S315020E0BBC70478446C0E90A130020CCF830207047E1
S315020E0BCCB0B50446406844F64211C5F2433188422A
S315020E0BDC1CBF0720B0BD606A816821F4401181608A
S315020E0BEC606A816821F010018160606A017FC90614
S315020E0BFCFCD4206A90F90710012001F01F024B0952
S315020E0C0C4EF2801100FA02F2CEF2000141F82320C6
S315020E0C1CBFF34F8FBFF36F8F226A92F9092002F040
S315020E0C2C1F0300FA03F3520941F82230BFF34F8F1A
S315020E0C3CBFF36F8F626A936823F480339360226AD2
S315020E0C4C92F9052002F01F0300FA03F3520941F83A
S315020E0C5C2230BFF34F8FBFF36F8F226A92F90B209E
S315020E0C6C02F01F0300FA03F3520941F82230BFF3C6
S315020E0C7C4F8FBFF36F8FEFF3108580F31088206AB8
S315020E0C8C43F204020078C4F220024FF000411368BC
S315020E0C9C21FA00F01843106010681E20012101F093
S315020E0CAC82F885F3108800206060B0BD0246C069DA
S315020E0CBC086000210020D16170470620704706207D
S315020E0CCC704770B50446006AC5690020A060687C40
S315020E0CDC68B34EF25400C4F20100017801F00F0112
S315020E0CEC022901D801220BE0CA1E052A06D242F2AD
S315020E0CFC1021C0F20E2151F8226003E0083910229F
S315020E0D0C02FA01F6407800F00F0001F044F840F2B8
S315020E0D1C9852C2F21822697C1268B0FBF6F002FBEC
S315020E0D2C01F1B1FBF0F0012101EB9000A06070BD58
S315020E0D3CB0B5EFF303804FF0704101EB00604CF24D
S315020E0D4C00318015C4F20001425822F48032425010
S315020E0D5C415840F26851C2F218210C58206A0169A8
S315020E0D6C6069C1B9C0B1A07800F0030120690229ED
S315020E0D7C05D10088616A20F4DC40486002E00078F6
S315020E0D8C616A0871A078616900F00302881A2169FA
S315020E0D9C606111442161A0B9616A02228D68A06854
S315020E0DAC62F3155510B101F040F8616A8D60A06AB6
S315020E0DBC0021216128B120468022BDE8B04000F008
S315020E0DCC01B8B0BD2DE9F04385B08146C06A0DF16E
S315020E0DDC040830B1054695E8D800C4468CE8D8000E
S315020E0DEC00E04046D9F820301B7881600360027110
S315020E0DFCD9F83010C160D9F828108847D9F82C00CA
S315020E0E0C10B198E88E008EC005B0BDE8F08310B511
S315020E0E1C82B0EFF303804FF0704101EB00604CF29F
S315020E0E2C00318015C4F20001425822F4803242502F
S315020E0E3C415840F26851C2F218210C58A07800F0B3
S315020E0E4C0302606A022A03D101686FF35F2100E086
S315020E0E5C0178E069019198B1A06901A901F01DF919
S315020E0E6CA078A169E26900F003000144101AA1618F
S315020E0E7CE0610ED1A06A60B120460021012203E088
S315020E0E8CA06A30B12046042202B0BDE81040FFF72C
S315020E0E9C99BF02B010BD10B54FF07041EFF303803F
S315020E0EAC01EB006140F268528815C2F218221058F4
S315020E0EBC4FF6EF74426ACFF6CF7493682340936063
S315020E0ECC826A0C161AB100210222FFF77BFF4CF234
S315020E0EDC0030C4F2000050F8241021F4803140F890
S315020E0EEC241050F8240010BD4FF07041EFF303801E
S315020E0EFC01EB006C40F268514FEAAC50C2F218216B
S315020E0F0C08588178436A01F00301022903D1196844
S315020E0F1C6FF35F2100E01978B0B59A6C202404EABF
S315020E0F2CD24E1024082514EA126405EA1262724491
S315020E0F3C224403D09D6C2D0458BF40329D6E4FEA4F
S315020E0F4C2C6445F0C8559D66836A0BB1FFF73AFFC2
S315020E0F5C4CF20030C4F2000050F8241021F4803109
S315020E0F6C40F8241050F82400B0BD41600246886841
S315020E0F7CC0231061C868C4F202039061002050614E
S315020E0F8C086803EB40109060086803EB4010403083
S315020E0F9CD06091F90400002829D449794EF2001C2E
S315020E0FACCEF2000C090100EB0C0383F8001340F28F
S315020E0FBC6851C2F2182141F820204CF20031C4F2CB
S315020E0FCC000151F8203023F4803341F8203051F8C9
S315020E0FDC201000F01F010123400903FA01F10CEB5C
S315020E0FEC8003BFF35F8FC3F880114CF8201045F2C5
S315020E0FFC4301C5F2492100201160704780680268D0
S315020E100C92034EBF0C20816000207047826800202E
S315020E101C516070478446C0E904130020CCF81820A0
S315020E102C70470146406890F9040000280FD400F070
S315020E103C1F02012303FA02F24EF280134009CEF27C
S315020E104C000343F82020BFF34F8FBFF36F8F00229E
S315020E105C00200A607047B0B5EFF303804FF0704173
S315020E106C01EB00604CF200318015C4F200014258BD
S315020E107C22F480324250415840F26851C2F2182183
S315020E108C0C58E0680568E80304D520464FF4803107
S315020E109C00F00BF835F4403508BFB0BD2046294694
S315020E10AC00F003F8E0680561B0BD2DE9F04184B09D
S315020E10BC04464069E84630B1034693E8E400C4465A
S315020E10CC8CE8E40000E040466268B1F5803F126897
S315020E10DC81600260A269C26002D1E168C96800E051
S315020E10EC0021416021698847606910B198E88E002B
S315020E10FC8EC004B0BDE8F08180B545F25422C5F21D
S315020E110C4F020260084600F017F8002080BDC8B2E6
S315020E111C012383409BB24FF4803C002A08BF0CFA83
S315020E112C00F36FF0010000EAD11008220101C4F29D
S315020E113C400200205350704770B5044600F05CF81E
S315020E114C40F2645CEFF31080012181F31088C2F237
S315020E115C182CDCF8001039B940F61451C4F24001C1
S315020E116C00220A7040220A70DCF800100131CCF80B
S315020E117C001080F31088208810B340F6000E002162
S315020E118CC4F2400E606800EBC102928850F8313000
S315020E119C100ADD03D2B20BD50EEB801555F8226072
S315020E11AC26F4803645F8226023F4803645F8226002
S315020E11BC0EEB801040F82230208801318142E1D3A9
S315020E11CCEFF31081012080F31088DCF8000020B1B9
S315020E11DCDCF800000138CCF80000DCF8000038B957
S315020E11EC40F61450C4F240000022027080220270A5
S315020E11FC81F3108870BDD4D42DE9F04F81B004461C
S315020E120C008800285CD042F240084EF64C4A42F256
S315020E121C382BC4F220080026C4F2010AC0F20E2B99
S315020E122C4FF00109002700BF60683BF8172000EB50
S315020E123CC600818891423CD100689AF8001000F0E3
S315020E124CB85009FA07F5B0F1807F05EA010015D1FF
S315020E125C50B9012000F064FE9AF8000028438AF871
S315020E126C0000012000F033FE18F91700002820D4D6
S315020E127C18F8170040F0800015E000BF50B101209F
S315020E128C00F04EFE9AF80000A8438AF800000120E0
S315020E129C00F01DFE18F91700B0F1FF3F09DC18F825
S315020E12AC170000F07F0008F81700C820012100F085
S315020E12BC7AFD0137032FB7D1208801368642B1D378
S315020E12CC01B0BDE8F08F70B50D46044608784EF2A5
S315020E12DC0001C4F2250101EB002020612560A868ED
S315020E12EC43F204026060287BC4F220022072E86983
S315020E12FC6063286AE0630020A063C4E90500C4E9B2
S315020E130C070084F8290084F82A0084F82B0084F846
S315020E131C2C00EFF31086012080F3108829781368BF
S315020E132CC1F10901884023EA0000106010681E20E4
S315020E133C012100F038FD86F310882046294600F06E
S315020E134CB5F844F64311C5F249210020E16070BD91
S315020E135C9C46012380F82AC000F06AB99C460023EB
S315020E136C80F82AC000F064B9B0B5044600690025AF
S315020E137CC5712168204600F099F894F82600216969
S315020E138C84F82800A069B322C4E90750002084F819
S315020E139C2C5084F82A50CA71B0BD03464160002007
S315020E13AC1A7270478446C0E90D130020CCF83C2005
S315020E13BC7047C0684BF2BD62CAF6B6521044B0FA0A
S315020E13CC80F0420900200A707047B0B504460069D7
S315020E13DC0025C5712168204600F068F894F826009F
S315020E13EC216984F82800A0694EF28013C4E90750CD
S315020E13FCB32084F82C5084F82A50C8712069CEF288
S315020E140C0003C5712068E56090F91110012001F0F8
S315020E141C1F0200FA02F2490943F82120BFF34F8F3D
S315020E142CBFF36F8F216891F90E1001F01F0200FAAD
S315020E143C02F2490943F82120BFF34F8FBFF36F8F88
S315020E144C216891F9101001F01F0200FA02F24909F5
S315020E145C43F82120BFF34F8FBFF36F8F216891F99B
S315020E146C0F1001F01F0200FA02F2490943F821206D
S315020E147CBFF34F8FBFF36F8FEFF3108580F3108888
S315020E148C216843F204020978C4F22002C1F1090161
S315020E149C136888401843106010681E20012100F054
S315020E14AC82FC85F310880020B0BDD4D4F0B5026947
S315020E14BC00231370026940231370026913785B06BC
S315020E14CCFCD5C023137002680369526A0825127979
S315020E14DC4EF2001C42F0E0021A7402680369526A5A
S315020E14ECCEF2000CD27840F2685E42F0E0025A74EA
S315020E14FC02680369526AC2F2182E927862F30615C4
S315020E150C9D7002680369526A15785278013DB5FAD6
S315020E151C85F56D0945EA420242F00402DA7002685A
S315020E152C44F2402552680369C0F20F05AA424FF0E7
S315020E153C770208BF6FF008025A7102690023937183
S315020E154C0269B323D3714A7B91F9116013010CF51F
S315020E155C407293554CF200334EF82600C4F2000339
S315020E156C53F8264006F01F0524F4803443F8264021
S315020E157C53F82640012404FA05F70CF5C0757609C4
S315020E158CBFF35F8F45F826704CF826704E7B91F999
S315020E159C0F703601D6554EF8270053F8276026F4EF
S315020E15AC803643F8276053F8276007F01F0604FAB5
S315020E15BC06F67F09BFF35F8F45F827604CF8276056
S315020E15CC4E7B91F910703601D6554EF8270053F80C
S315020E15DC276026F4803643F8276053F8276007F007
S315020E15EC1F0604FA06F67F09BFF35F8F45F82760CE
S315020E15FC4CF827604E7B91F90E10360156544EF866
S315020E160C210053F8212022F4803243F8212053F87C
S315020E161C212001F01F0204FA02F24909BFF35F8F71
S315020E162C45F821204CF8212000699F210170F0BD4E
S315020E163C90F808C0C0E90512BCF1010F08D1017968
S315020E164C4FF4807C43EA4101A0F825C080F82410A1
S315020E165C10B581B04EF2200180F82930C4F2010188
S315020E166C09680091009901F00F210091DDF800E056
S315020E167CDDF800C001690B7C90F82C409CB9CEF3B8
S315020E168C0322A2EB1C6203FA02F2042A06D3920876
S315020E169C91F90130002B03D5013AF9D108216CE0F0
S315020E16AC0022CA71826990F82630002180F8281021
S315020E16BCC0E9072180F8273080F82B1080F82D1000
S315020E16CC80F82E1080F82F1080F830100168D0F8A2
S315020E16DC10C0496A0B784C78013BB3FA83F34A79FC
S315020E16EC5B0991F806E043EA440343EA021242EA24
S315020E16FCCE1242F004028CF803200269137943F0DF
S315020E170C100313710269137903F0F703137102694D
S315020E171C137903F0EF0313710269C979137903F086
S315020E172C7F0343EAC111117101694A7942F0010232
S315020E173C4A71016891F90F1000290BD401F01F02A0
S315020E174C012303FA02F24EF200134909CEF20003FA
S315020E175C43F8212001694A7A02F0F3024A720169B0
S315020E176CBF22CA7190F82C1019B1002180F82C10D8
S315020E177C03E00069022141700021084601B010BD3A
S315020E178C10B582B0EFF303804FF0704101EB00609F
S315020E179C4CF200328015C4F20002835823F48033C5
S315020E17AC83508058EFF3038001EB006040F26851D0
S315020E17BC8015C2F218210C5894F82D00B8B1E069B6
S315020E17CC002861D02168496AC979012904D12046BB
S315020E17DC052100F037FAE069012857D0022833D0DA
S315020E17EC032840D12069017941F040013AE0A06903
S315020E17FC022804D82069017941F040010171E06991
S315020E180C01280ED12069017941F01001017120696E
S315020E181C017941F0080101712069017901F0EF019C
S315020E182C01712068406AC079012803D12046052130
S315020E183C00F008FA2069C07C8DF807009DF80700A7
S315020E184C012084F82D001FE02069017941F0100168
S315020E185C01712069017941F0080101712069017942
S315020E186C01F0EF010171D4E90401C07C226A88549D
S315020E187CD4E9071001300139C4E9071004D12069E5
S315020E188C017901F0BF01017102B010BD94F82A0064
S315020E189C012831D120684EF2801390F90F100120D7
S315020E18AC01F01F0200FA02F24909CEF2000343F8C6
S315020E18BC2120BFF34F8FBFF36F8F2169CA7942F086
S315020E18CC8002CA7121690A7942F010020A712169E3
S315020E18DC0A7902F0F7020A7121690A7902F0EF020D
S315020E18EC0A71216904224A7021694A7902F0FE02B2
S315020E18FC4A7184F82C00B6E72069417A01F0F70199
S315020E190C4172206908214170ADE7D4D4B0B5EFF31C
S315020E191C03804FF070414CF2003501EB0060C4F2BD
S315020E192C00058015425922F4803242514059EFF38A
S315020E193C038001EB006040F268518015C2F2182149
S315020E194C0C5894F82700C8B194F82600032806D131
S315020E195C94F82800022802D194F8300068B394F851
S315020E196C24002169887494F8280094F82710013003
S315020E197C84F82800481E84F82700B0BD94F8290076
S315020E198CD8B92068406AC079012808D194F82B0080
S315020E199C28B9206A18B12046052100F053F9E069E0
S315020E19AC60B1D4E90401226A895C8174D4E9071008
S315020E19BC01300139C4E9071000D0B0BD2069C179D6
S315020E19CC01F07F01C17120696FF0BE0190F90720FB
S315020E19DCB2F1FF3F03DC002901F10101F6D12068B9
S315020E19EC90F9100055F8201021F4803145F820108C
S315020E19FC55F82000206890F9100000280BD400F040
S315020E1A0C1F01012202FA01F14EF280224009CEF298
S315020E1A1C000242F820102069C17941F04001C171D1
S315020E1A2CB0BDD4D410B5EFF303804FF0704101EB79
S315020E1A3C006040F268518015C2F218210C582068CB
S315020E1A4C406AC079012803D12046052100F0FAF826
S315020E1A5C94F82900012806D194F82700012802D100
S315020E1A6C94F8300080B3E06970BB94F82A00012812
S315020E1A7C22D12068012290F90F004EF2801300F04B
S315020E1A8C1F0102FA01F14009CEF2000343F82010AF
S315020E1A9CBFF34F8FBFF36F8F2069C17941F080016F
S315020E1AACC1712069042141702069417901F0FE0150
S315020E1ABC417184F82C2007E02069417A01F0F70176
S315020E1ACC41722069082141702069C17901F0BF016A
S315020E1ADCC17120696FF0BE01C279520603D5002977
S315020E1AEC01F10101F8D1EFF303804FF0704101EBD6
S315020E1AFC00604CF200318015C4F20001425822F4F9
S315020E1B0C80324250405810BDB0B5EFF303804FF001
S315020E1B1C704101EB006040F268518015C2F2182139
S315020E1B2C0C5821694A7A4B7A02F01F0003F0E00335
S315020E1B3C0F2802F003024B7201D83AB924E021693E
S315020E1B4C4B785B0658BF42F00102D2B1012084F8E3
S315020E1B5C2B0020690025C57121682046FFF7A6FCCD
S315020E1B6C94F82600216984F82800A069C4E9075066
S315020E1B7CB32084F82C5084F82A50C87120460121C1
S315020E1B8C4DE04A78520611D4010706D494F82C204D
S315020E1B9C012A31D110F004022ED0E06910B994F854
S315020E1BAC2B0098B3002919D4012036E0012084F8B3
S315020E1BBC2B000820487020682169406A0278437906
S315020E1BCC807942EA031242EAC01040F00200C87053
S315020E1BDC2069417941F00101417122E094F8260007
S315020E1BEC002184F82800A069C4E90710012084F8A4
S315020E1BFC2C1084F82A100DE0400712D52068406A84
S315020E1C0CC07901280DD12046042108E094F829004A
S315020E1C1C80F003002169B322CA71C1B2204600F0CC
S315020E1C2C11F8EFF303804FF0704101EB00604CF2AA
S315020E1C3C00318015C4F20001425822F48032425011
S315020E1C4C4058B0BD10B582B00446806B00281ABF40
S315020E1C5CD0E90023CDE900236846E26B01710260DE
S315020E1C6C616B8847A06B18B1DDE90012C0E9001250
S315020E1C7C002084F82B0002B010BDD4D44EF22401EF
S315020E1C8CC4F2010188780988C1F30312A2F1080184
S315020E1C9C03293BD8DFE801F0022C101E40F220413C
S315020E1CACC2F2182151F820004AF6AB21CAF6AA2125
S315020E1CBCA0FB0101480830E040F22041C2F2182185
S315020E1CCC51F820004AF6AB21CAF6AA21A0FB010155
S315020E1CDCC80822E040F22041C2F2182151F8200027
S315020E1CEC4AF6AB21CAF6AA21A0FB0101080914E099
S315020E1CFC40F22041C2F2182151F820004AF6AB21CD
S315020E1D0CCAF6AA21A0FB0101880806E040F2204180
S315020E1D1CC2F2182151F82000D04040F29851C2F26C
S315020E1D2C18210860704770B540F2204046F6004105
S315020E1D3C41F20022C2F21820C0F2DC21C0F27A0263
S315020E1D4C43F2006C4FF40043C0F26E1C4CF6002E9E
S315020E1D5C44F2553448F2004544F2006680E80E1001
S315020E1D6C40F6000143F60002C3F69A3EC1F2DE3489
S315020E1D7CC1F2D775C2F2C336C2F6AF71C1F69C4228
S315020E1D8CC0E9043EC0E90664C0E908518262BDE8A8
S315020E1D9C7040FFF773BF40F22041C2F2182151F880
S315020E1DAC20007047704740F29852C2F218221268FF
S315020E1DBC41F20023C0F27A039A4201FB00F00FD3D2
S315020E1DCC40F6FF01C0F23D0111444DF68362C4F298
S315020E1DDC1B32A1FB0212110DA0FB0101E9B11FE090
S315020E1DEC4CF6002348F63811C3F69A33C0F241016B
S315020E1DFCB3FBF2F2884207D24FF47A7100FB01F072
S315020E1E0CB0FBF2F0800808E09200B0FBF2F08842CA
S315020E1E1C06D24FF47A7100FB01F028B100F005B828
S315020E1E2C4FF0FF3000F001B8704701380028FCD194
S315020E1E3C7047D4D4F0B581B04CF20015C4F200053D
S315020E1E4C2868296A40F2105701EA00060024C2F2EB
S315020E1E5C182700BF26FA04F0C00704D057F8241030
S315020E1E6C09B1204688470134152CF3D12E6100BFD9
S315020E1E7C286A3042FCD101B0F0BDD4D470B542F210
S315020E1E8CD0114CF2003246F240034FF0000EC0F265
S315020E1E9C0E21C4F20002C4F200034FF0010C002014
S315020E1EAC31F8104074B1BEEB942F42F8204009D192
S315020E1EBC650953F8256004F01F040CFA04F4344336
S315020E1ECC43F825400130092808BF70BDE8E7012208
S315020E1EDCEFF3108182F3108840F28C52C2F2182262
S315020E1EEC32F8103023B132F81030013B22F8103092
S315020E1EFC32F810208AB94EF2FA3CC4F2010C42F2B6
S315020E1F0CAC42BCF80030C0F20E2232F8100043F48A
S315020E1F1C254222EA0000ACF8000081F310887047C5
S315020E1F2C80B50122EFF3108182F3108840F28C52A7
S315020E1F3CC2F2182232F810308BB94EF2FA3C42F239
S315020E1F4CAC43C4F2010CC0F20E23BCF800E033F81B
S315020E1F5C103043EA0E0343F42543ACF8003032F844
S315020E1F6C1030013322F8103081F3108880BDD4D490
S315020E1F7C00F006F8FEF723FCFEE700BE7047D4D43B
S315020E1F8CB0B54EF60850CEF200004FF47001C0F802
S315020E1F9C801040F20001C0F20E214CF204040160D4
S315020E1FAC0020C4F20104FEF7A1F9FFF7BCFE20686D
S315020E1FBC40F00100206000BF20680028FCD10120F1
S315020E1FCC44F8040CFEF792F940F22000C2F21820E5
S315020E1FDC80F30A88002000F02FF8FFF74FFE02203E
S315020E1FECFEF784F9012000F027F840F2A054C2F253
S315020E1FFC1824204600F062F8204600F073F842F2DE
S315020E200C065042F20651C0F20E20C0F20E21081AEA
S315020E201C8410012C09DB42F20655C0F20E2500BFC6
S315020E202C55F8040B8047013CFAD1FFF727FF002027
S315020E203CBDE8B040FFF7B6BEF0B581B042F28025D0
S315020E204CC0F20E252E68044676B16868071D00BFCF
S315020E205C7879844204D157E90101091A00F019F86C
S315020E206C013E07F10C07F3D1AE6886B1E86800F1B2
S315020E207C080500BF6879844205D155E90202296822
S315020E208C121A00F00AF8013E05F11005F2D101B052
S315020E209CF0BD0A46002100F009B810B500239A428B
S315020E20AC03D0CC5CC4540133F9E710BD00239A421B
S315020E20BC08BF7047C1540133F9E7D4D410B505499C
S315020E20CC0446054AFFF7E9FF044805492044FFF783
S315020E20DCE0FF10BD6C000E020000000000000000B6
S315020E20EC000000000249401A02490860704700BF00
S315020E20FC080000009C05182200010000040018229C
S315020E210C0F00FFFF00000001010000000402000098
S315020E211C0C050C060C070C08000000000000000053
S315020E212C4D060E020000000004210E028004182237
S315020E213C18210E02E4210E020101041011000000F8
S315020E214C01000000A086010038000000010C0102FD
S315020E215C0304000000000000000000006D000E02D9
S315020E216C0000000044210E02B40418224C210E0269
S315020E217C40220E02000000000005000013030E02A0
S315020E218C00000000F404182280210E0224220E02F4
S315020E219C0500000005010000000401070B050000F6
S315020E21AC000401070C050000000001040E070000D6
S315020E21BC000001040F070000050000009C210E0210
S315020E21CC000000005B00A100A200A300A400E00226
S315020E21DCE102E202E302D4D4D5070E02EF0A0E0294
S315020E21ECF90A0E02450B0E02770B0E02850B0E0228
S315020E21FCBF0B0E02CD0B0E02B90C0E02C70C0E0243
S315020E220CCB0C0E02060000000800000003000000B4
S315020E221C050000000A000000770F0E0209100E02CE
S315020E222C19100E0221100E022F100E0202040304B6
S315020E223C0404D4D4D3120E025D130E0269130E02CB
S315020E224C75130E02A7130E02B1130E02BF130E0254
S315020E225CD7130E02000000700000007000000088FA
S315020E226C0000008800000074000000742000182282
S315020E227C200018220B00000098220E0219000000F4
S315020E228C1C230E020400000060220E0200000070D7
S315020E229C000000700001000D0000007000000070BE
S315020E22AC0001000D000000880000008800010008E5
S315020E22BC000000880000008800010008000000746F
S315020E22CC000000740001000A000000740000007485
S315020E22DC0001000A000000000000000000000006CB
S315020E22EC000000200000002000000007200018222B
S315020E22FC20001822000000034C041822A0051822F6
S315020E230C00000003A0051822A005182200000003E7
S315020E231C0000007000000070000000980001090D0C
S315020E232C00000070000000700000007C00010B0D16
S315020E233C0000007000000070000000270001020D64
S315020E234C000000700000007064000E020001010D08
S315020E235C00000088000000880000009800010908A1
S315020E236C00000088000000880000007C00010B08AB
S315020E237C00000088000000880000002700010208F9
S315020E238C000000880000008864000E02000101089D
S315020E239C0000007400000074000000980001090A87
S315020E23AC00000074000000740000007C00010B0A91
S315020E23BC0000007400000074000000270001020ADF
S315020E23CC000000740000007464000E020001010A83
S315020E23DC0000000000000000000000980001090633
S315020E23EC00000000000000000000007C00010B063D
S315020E23FC000000000000000000000027000002068C
S315020E240C000000000000000064000E02000001062F
S315020E241C00000020000000200000009800010907B1
S315020E242C00000020000000200000007C00010B07BB
S315020E243C000000200000002000000027000002070A
S315020E244C000000200000002064000E0200000107AE
S315020E245C0000182200001822000000980001090341
S315020E246C00001822000018220000007C00010B034B
S315020E247C000018220000182200000027000002039A
S315020E248C000018220800182264000E020000010336
S315020E249CA0051822A00518226C000E0200000103DC
S315020E24AC01000200080010002000D4D4000004061D
S315020E24BC362E342E30004275696C74207769746828
S315020E24CC2052656E6573617320416476616E636527
S315020E24DC6420466C657869626C6520536F667477F8
S315020E24EC617265205061636B6167652076657273E6
S30F020E24FC696F6E20362E342E300064
S705020E1F7D4E
