S00D00007261696E792E73726563F4
S315020000008050002261BE000211BD00026BBE0002DA
S315020000106BBE00026BBE00026BBE00026BBE00022C
S315020000200000000000000000000000006BBE00029D
S315020000306BBE0002000000006BBE00026BBE000237
S31502000040B39200020B940002F7B2000229B6000234
S31502000050758500020B8600021F8700023D8800029A
S31502000060917F000243A40002D1A50002F1A600027C
S31502000070D9A70002419B00025B9A0002C79B0002BD
S30902000080199C0002BD
S315020000840100000001000000010000000100000060
S3150200009401020201FF000000682C0F22000000008A
S315020000A4000000001800002200000000000000000A
S315020000B40000000010C2100000001028000000001A
S315020000C400000000000080000001000068B0060283
S315020000D4291B0002000000000000000000020000CC
S315020000E4010000DF01DF0BFF0BFF0000FFFFFFFF34
S3150200010080B582B0009171B34FF0020C0B4600BF6E
S3150200011013F801EBACF1010CBEF1210F02D3BEF1D3
S315020001203A0FF5D1BEF13A0F07D1097830294FF0CF
S315020001300B0108BFBCF1000F18D145F2C00CC2F288
S31502000140002CDCF800300BB10021197008B1002137
S315020001500170CCF8000042B1684601A9002200F005
S315020001602BF8014602E00B2100E00021084602B00E
S3150200017080BDD4D4D4D4D4D4D0F800C0BCF1000FFE
S3150200018016D00223624600BF12F8011B013B212949
S3150200019001D33A29F8D13A2908D19CF8001030291E
S315020001A04FF0FF3108BF002B04D10260002101E0AD
S315020001B04FF0FF31084670472DE9F04184B00F46F3
S315020001C0154600213960FFF7D7FF00281BD40646E3
S315020001D045F2C000C2F2002050F82640002C4ED054
S315020001E03C60207888B1607802F04CF90146C0077D
S315020001F00BD115F03E004FEA41714FF00A0218BFCB
S3150200020002EAE17067E00B2065E0002020703046CC
S31502000210667002F02BF9C10733D115F03E0F18BFF5
S3150200022010F004002FD10021204601F0B4F8022874
S3150200023021D14FF0040E04F2F910694600BF00BF47
S3150200024050F8032C103041F8042B0FF007C8002693
S315020002506D4600BF00BF00BF55F8041B21B1204602
S3150200026001F099F801E000BF0320022803D3032E10
S3150200027006F10106F0D3042807D101202BE00C2059
S3150200028029E0032027E00A2025E0012822D8B4F835
S315020002903B00B0F5007F1DD1B4F8460000B9606D91
S315020002A094F84030E16AA061A3705A1E012A11D85F
S315020002B094F83D7067817A1ED6B27A40D2B2B242C3
S315020002C008D994F8426094F84120150742EA0622BA
S315020002D0228103D00D2004B0BDE8F081B4F843506A
S315020002E005B9256DE68F002EF4D000FB03FE0EEB5A
S315020002F0121333449D42EDD3ED1ABD42EAD397FA67
S31502000300A7F74FF6F67CB7FA87F74FF0000825FAFB
S3150200031007F74FF6F675C0F6FF75AF4240F6F5756C
S3150200032038BF4FF00308674538BF4FF00208AF42A7
S3150200033098BF4FF00108B8F1000FCBD007F1020CBD
S315020003400E44B8F1030FC4F814C0C4E907160B44EF
S31502000350A3623ED194F85A3094F85B703B431A4339
S31502000360B8D140F2FF1202EB8C02B0EB522FE06DD5
S315020003706062AFD3B4F860004FF0FF32C4E90322E3
S3150200038001284FF08000207142D10131204600F051
S31502000390ECFAE8BBB4F82E024AF6552188424FF031
S315020003A00000207134D145F25221206BC4F2611152
S315020003B088422DD147F27221D4F81402C6F24111B5
S315020003C0884225D1D4F81802D4F81C12C4E90310C5
S315020003D01EE0002A3FF47EAF0CEB4C0107F001034E
S315020003E0A7F6F67203EB5101B2F5704F38BF4FEA2A
S315020003F04C0101F2FF11B0EB512F06EB0E006062C9
S31502000400FFF468AF4FF0FF30C4E90300802020718B
S3150200041045F2C40084F80080C2F20020018801314E
S3150200042001800020E18056E72DE9F04F8DB00C9156
S3150200043070B102F03F0A834615460CA86946524639
S31502000440FFF7BAFE48B107460020CBF8000000E0ED
S31502000450092738460DB0BDE8F08F0C9901A8DDF8E2
S315020004600080CDF8048000F0F7F89DF82F1049B20D
S31502000470B1F1FF3F0146D8BF0621002850EA118795
S315020004801AF01C0F00F0A080002F00F0AB80042FA2
S3150200049003D101A800F0E4F907464AF0080AAFBB07
S315020004A01AF0080032D0089867A191ED001F80ED7E
S315020004B00E0F458B80ED160F98F80010032905D113
S315020004C0017D427D120642EA01410D442021C1729C
S315020004D00021418398F80020032A08BF8182C16166
S315020004E04FF0010088F8030095B101A800222946C1
S315020004F0D8F82C9000F0F0F90028A4D140464946DD
S3150200050000F033FA0746681EC8F80C00002F9BD18C
S31502000510D8F82C100898CBE908100AF0080298F8C7
S315020005200010458B03294AEAC20105D1027D437DAB
S315020005301B0643EA02421544CBF808500BF1280980
S31502000540C469CBF80C40CBF800800027B8F8060047
S315020005508BF81010ABF804004FF4007148468BF884
S315020005601170CBF81C70CBF814700BF0CCFD5FEA5F
S315020005708A607FF56EAF002C3FF46BAFCBF8144068
S31502000580B8F80A00B4EB402F39D94FEA402A00BF27
S3150200059058462946264600F005FA0027022838BFA3
S315020005A002270546013008BF0127A4EB0A040FB94A
S315020005B05445EDD8CBF8185017B96FF35F2616BB22
S315020005C0002F7FF441AF39E0002F7FF43DAF9DF855
S315020005D00A00C10611D45FEA8A7199D510F00100AA
S315020005E096D004E09DF80A0010F0110F01D00727FB
S315020005F02AE7082000EA450751E7042724E7E00531
S31502000600CBF818501AD0D8F81400811EA81E8842BA
S3150200061016D2B8F80A10D8F8282000FB012078B1C3
S3150200062000EB5422CBF81C2098F80100012349461E
S31502000630012701F03BFF00287FF406AF002708E7F9
S31502000640022701E700BF00BF000000000000000013
S31502000650F30000005C0000002DE9F04F87B00D4664
S315020006600446016800BF00BF28785C2801D02F2805
S3150200067001D10135F8E70020A0602878202808D2A9
S31502000680802084F82B00204607B0BDE8F04F00F02A
S315020006906BBC04F1200B019101F1300000904FF088
S315020006A02030CDF818B0CBF80700CBF80400CBF811
S315020006B000006A1C00234FF0080900204FF0000AD0
S315020006C002922E5C471C212E5FEA2F915CD3CDE964
S315020006D0043107EB090102EB0008D344A1EB0A013E
S315020006E0039100BF00BF00BFF0B22E282CD05C28B9
S315020006F018BF2F283CD0D14525D070B2B0F1FF3FAC
S3150200070006DC4CF6420106F07F00C0F200210E5CC8
S315020007104CF2C660F1B20F22C0F200200BF0F7FCD9
S31502000720002840F09180A6F161000AF1010AC0B2E8
S3150200073001371A2838BF203E0BF8016B18F8016BF7
S31502000740212ED1D224E0039F2E285FEA0F9004992E
S315020007504FF0080A4FF00B0901230843DDF818B0E1
S31502000760C0073846029AACD06EE000BF00BF00BF99
S31502000770DDE9051B00BF00BF18F8010B5C2801D09C
S315020007802F2801D10137F7E7BAF1000F5CD002E05A
S315020007900121DDF818B09BF80000E52802D10520FA
S315020007A08BF800003D4409B1042005E02878212891
S315020007B04FF0000038BF042084F82B00204627683B
S315020007C000F0D2FB002842D1A169384600F0CDF8EC
S315020007D0E0BBE069017871B3C67A06F03F01A17108
S315020007E0C17A090704D40B2259460BF08FFD30B1AA
S315020007F00021204600F088FCD8B92FF01BC894F8D7
S315020008002B00400726D4F00626D5206900996FF3FF
S315020008105F20014401980278488B032A05D10A7D9C
S31502000820497D090641EA02410844A0604FF02030A2
S3150200083039E704280BD194F82B0010F0040F4FF07F
S31502000840040050EA109002E0062000E0012007B002
S31502000850BDE8F08F0020FAE70520F8E7D4D4D4D417
S3150200086070B50546046800F07FFB064680B1F0B21B
S3150200087070BD00BF00BF00BFE869007880B1E528FF
S315020008800ED00121284600F03FFC064600061CD188
S31502000890A969204600F069F80028EDD00126E6E7AE
S315020008A0A969204600F061F800284FF00106DED162
S315020008B0E86920210BF027FCE86905F120010B22EB
S315020008C00BF02FFCE6700026D1E7F0B2042808BF31
S315020008D00726CCE7D4D4D4D4022901D2022040E0A0
S315020008E0F0B581B0056804460E466869814234D285
S315020008F01146EAB14FF0FF32284600F0A6FDB8B124
S315020009002CE000BF00BF00BF00222846314600F09F
S315020009109CFD18BBD5E90410821E914205D22A79A4
S315020009200131296142F00101297187423E461AD2FC
S315020009302046314600F036F807460228E4DA082057
S315020009404FF6F87100EBC700C0F2FF010840012123
S31502000950C0F2020121FA00F000E0022001B0BDE877
S31502000960F040C0B270470020F8E7B0B50446C06A4E
S31502000970814201D10020B0BD20460D4600F0E9FDBE
S3150200098008B10120B0BD607804F1300101232A4686
S3150200099001F08CFD00285FEA0F9018BF4FF0FF357B
S315020009A0E562B0BD022901D2012070472DE9F0416E
S315020009B005680C46686981422BD22878032838D00C
S315020009C0022829D0012824D104EB5406286A00EB18
S315020009D056212846FFF7C9FF90BB05F13008771C60
S315020009E06FF35F26286A00EB5721284618F806603F
S315020009F0FFF7BBFF20BB6FF35F27E20718F807007C
S31502000A0046EA002108466FF31F3018BF0809BDE801
S31502000A10F0810120BDE8F081286A00EB1421284606
S31502000A20FFF7A3FF60B9E0B205EB4000008EBDE818
S31502000A30F081286A00EBD4112846FFF796FF18B119
S31502000A404FF0FF30BDE8F08104F07F0005EB800037
S31502000A5090F8321090F8332090F8313090F8300048
S31502000A60090241EA0241194461F31B20BDE8F08103
S31502000A70B0B50C4680B10546006868B1017859B137
S31502000A80C188AA888A4207D1407801F0FBFCC007D8
S31502000A9002D12968002001E0002109202160B0BDB1
S31502000AA02DE9F04F83B004460E460020186002A9D5
S31502000AB020469A461746FFF7DBFF002840F0C4801F
S31502000AC0607C002840F0C080217C880701D4072082
S31502000AD0BAE06069C243974257EA30A5002D00F09A
S31502000AE0AA80DDF808B004F12809CDF8049000BF09
S31502000AF001466FF35F2179B1C1F50070A84250EA51
S31502000B00358709EB010031463A460BF00AFB207C99
S31502000B1040F08000207462E0BBF80A10013911EA45
S31502000B20502815D120B1A169204600F091F802E0C3
S31502000B30A06800287CD0411C00F08480002879D06F
S31502000B4001287DD0A168A06111B9A06000BF00BFD5
S31502000B5094F91000B0F1FF3F0CDC9BF80100E2694A
S31502000B600123494601F0FBFC00286BD1207C00F0F2
S31502000B707F002074DBF81400A169821E881E904251
S31502000B805ED2BBF80A10DBF8282000FB0120002801
S31502000B9056D06F0A00EB080933D008EB07004A4625
S31502000BA088429BF8010088BFA1EB080731463B4605
S31502000BB001F0D5FC002845D1E069A0EB0900DDF87B
S31502000BC00490B8420AD206EB40214FF4007248461E
S31502000BD00BF0A7FA207C00F07F0020747F02DAF87F
S31502000BE00000ED1B3844CAF80000E1686069384429
S31502000BF03E44884250EA81816061E160D5B12FF0BE
S31502000C0089C8E069616948450BD0E068814208D22B
S31502000C109BF80100012301994A4601F047FC88B975
S31502000C206169C4F81C906FF35F21DDF8049063E7F5
S31502000C30002179E7217C41F040002074002003E086
S31502000C40022000E00120607403B0BDE8F08FD4D426
S31502000C502DE9F04F81B088460646D0F800A039B19A
S31502000C6030464146FFF79EFE02280FD2012559E083
S31502000C70DAF80C401CB1DAF8140084420ED3D146DD
S31502000C8059F8100F00284CD0012431E005460130F6
S31502000C9026D0DAF814004446854243D3D14659F8A1
S31502000CA0101F00293DD0444522D108F1010181429D
S31502000CB04FF0020050EA289730463946FFF772FE97
S31502000CC0054601302ED075B1012D2BD0DAF80C0075
S31502000CD002280CD3DAF81410884250EA388407E066
S31502000CE04FF0FF351EE044463D460FB11FE0444635
S31502000CF04FF0020B274600BFDAF81400791C814236
S31502000D005BEA279701D3022C0BD330463946FFF70D
S31502000D1049FE0546013005D045B1012D02D0A74254
S31502000D20EAD10025284601B0BDE8F08F3D464FF0D6
S31502000D30FF325046294600F088FBB8F1000F05D075
S31502000D4020B9504641462A4600F07FFB28B10128C9
S31502000D504FF0010050EA10B5E4E7DAE90401CAF8F7
S31502000D600C500239884202D80138C9F800009AF8B4
S31502000D70040040F001008AF80400D3E7D4D4D4D4A6
S31502000D8070B582B001A90446FFF772FE0646C8B9DD
S31502000D90207C410601D4002614E040B2019DB0F148
S31502000DA0FF3F06DD216A2846FFF7DFFD68B101260F
S31502000DB008E0687804F12801E2690123012601F0BE
S31502000DC0CEFB20B3304602B070BD606AC17A41F0F4
S31502000DD02001C1722268A16841831278032A03D1D5
S31502000DE00A0C0275090E41750BA191ED001FE1680F
S31502000DF080ED160FC161002141820120E87028466C
S31502000E0000F012F8217C01F0BF012174DBE7207C9F
S31502000E1000F07F002074C5E700000000000000001B
S31502000E20F30000005C000000B0B5044600F091FB40
S31502000E3008B10120B0BD207803282DD120790128E0
S31502000E402AD104F134004FF4FE710BF05CF918A0BC
S31502000E502546012390ED001F19A0A5ED300F05F5DB
S31502000E60F27190ED001F4AF65520A5F8FE0181EDBC
S31502000E70000F55E90910C5F8E801C5F8EC1155F857
S31502000E80141C15F82F0C4A1C294645F8042C01F0AF
S31502000E9066FB002005F82C0C60780021002201F088
S31502000EA095FB00285FEA0F90B0BD00BF00BF00BFF0
S31502000EB052000000520000006100000041000000E4
S31502000EC07200000072000000410000006100000094
S31502000ED010B582B00446FFF753FF30B901A9204688
S31502000EE0FFF7C6FD08B90020206002B010BD70B53C
S31502000EF082B00191A0B1044601A8694600220025EC
S31502000F00FFF75AF948BB01992046009E2660FFF773
S31502000F10A3FB010606D0C1B2042908BF05201CE0C6
S31502000F2009201BE094F92B00002810D4A079C006F2
S31502000F3001D4052011E0E1693278488B032A05D1F4
S31502000F400A7D497D090641EA02410844A060F0880B
S31502000F50A080204600F008F818B12560C0B202B0A1
S31502000F6070BD0020FAE7D4D4F0B581B00446866895
S31502000F7005684FF0000020617EB16F89314600BFDF
S31502000F80B7B92046FFF70EFD014601301AD00229F5
S31502000F9023D36869814220D2F2E72878032802D354
S31502000FA06E6A002EE9D12889B8B1686A00260CE07B
S31502000FB06869811EB01E884206D26989AA6A00FB48
S31502000FC0012002E0012009E00020C4E9056020B109
S31502000FD005F13000E061002000E0022001B0F0BD22
S31502000FE010B582B001A90446FFF742FD08B90021F7
S31502000FF0216002B010BDB0B582B00D4601A904460B
S31502001000FFF736FD10B1C0B202B0B0BD85B12046C1
S3150200101000F012F88107F6D12046294600F03CF886
S315020010200021204600F070F8011F50EA1180EAE71D
S315020010302046FFF799FFE6E7B0B58169044619B382
S31502001040256800BF00BF00BF2846FFF78EFCE8B93F
S31502001050E1690878C0B1C97A01F03F02A2710F2A8C
S3150200106003D02E2818BFE52808D10021204600F01B
S315020010704BF860B9A16929B12FF01BC001F01F001E
S315020010800828F2D00020B0BD042000E00120002193
S31502001090A161B0BDD4D4D4D470B58E4600220EF868
S315020010A0092F82697AB300224FF02E0C00231546CF
S315020010B016460B2A98BF0B25B54213D0C269945D1A
S315020010C0721C1646202CF7D0052C08BFE524092AE7
S315020010D003D15D1C0EF803C02B465D1C0EF80340BF
S315020010E02B46E4E700220EF80320C269D27A02F008
S315020010F03F020A72C269D2690A60C269D28ACA808A
S31502001100C069008B888070BD2DE9F04381B004462A
S31502001110006900F12007B7F5001F02D30020A06185
S315020011200EE0A06960B13D46D4F800906FF35F25EA
S315020011305DB109EB050027613030E061002000E077
S315020011400420C0B201B0BDE8F0830E46616900F129
S315020011500100A06169B1B9F80A0000F6FF7010EA51
S31502001160572FE6D12046FFF71DFC022807D20220A0
S31502001170E7E7B9F80800B0EB571FCFD9D9E78046A1
S31502001180013033D0D9F8140080450FD2C4F8148048
S31502001190D9F81400811EA8F1020088421DD2B9F8BE
S315020011A00A10D9F8282000FB012017E0002EB5D03E
S315020011B061692046FFF74CFD8046013003280FD2B5
S315020011C04FF6F871C0F2FF0101EAC00040F2017168
S315020011D0C0F2020121FA00F0B3E70020A061A8E7FD
S315020011E04846414600F0A4F80028CFD00120A8E7DF
S315020011F02DE9F0412DED048B92B0119011A801A9B1
S315020012000222FEF7D9FF0646002869D1119906A8DF
S31502001210019C0694FFF720FA0646002808BF082616
S31502001220042E5DD102A8002102940026FFF710FDCC
S315020012300028054608BF0726012808BF02260130F6
S3150200124008BF0126002E46D12046294600F070F836
S3150200125008B101263FE032A0267821464FF02E083B
S3150200126090ED009F032E4FEA152784ED468F42F23A
S31502001270200001F8308FA4F839004FF02030C4F86E
S315020012803500C4F831004FF0100084F83B0084F8B2
S315020012904A5084F84B7005D1280C84F84400280E75
S315020012A084F8450004F1500020220AF03AFF032E8A
S315020012B0089884F85180A4F86A0005D1010C84F8D4
S315020012C06410000E84F865000120E07006A8FFF79E
S315020012D0C7FA064650B102A800222946FFF7FCFAD1
S315020012E0304612B0BDEC048BBDE8F0810D988576D0
S315020012F0C77680ED168F2178032903D1290C017553
S31502001300290E41751021C1720120E070204612B0EB
S31502001310BDEC048BBDE8F041FFF786BD00BF00BF00
S315020013200000000000000000F30000005C00000066
S31502001330F0B581B00D46044600F00BF908B1012064
S3150200134027E06069811EA81E884204D26789A16AC5
S3150200135000FB071601E06789002604F130054FF409
S3150200136000712846E6620AF0CEFE6FB1002700BF82
S315020013706078F2190123294601F0F1F8618928B94A
S3150200138001378F42F4D301E0002100278F425FEA42
S315020013900F9001B0F0BD70B504460020E0704FF02A
S315020013A0FF30E0622046FFF7E0FA08B1042070BD84
S315020013B094F83000B4F82E524AF65526E838032837
S315020013C03DD802283BD0B54209D14CF2B76104F1AF
S315020013D08200C0F2002108220AF098FF68B3B4F82E
S315020013E03B00B0F5007F2AD194F83D0000F1FF01E1
S315020013F00A0A24D0084022D194F83F0094F83E10FD
S3150200140008431CD094F840000138012817D894F8F4
S31502001410420094F84110084311D0B4F843007F28E3
S3150200142005D894F8530094F85210084307D094F85C
S31502001430470094F84610084301D0002070BDB5421B
S315020014404FF0020050EA009070BD2DE9F04381B0E2
S31502001450022917D3044640690E46814212D22078E9
S315020014601546032822D0022811D001280AD106EBFC
S315020014705607206A00EB57212046FFF776FAC8B3D3
S31502001480012700E00227384601B0BDE8F083206A52
S3150200149000EB16212046FFF768FA00284FF00107F5
S315020014A0F1D1F0B204EB4000058620E0206A00EBA1
S315020014B0D6112046FFF759FA00284FF00107E2D16C
S315020014C006F07F0005F0706204EB800090F833109E
S315020014D080F8305001F0F00142EA01612A0A80F8F0
S315020014E031202A0C80F83220090E80F83310E7707A
S315020014F00027C8E704F130085FEAC67907F101065A
S315020015006FF35F27284605D018F8070000F00F0092
S3150200151065F30B1008F80700206A00EB56212046F7
S315020015200127E770FFF721FA0028ACD1B9F1000FC5
S315020015306FF35F2607D118F80600C5F3032100F002
S31502001540F000084400E0280908F806000120E070CF
S31502001550CEE770B50546C078D0B1687805F130049B
S31502001560EA6A01232146012600F0F9FF88B9A96932
S31502001570286AEA6A0026101AEE70884209D2A8780A
S31502001580022806D168780A440123214600F0E7FFC3
S315020015900026304670BDD4D42DE9F04F8BB01D46DF
S315020015A016468846149818999FED1A0A4FF4D8726F
S315020015B00023DDE9169A4FF0000B00F05DF89FED6F
S315020015C0160A6C2200232846514600F055F89FED74
S315020015D0130A902200233046494600F04DF84CF695
S315020015E0D40007AAC0F20020114603AB90E8F0002F
S315020015F04CF6C400C0F20020F0C1194690E8F00093
S31502001600F0C140461599CDE900BB00F049F80BB090
S31502001610BDE8F08FCBF49B3C288F283E2D138B3DE3
S31502001620F0B581B0184616460C4608999FED0E0A8B
S315020016304FF4D8620023DDE9065700F01DF89FED4E
S315020016400B0A4FF4D87200233046394600F014F8DC
S315020016509FED070A4FF4107200232046294601B077
S31502001660BDE8F04000F008B8349FEA3C22EF153E90
S3150200167074F6C63DD4D4D4D480B542F00FC000BFB0
S3150200168010F9012BD21A01EE102AB8EEC11A20EE79
S31502001690011AA1EC011A0FF00DC880BDD4D4D4D41E
S315020016A02DE9F04F8DB01E680296012E089053DB8D
S315020016B09768D0680790784352680590504306971A
S315020016C00190D86804900C461799169E5D68D3F867
S315020016D008A00023DDF81880049F09920A9500BF2E
S315020016E0012D03932FDB0020009109992A463346E8
S315020016F00B90B34600F034F8BAF1010F1CDB059AE1
S31502001700089900FB02104FF000095546079E0C90FF
S31502001710179800904846414652465B4600F020F82C
S315020017200C9900FB061120463A460AF0FAFC013DE6
S315020017303C4409F10109EBD10B980A9D0130179936
S31502001740A8425E46D0D1039B02980133019A834296
S31502001750089810440890C3D10DB0BDE8F08FD4D4D8
S3150200176080B5DDF808C06BB1022A0BDBA1F1010ED0
S3150200177000EE10EA013A01EE102AB8EEC00AB8EEFF
S31502001780411A07E000EE101A01EE102AB8EEC00A5E
S31502001790B8EEC11ABCF1000F03EE100A80EE010A80
S315020017A09FED112AB6EE001AB8EEC33A02FE011AEE
S315020017B031EE031A21EE000A23B1B8FE400ABDEE4D
S315020017C0C00A05E0B7EEC00ABBFE400BBDEEC00B79
S315020017D010EE100A0139884250EAB180BCF1000FBE
S315020017E018BF20EAE07080BD0000000045F2C80084
S315020017F0C2F20020704740F2C800C2F202207047CF
S3150200180041F6C830C2F20220704742F28820C2F284
S315020018100220704742F68830C2F20220704743F235
S315020018204820C2F20220704743F2F830C2F2022088
S3150200183070472DE9F04F89B0044649F6A400C0F27C
S31502001840052049F6B402C0F205224DF2502901687C
S315020018504AF25020C2F20220C2F2082900EB010B22
S3150200186049F6A801C0F20521096846181168471809
S3150200187049F6B001C0F2052149F6AC02C0F20522D2
S3150200188009684518116800EB010A4AF2D0614AF26A
S31502001890CC62C0F20621C0F20622096812684944E7
S315020018A0089109EB020107914AF2C861C0F20621CA
S315020018B049F6A002C0F20522096812684944069157
S315020018C045F2C8011044C2F200214FF4D8320AF0A0
S315020018D028FC204600F054F843F2F83042F68831EC
S315020018E043F24822C2F20220029043F23860C2F268
S315020018F00221C2F2022243F24468C2F20220CDE978
S31502001900032131463A462B46C2F20228CDE900A807
S31502001910FFF742FE4AF2C4604FF45852C0F2062064
S315020019205946006848440AF0FCFB4AF2C0604FF48C
S31502001930D842C0F206204146006848440AF0F1FB4C
S31502001940204600F08DF842F2882040F2C80141F6A6
S31502001950C832C2F2022000904AF24420C2F20221A8
S31502001960C2F20222C2F20220CDE901210899DDE982
S315020019700632FFF755FE09B0BDE8F08FD4D4D4D4B1
S31502001980B0B59EB041F6E0210025C0F20121CDE9B5
S315020019900C1541F6D8214AF25024C0F20121C2F2B6
S315020019A002240028CDE90E45096803914FF4C621A9
S315020019B0CDE910454FF4D8300690CDE9041104F56F
S315020019C0D831CDE912150BD045F2901120460AF016
S315020019D09AFB45F640404FF4077120440AF093FB08
S315020019E045F640411AA02144CDE918154CF6E4010A
S315020019F090ED001FC0F2002145F6F050204404F598
S31502001A005852CDE916250A684CF6F0010CABCDE921
S31502001A101A0504F5A240C0F20021CDE91C0590206A
S31502001A200B9003A8009042F66840C2F20F208DED9B
S31502001A30071FCDE914450824CDE9014506F025FA2C
S31502001A4001305FEA1FA01EB0B0BD00BF00BF00BFDD
S31502001A5000360000001B0000B00100006C00000010
S31502001A60B0B59CB04AF298024DF25024C0F205225B
S31502001A704AF2A001C2F20824C0F205210C911168B3
S31502001A80049104F55841129123A100250D95119553
S31502001A90CDE90E4591ED001F1094139515951494FA
S31502001AA08DED051F50B14FF4107120460AF02BFB45
S31502001AB004F534504FF407610AF025FB04F534515E
S31502001AC0CDE916154FF4D861099149F6B80104F526
S31502001AD04F50C0F20521CDE918054FF4D8700A908F
S31502001AE04FF410700B900A6804A8009042F6684002
S31502001AF049F6C001C2F20F20C0F205210CABCDE9B6
S31502001B001A450824CDE9014506F0BFF901305FEA1E
S31502001B101FA01CB0B0BD00BF00440100004401007C
S31502001B20006C000000360000002840D0008841F218
S31502001B305063C2F20A23810701D50121197041F2CD
S31502001B40536C41F25462C107C2F20A2CC2F20A2253
S31502001B5019D080B50021197041F2516E41F25263DB
S31502001B60C2F20A2EC2F20A238EF80010197001215F
S31502001B708CF80010117041F25561C2F20A2102235B
S31502001B800B70BDE88040810604D500218CF8001058
S31502001B900121117040060AD541F2566042F2273100
S31502001BA0C2F20A20018001208CF8000010707047F2
S31502001BB02DE9F04FADF51D7D01208DF8040041F2AF
S31502001BC05260C2F20A20007838B141F25060C2F285
S31502001BD00A20007808B1012045E041F2586541F239
S31502001BE05568C2F20A2541F256694BF27406C2F2F0
S31502001BF00A282878C2F20A29C0F20626012802D14A
S31502001C003468B76816E0002088F8000040F2E93030
S31502001C10A9F8000000F0BDFEB768D6E900413A68AF
S31502001C202046904720B16FF39F2000F57A7014E0AA
S31502001C3001202870002088F8000040F2EA30A9F856
S31502001C40000000F0A6FE7A6A0DF1050120469047D3
S31502001C5068B16FF39F2000F5FA60A9F8000003202F
S31502001C6088F8000000200DF51D7DBDE8F08F42F6D4
S31502001C70B04001AAC2F20F2040F6075108F04FF811
S31502001C809DF804109DF80720C9B208435FEA1F9029
S31502001C9052B948B941F250610020C2F20A210870D5
S31502001CA0022188F80010DEE741F250600121C2F2FB
S31502001CB00A20017041F25160C2F20A20007838B35C
S31502001CC04CF253640020C0F20024002221464FF059
S31502001CD0000AFEF715FA41F270654FF40C71C2F272
S31502001CE00A2528460AF00FFA4FF47B7088F800A0FE
S31502001CF0A9F8000000F04DFE012228462146FEF713
S31502001D00FFF9B8B300F57A60A9F80000042059E09B
S31502001D104FF4FA704FF47A7109F0B7FF41F25C653D
S31502001D204FF0000BC2F20A254FF0000A00BF00BFB7
S31502001D300AF2074088F800B0A9F8000080B200F065
S31502001D4028FE7A6820462946904700283FD0064654
S31502001D50BAF1020F0AD04FF496704FF47A710AF173
S31502001D60010A09F092FFBAF1030FE1D1304600F001
S31502001D70FAF872E741F6A0044FF4F471C2F20A24AB
S31502001D8004F118000AF0BFF94AF2D460C0F2062044
S31502001D9090E8EE0040F2ED30EEC488F800A0A9F813
S31502001DA0000000F0F6FD4CF2FE5102A8C0F200213E
S31502001DB00A22FEF739FB88B141F2D4710844A9F828
S31502001DC00000052088F8000000F036F94AE741F2E3
S31502001DD051610120C2F20A21087071E740F2EE3029
S31502001DE0002488F80040A9F8000000F0D2FD41F670
S31502001DF0A00102A8C2F20A214FF4007200F011FCFF
S31502001E004FF0000598B140F2EF3088F80040A9F88B
S31502001E10000000F0BEFD02A8FEF7B2FF30B141F6A7
S31502001E20380100250844A9F8000000E001254FF416
S31502001E307C7088F80040A9F8000000F0AAFD02A80C
S31502001E40FFF746F818B1B9F8001000297CD0002D2A
S31502001E50B7D040F2F130002488F80040A9F800001B
S31502001E6000F097FD00F018F900283FF44FAF40F25A
S31502001E70F23088F80040A9F8000000F08AFD0DF55E
S31502001E800C7A40F200050AF1090B02AC92AEC2F2DC
S31502001E9000250027302120463A4600F0E1FB304675
S31502001EA02146FFF724F838B930465146FFF7A3F822
S31502001EB048B13046FFF794F8012045F8270001376C
S31502001EC0042FE7D143E000259DF8390250B39DF86F
S31502001ED03802C0061FD4002008215A4600BF00BFA0
S31502001EE012F8013BA3F13A0414F10A0F0FD300EBE7
S31502001EF08000013903EB4000A0F13000F0D19DF8DB
S31502001F0041122E294FF0000150EA018000E0002024
S31502001F10A84250EA858530465146FFF76CF808B963
S31502001F202FF02FC03046FFF75BF84EF2FF0002ACEF
S31502001F30C0F2F55085424FF0010050EA259040F27A
S31502001F400005C2F20025B8E741F69C0136E741F2E8
S31502001F5052610120C2F20A2108700021A9F800107C
S31502001F6088F800007FE640F26C0249F64141C2F26F
S31502001F700022884211680ADC14282AD049F6404217
S31502001F8090421AD101F03F0000F6485152E049F65C
S31502001F904242904221D049F6474290420DD142F642
S31502001FA0F47048F27F02C2F20F200068024019D094
S31502001FB0531E1A4218D0092034E081B241F27B4204
S31502001FC0890851436422490C01FB120000F63C7158
S31502001FD030E0322060F39F112CE001F03F0000F662
S31502001FE0E44127E000201DE0C20710D1820710D489
S31502001FF0420710D4020710D4C20610D4820610D4A7
S3150200200010F0400F4FF0070050EA10900AE001204E
S3150200201008E0022006E0032004E0042002E0052096
S3150200202000E0062001F03F0101EB810100EB4100D7
S3150200203000F6B83188B27047B0B54CF25361002051
S31502002040C0F2002100220024FEF75AF841F2586538
S31502002050C2F20A252878012807D14BF27400C0F291
S31502002060062081680068096B884741F2516041F297
S315020020705261C2F20A20C2F20A212C7004700C705C
S3150200208041F2546041F25361C2F20A20C2F20A21BD
S3150200209004700C70B0BDD4D470B58CB04CF21E6016
S315020020A0C0F20020FFF7A4F810F0F70F08D14CF2A7
S315020020B0C070C0F20020FFF79BF810F0F70F0AD0AD
S315020020C041F28831084441F25661C2F20A2108807F
S315020020D000200CB070BD00266C4600BF00BF00BFDA
S315020020E0F5B2302120462A4600F0BAFA2046FFF71A
S315020020F07FF810F0F70FE3D1032D06F10106EFD3B7
S315020021000120E6E7D4D4D4D42DE9F04F03AFADF2E3
S315020021109C4D6C466FF30404A5460C4641F256618B
S31502002120C2F20A21834600284FF00000088000F020
S31502002130BC80032C00F2B980FFF73AFD002800F0BC
S31502002140B38040F200000DF12808C2F200203821C7
S31502002150224650F82450404600F082FA404609F0E2
S31502002160F1FF411C0894372903D82F2208F80020D2
S3150200217008464FF0000C08F800C04FF0080E9DA963
S3150200218049F280644CF6CD4A01F10109C0F2980485
S31502002190CCF6CC4A00BF00BFB5FBF4F18DF875C290
S315020021A0A1FB0A23DA0802EB8202A1EB42014A46AC
S315020021B041F0300608EB0001431C372B07D801F823
S315020021C0016B12F8016B18460EB12FF00BC8A4FB77
S315020021D00A1208F800C0D4080FF023C007954FF082
S315020021E0040E4CF26D52C0F2002208EB00010132DD
S315020021F02E2300BF00BF00BF461C372E06D801F8AB
S31502002200013B12F8013B30460FF00BC0002408F8E0
S31502002210004018A84FF4007109F075FF41F25566A7
S3150200222041F25665C2F20A26C2F20A2544F6425025
S31502002230ADF860004FF4D970ADF8630002208DF856
S315020022406B0028208DF86E00C0208DF872008DF884
S31502002250760001208DF87A0018208DF87C004FF464
S31502002260D870ADF8830040F61330ADF88600ADF8AD
S315020022708A0040F24D403470288000F08AFB9DA807
S315020022800A224146FEF7D0F8A0B141F27071084425
S3150200229028802888052100284FF0000002D141F647
S315020022A03F722A80317000E00020A7F10C04A54697
S315020022B0BDE8F08F40F24E403470288000F069FB92
S315020022C09DA818A94FF4007200F0ABF9002800F09F
S315020022D083804FF000084AF6AB294FF0FC0A4FF014
S315020022E0C00C00BF00BF00BFACF101000990C0EBFB
S315020022F000114AF6AB200901CAF6AA20A1FB001278
S315020023001FFA88F1C90041F6A020D20911FA88F312
S31502002310C2F20A2002EB820100EB8312C02040F0D7
S3150200232001E089010232002303EB83040133A40195
S31502002330A4B204FB09F401EBD4540BEB44061BF8DC
S3150200234014407678C4F3820544EA062045EAC404BA
S31502002350C6F341050AEAD00002F8024C284402F804
S31502002360010C06F0F80040EA561002F8030B0FF0D3
S3150200237025C8BCF1010F08F1010805D01FFA88F043
S31502002380102801D001241FE041F255600025C2F257
S315020023900A2040F24F411FFA88F4057041F2566056
S315020023A0C2F20A20018040F24F4000F0F2FAE00049
S315020023B041F6A02110FA88F0C2F20A2182019DA8F4
S315020023C0A84600F02EF90446DDF824C0BCF1000F41
S315020023D018BF002C7FF488AF41F2556641F256656C
S315020023E0C2F20A26C2F20A25002030704FF48A6031
S315020023F0288000F0CEFA9DA8FEF76AFD30B1298842
S3150200240000297FF446AF41F6641140E7002C3FF401
S3150200241040AF4EF2FF00079AC0F2F550012140F29A
S315020024200003824251EA2290089AC2F2002343F83C
S3150200243022000022012034E741F25560C2F20A204E
S3150200244000787047032801D90020704740F2000146
S31502002450C2F2002151F82000013838BF002070472F
S3150200246041F25660C2F20A200088704708B1012084
S31502002470704741F25160C2F20A20007800285FEAF2
S315020024801F90704708B10120704741F25060C2F2B6
S315020024900A20007840B141F25160C2F20A20007867
S315020024A000285FEA1F9070470320704700284FF00C
S315020024B004002BD151B34BB341F25160C2F20A2050
S315020024C0007810B3B0B54BF2740041F2546CC0F20E
S315020024D0062041F25364C2F20A2CC2F20A2485682B
S315020024E04FF0000E8CF800E084F800E00068AD685A
S315020024F0A84760B141F6A47151FA80F041F25661E3
S31502002500C2F20A2108800120B0BD0420704700F003
S3150200251003F880F00100B0BDB0B541F2546540F257
S31502002520DC54C2F20A2500BF287878B901204FF49C
S315020025307A7109F0AAFB013CF6D141F2566042F2E9
S315020025402631C2F20A2001800020B0BD41F253605A
S31502002550C2F20A20007800285FEA1F90B0BD002868
S315020025604FF004002BD151B34BB341F25160C2F28A
S315020025700A20007810B3B0B54BF2740041F2546CE5
S31502002580C0F2062041F25364C2F20A2CC2F20A24B5
S3150200259085684FF0000E8CF800E084F800E00068D1
S315020025A0ED68A84760B142F2080151FA80F041F2A3
S315020025B05661C2F20A2108800120B0BD042070478C
S315020025C0FFF7AAFF80F00100B0BDD4D408B1032002
S315020025D07047084641F25161C2F20A210978002980
S315020025E0F5D003281BD8DFE800F01B02090EB2B1B2
S315020025F041F25C60C2F20A2080680DE07AB14FF4C3
S315020026000070108009E052B141F25C60C2F20A2009
S315020026100069012898BF012010600020704704203D
S31502002620704710B582B014460022019201AB2246D1
S31502002630FEF736FA18B141F65831084406E0019819
S31502002640A04201D1012007E041F63F7041F25661F6
S31502002650C2F20A210880002002B010BDD4D4D4D41C
S3150200266010B5002303704FF00B0E4CF23B63C0F221
S31502002670002301334FF0300C044600BF00BF00BFF9
S3150200268004F801CB13F801CB0FF007C00346002470
S315020026904FF0060E4FF0490C03F80B4F4CF2D5647F
S315020026A0C0F20024013400BF03F801CB14F801CBB9
S315020026B00FF007C02F23A0F811304AF2F063C0F2E0
S315020026C0062353F8224094F800E0BEF1000F12D020
S315020026D0A1F1010CA1F1130300F11202013412213E
S315020026E05BB102F801EB013114F801EB013BBEF1DB
S315020026F0000FF5D102E0122100E0614600224254A9
S3150200270010BD70B1007940F21002C2F20022411EE1
S315020027100229107005D845F2A0600121C2F20A20F2
S31502002720017070472DE9F04F81B045F2A36A40F27D
S315020027301109C2F20A2A45F2A16145F2A266C2F263
S3150200274000299AF80000C2F20A21C2F20A264AF6C3
S31502002750C47700244FF0020B0128C0F206278DF839
S31502002760034089F800B00C70347005D1B968386836
S31502002770C96988478AF8004042F6B04540F2051119
S31502002780C2F20F2500222846002407F0D9FA1420A7
S315020027904FF47A7109F079FA40F2051101222846BE
S315020027A04FF0010807F0CCFA4FF496704FF47A71A5
S315020027B009F06BFAA420C4F2400001880088C1F334
S315020027C0C0210BEAD02008443070032824D197E8B0
S315020027D007001268904708B100241FE001208AF81A
S315020027E000000DF10301A320012200F01DF880B1C3
S315020027F09DF803004FF00308411EFE2945F2A16130
S315020028005FEA2F94C2F20A21087038BF4FF000081F
S3150200281002E000244FF0020889F80080204601B049
S31502002820BDE8F08FD4D4D4D42DE9F04F81B045F26F
S31502002830A3630027C2F20A238DF803001B78012B3B
S3150200284053D14AF6C47045F2A064C0F2062040F2A3
S31502002850100AC2F20A24C2F2002AD0F808800E46F2
S31502002860277001218AF80010D0F800909346D8F814
S3150200287008500DF10301012201234846A847A0BBD7
S315020028804FF2FF65CFF6C275284600BF00BF00BFF4
S315020028902178013011B908B12FF007C000B39AF8B8
S315020028A0000003281CD10027277001208AF80000A7
S315020028B0D8F804C00023484631465A46E04720B1BC
S315020028C013E000BF00BF00BF1DB12078013500280C
S315020028D0FAD02DB19AF80000022801D1012704E0AE
S315020028E0D8F80C10484688470027384601B0BDE89C
S315020028F0F08F40F21100C2F200200078704745F2D4
S31502002900A260C2F20A2000787047B0B582B04FF0DA
S315020029100005B8B1044605710DF103010220052236
S31502002920FFF782FF70B19DF8030000F00F00C11E91
S3150200293011F1020F05D39DF8041001F0C002402ADE
S3150200294003D10025284602B0B0BD01F00F019DF863
S3150200295005209DF806309DF8075042EA012103F052
S315020029600F028B09042B45EA022298BFB2F5F07FCB
S3150200297008D34B0900250E2BE4D89309042B1346E2
S31502002980E0D801E00B4611460125238061802071C3
S31502002990D8E7B0B598B003AC0546201D502109F022
S315020029A0B2FB684604F020F89DF800009DF803107B
S315020029B08DF80D00BDF801008DF80C10BDF8081059
S315020029C0ADF80E000120ADF838008DF83C00204627
S315020029D0ADF81010ADF83E5001F0E2FC18B0B0BDF3
S315020029E045F2A4610068C2F20A21C3070A6840EAF6
S315020029F00200086008BF704745F2A8600121C2F2D2
S31502002A000A2001707047D4D4BCB000F0B1FB03F0C9
S31502002A1097FF39A803F0E8FF9DF8E7500220294600
S31502002A2002F012FE03F0C4FD98B1C11C4FF620510C
S31502002A30CFF6FF7108BF6FF4FC6110F1030F84BF7C
S31502002A404FF60001CFF6FF7188B201F059FA00BFC6
S31502002A50FEE742F65C504BF23001C2F20F20C0F2A2
S31502002A60062108F06DFC20B14FF61F0001F048FA6E
S31502002A70FEE704F082F820B11F2001F041FA00BF00
S31502002A80FEE703F0FEF920B14FF6205001F038FAC6
S31502002A90FEE7022003F088FA45F2A46645F2A8642E
S31502002AA0C2F20A26C2F20A24002745F2C06B376038
S31502002AB02770BFF35F8F42F65C50C2F20A2BC2F256
S31502002AC00F20594608F081FD38B140F2FF7001F03F
S31502002AD017FA00BF00BF00BFFEE725A84DF2C048A7
S31502002AE00C30039010A849F69A190F95C0F2010806
S31502002AF000F1340102910830019002200D9001216B
S31502002B00B6EE009A9FEDD38A9FEDD3AA9FEDD3BA74
S31502002B109FEDD3CAC1F699190020CDE90500CDE98A
S31502002B200900CDE90B0000BF07914FF0000A00BF74
S31502002B3041F20120C0F27A00217829B90138FBD18D
S31502002B402AE100BF00BF00BFBFF35F8F306810F4F9
S31502002B50010F40F0218145F2C0614AF6C060C2F21F
S31502002B600A21C2F20C208B4550EA01800E9003F036
S31502002B7002FF36A803F038FF0F9D9DF8DB70E8B21E
S31502002B80874211D00D98C0B2032807D105980A9939
S31502002B90C0B23A46C9B202F0A3FE02E0394602F0DA
S31502002BA053FD3D460120079033A803F00BFF9DF825
S31502002BB0D400BDF9CC1000285FEA0F9003F033FA77
S31502002BC028060F954FD00C980E9D10F0010047D1A4
S31502002BD010A803F0E2FE07460B98874210D040F297
S31502002BE0FF76002F08BF4FF4FC6608200821172243
S31502002BF01723009645F2A466C2F20A2601F06CFB80
S31502002C0042F65C50002FC2F20F2000F088800B992A
S31502002C10002940F08480BDF84210BDF84000CA0881
S31502002C202E2A04D8672976D840F23F11081A81B2B3
S31502002C308A09042A6FD84CF6CD424A430D99C9B285
S31502002C4003294FEA925214D1022A42D0012A3ED0D7
S31502002C50002A51D10598013000F0030005903EE0AC
S31502002C6042F65C5002E042F65C500E9DC2F20F2024
S31502002C7056E0F03880B250281CD2022003F094F9B4
S31502002C8005980021C3B20F98C2B200200A901846D6
S31502002C900D930B9202F024FE002200230B980D994D
S31502002CA000F006FA03200D90012007900C9806907A
S31502002CB000202FE08A422ED0D0B20B900D9203F064
S31502002CC073F90F98C1B20B9802F0BEFC11E009929B
S31502002CD005E00A9880F001000A900C980690059883
S31502002CE00A990F9AC0B2C9B2D2B202F0F9FD032014
S31502002CF00D90012007900EE0022002210D9103F0B3
S31502002D0053F90F98C1B2022002F09EFC01200790EF
S31502002D1000200A90099042F65C50C2F20F200B97EF
S31502002D200D990027C9B2089103292AD10A98069A51
S31502002D3010F0FF0F5FEA0F900C9991425FEA008054
S31502002D40099919B910B90020099016E005990F984A
S31502002D503D46CFB20A99C0B2CAB2012301210791F8
S31502002D60394600F0A5F9584639462F460E9DFFF71B
S31502002D70CBF9002009900C98069042F65C50C2F2FC
S31502002D800F2037602770BFF35F8F294608F01DFCBE
S31502002D90002851D0AB4600BF37602770BFF35F8F64
S31502002DA042F65C505946C2F20F200AF1010A08F0B7
S31502002DB00CFC18B9BAF1080FFFF4BAAE42F65C552C
S31502002DC0C2F20F25284608F0C0FB4BF23001284616
S31502002DD0C0F2062108F0B4FA50B1109700BF00BF46
S31502002DE010984045BFF4A4AE109801301090F7E752
S31502002DF04FF0000AC6F800A084F800A045F2C06BA6
S31502002E00BFF35F8FC2F20A2B2846594608F0DDFB54
S31502002E1008B92FF073C910971098404503D210983D
S31502002E2001301090F8E745F2C06B4FF0000AC2F28B
S31502002E300A2B7DE600BF00BF0D98000614D00020C5
S31502002E40002100220023B0EE480A0027049703F06F
S31502002E50F1F856E00000000000809F4300006F4337
S31502002E600000C84200BF00BF584603F091FE2DA8DD
S31502002E7004F04EFC049090B39DED2F0A9DED311A9D
S31502002E8030EE010A9DED301A9DED322A20EE090A36
S31502002E9031EE021AB5EE400AF1EE10FA48BFB0EE74
S31502002EA0480AB4EE4A0A21EE091AF1EE10FAB5EE14
S31502002EB0401A3AFE000AF1EE10FA48BFB0EE481A7E
S31502002EC0B4EE4B1AF1EE10FABCEEC00A3BFE011A42
S31502002ED0BCEEC11A10EE102A11EE103A01E00022E1
S31502002EE000239DF8B4100498002851EA10819DED44
S31502002EF02E0A08FE000AC9B203F09CF8584604F0EE
S31502002F008BFA25A803F024FB49F20100A021C0F2A6
S31502002F1001004FF4A07C58444FF6E07500BF00BF95
S31502002F204CF001E000220346A2FB09760132F707C4
S31502002F3008BF23F8015C02330FF00BC0013100F524
S31502002F402070A229ECD1584601F05EF90C98800750
S31502002F5003D00798002800F09A804C21019809F0C6
S31502002F60D2F89DF8D8000F998DF84100BDF8D90026
S31502002F70ADF842009DF894008DF84010BDF8E010BF
S31502002F808DF84600BDF89500ADF844109DF89710EF
S31502002F90ADF8470027981490DDF810B0BDF8B000E0
S31502002FA00027DDE902568DF849B08DF84C10ADF8D0
S31502002FB0580000BF00BF00BF56F8040B45F8180CB6
S31502002FC03846FFF73FFA013745F8040B042FF3D1D1
S31502002FD0089803285FEA1F908DF86C00FFF72CFA19
S31502002FE08DF86D0005988DF86E000A988DF86F00C1
S31502002FF000208DF87000FFF733FABBF1000FADF831
S31502003000720041D09DED2E0AB0EE491AA0EE0C1ABE
S315020030109DED2F0A9DED312A9DED323A30EE020AE0
S315020030209DED302A32EE032A40F23F13B0EE493AC2
S31502003030A0EE093AB0EE490AA2EE090ABDEEC11A9D
S31502003040BDEEC32A11EE100ABDEEC00A12EE101A28
S3150200305010EE102A20EAE070632821EAE17122EAE2
S31502003060E272A8BF6320B1F59F7F51EAD381EF2AAE
S31502003070A8BFEF229DF8B4308DF84B008DF84A3088
S31502003080ADF85410ADF8562010A801F089F90C9D40
S315020030905146284603F0B3FC45F2A4660021C2F26B
S315020030A00A260027DDF838B001350C953CE5D4D464
S315020030B02DE9F04198B00DF10C080E46074608F1CD
S315020030C0040050211C46154609F01DF8684603F017
S315020030D08BFC9DF80000BDF808108DF80D00BDF8B8
S315020030E001008DF80C70ADF80E00ADF8101001203D
S315020030F08DF83800FFF7A0F98DF839008DF83A609F
S315020031008DF83B508DF83C40FFF7AAF908F13405DB
S315020031100024ADF83E0000BF2046FFF793F90134C4
S3150200312045F8040B042CF7D103A801F039F918B0BD
S31502003130BDE8F081022818BF704742F6B0404BF254
S31502003140F011C2F20F20C0F2062106F0DDBD58B121
S3150200315040F212010079C2F20021087040F2C0600A
S31502003160C2F20F20012101707047D4D4D4D4D4D432
S315020031702DE9F04F81B040F610108224C4F24000CF
S31502003180C4F240040025402180F8FC5380F8FC1369
S315020031900422026080F8FC53802380F8FC3342F656
S315020031A081062788C2F20F2627F01007278080F8AB
S315020031B0FC5380F8FC13826180F8FC5380F8FC33E0
S315020031C0278827F48067278080F8FC5380F8FC1351
S315020031D0426180F8FC5380F8FC33278827F4007795
S315020031E0278080F8FC5380F8FC13C26280F8FC53F7
S315020031F080F8FC3320886FF3DF302080208840F08F
S3150200320010002080208820F480602080208840F4EE
S3150200321000402080307848B94BF20401C0F2062102
S3150200322007C91268904708B901203070208840F417
S31502003230007020804DF2C0400095C0F2010000BF30
S315020032400099814203D2009901310091F8E7208862
S315020032504AF68011C0F2030120F40070208000209B
S31502003260009000BF00BF00BF009A8A4203D2009AB4
S3150200327001320092F8E721884FF60015C0F21505D3
S3150200328041F40071218000900098A84203D2009870
S3150200329001300090F8E7F7208DF800002088012120
S315020032A020F010002080208820F48060208068466C
S315020032B000F056FF2088012140F010002080A9204E
S315020032C08DF80000208820F010002080208840F42D
S315020032D080602080684600F043FF2088012140F08C
S315020032E01000208051208DF80000208820F0100068
S315020032F02080208840F480602080684600F030FFFD
S315020033002088012140F0100020802C208DF800003A
S31502003310208820F010002080208840F480602080E1
S31502003320684600F01DFF2088012140F01000208031
S3150200333082208DF80000208820F01000208020884E
S3150200334040F480602080684600F00AFF2088012150
S3150200335040F010002080EC208DF80000208820F03C
S3150200336010002080208820F480602080684600F0CB
S31502003370F7FE20880026012140F0100020808DF8FB
S315020033800060208820F010002080208840F48060B1
S315020033902080684600F0E4FE20884FF0020A0121F0
S315020033A040F0100020808DF800A0208820F0100048
S315020033B02080208840F480602080684600F0D0FE9D
S315020033C02088012140F01000208003208DF80000A3
S315020033D0208820F010002080208840F48060208021
S315020033E0684600F0BDFE2088012140F010002080D2
S315020033F07A208DF80000208820F010002080208896
S3150200340040F480602080684600F0AAFE20880121F0
S3150200341040F010002080C0208DF80000208820F0A7
S3150200342010002080208820F480602080684600F00A
S3150200343097FE20881327012140F0100020808DF886
S315020034400070208820F010002080208840F48060E0
S315020034502080684600F084FE2088012140F010009A
S3150200346020808DF80070208820F0100020802088AF
S3150200347040F480602080684600F072FE20880121B8
S3150200348040F010002080C1208DF80000208820F036
S3150200349010002080208820F480602080684600F09A
S315020034A05FFE2088012140F01000208041208DF827
S315020034B00000208820F010002080208840F48060E0
S315020034C02080684600F04CFE2088012140F0100062
S315020034D02080C5208DF80000208820F01000208072
S315020034E0208820F480602080684600F039FE20881B
S315020034F0012140F0100020808DF80060208820F025
S3150200350010002080208840F480602080684600F009
S3150200351027FE2088012140F01000208028208DF807
S315020035200000208820F010002080208840F480606F
S315020035302080684600F014FE2088012140F0100029
S31502003540208080208DF80000208820F01000208046
S31502003550208840F480602080684600F001FE2088C2
S31502003560B027012140F0100020808DF800702088DD
S3150200357020F010002080208820F480602080684699
S3150200358000F0EEFD2088012140F0100020808DF829
S315020035900060208820F010002080208840F480609F
S315020035A02080684600F0DCFD2088012140F01000F2
S315020035B02080B1208DF80000208820F010002080A5
S315020035C0208820F480602080684600F0C9FD2088AB
S315020035D0012140F0100020808DF80070208820F034
S315020035E010002080208840F480602080684600F029
S315020035F0B7FD2088012140F01000208011208DF8AF
S315020036000000208820F010002080208840F480608E
S315020036102080684600F0A4FD2088012140F01000B9
S315020036202080B4208DF80000208820F01000208031
S31502003630208820F480602080684600F091FD208872
S31502003640012140F0100020808DF800A0208820F093
S3150200365010002080208840F480602080684600F0B8
S315020036607FFD2088012140F010002080B6208DF8D1
S315020036700000208820F010002080208820F480603E
S315020036802080684600F06CFD2088012140F0100081
S3150200369020808DF800A0208820F01000208020884D
S315020036A040F480602080684600F05AFD208801219F
S315020036B040F01000208022208DF80000208820F0A3
S315020036C010002080208840F480602080684600F048
S315020036D047FD2088012140F010002080B7208DF898
S315020036E00000208820F010002080208820F48060CE
S315020036F02080684600F034FD2088012140F0100049
S315020037002080C6208DF80000208820F0100020803E
S31502003710208840F480602080684600F021FD2088E1
S31502003720012140F010002080BE208DF80000208884
S3150200373020F010002080208820F4806020806846D7
S3150200374000F00EFD2088012140F0100020808DF847
S315020037500060208820F010002080208840F48060DD
S315020037602080684600F0FCFC20880427012140F0F6
S31502003770100020808DF80070208820F01000208034
S31502003780208840F480602080684600F0E9FC2088AA
S31502003790012140F010002080E9208DF800002088E9
S315020037A020F010002080208820F480602080684667
S315020037B000F0D6FC2088012140F0100020808DF810
S315020037C00060208820F010002080208840F480606D
S315020037D02080684600F0C4FC2088012140F01000D9
S315020037E02080F4208DF80000208820F01000208030
S315020037F0208820F480602080684600F0B1FC208892
S31502003800012140F0100020808DF80060208820F011
S3150200381010002080208840F480602080684600F0F6
S315020038209FFC2088012140F0100020808DF8006066
S31502003830208820F010002080208840F480602080BC
S31502003840684600F08DFC20884FF00F09012140F0F8
S31502003850100020808DF80090208820F01000208033
S31502003860208840F480602080684600F079FC208839
S31502003870012140F010002080E0208DF80000208811
S3150200388020F010002080208820F480602080684686
S3150200389000F066FC2088012140F0100020808DF89F
S315020038A00060208820F010002080208840F480608C
S315020038B02080684600F054FC2088012140F0100068
S315020038C020808DF80070208820F01000208020884B
S315020038D040F480602080684600F042FC20880E2773
S315020038E0012140F0100020808DF80070208820F021
S315020038F010002080208840F480602080684600F016
S315020039002FFC20884FF0080B012140F01000208088
S315020039108DF800B0208820F010002080208840F426
S3150200392080602080684600F01BFC2088012140F060
S315020039301000208017208DF80000208820F010004B
S315020039402080208840F480602080684600F008FCD1
S3150200395020884FF00A08012140F0100020808DF8DF
S315020039600080208820F010002080208840F48060AB
S315020039702080684600F0F4FB2088012140F0100008
S31502003980208040208DF80000208820F01000208042
S31502003990208840F480602080684600F0E1FB2088A1
S315020039A0012140F01000208079208DF80000208847
S315020039B020F010002080208840F480602080684635
S315020039C000F0CEFB2088012140F0100020804D201F
S315020039D08DF80000208820F010002080208840F416
S315020039E080602080684600F0BBFB2088012140F001
S315020039F01000208007208DF80000208820F010009B
S31502003A002080208840F480602080684600F0A8FB71
S31502003A102088012140F0100020808DF80070208857
S31502003A2020F010002080208840F4806020806846C4
S31502003A3000F096FB2088012140F0100020808DF8CE
S31502003A400080208820F010002080208840F48060CA
S31502003A502080684600F084FB2088012140F0100097
S31502003A6020801A208DF80000208820F01000208087
S31502003A70208840F480602080684600F071FB208830
S31502003A80012140F0100020801D208DF800002088C2
S31502003A9020F010002080208840F480602080684654
S31502003AA000F05EFB2088012140F0100020808DF896
S31502003AB00090208820F010002080208840F480604A
S31502003AC02080684600F04CFB2088012140F010005F
S31502003AD02080E1208DF80000208820F01000208050
S31502003AE0208820F480602080684600F039FB208818
S31502003AF0012140F0100020808DF80060208820F01F
S31502003B0010002080208840F480602080684600F003
S31502003B1027FB2088012140F0100020801B208DF811
S31502003B200000208820F010002080208840F4806069
S31502003B302080684600F014FB2088012140F0100026
S31502003B4020801F208DF80000208820F010002080A1
S31502003B50208840F480602080684600F001FB2088BF
S31502003B60012140F0100020808DF800A0208820F06E
S31502003B7010002080208840F480602080684600F093
S31502003B80EFFA2088012140F01000208010208DF8E5
S31502003B900000208820F010002080208840F48060F9
S31502003BA02080684600F0DCFA2088012140F01000EF
S31502003BB0208005208DF80000208820F0100020804B
S31502003BC0208840F480602080684600F0C9FA208888
S31502003BD0012140F01000208032208DF8000020885C
S31502003BE020F010002080208840F480602080684603
S31502003BF000F0B6FA2088012140F01000208034201F
S31502003C008DF80000208820F010002080208840F4E3
S31502003C1080602080684600F0A3FA2088012140F0E7
S31502003C201000208043208DF80000208820F010002C
S31502003C302080208840F480602080684600F090FA58
S31502003C402088012140F0100020808DF800A02088F5
S31502003C5020F010002080208840F480602080684692
S31502003C6000F07EFA2088012140F0100020808DF8B5
S31502003C700080208820F010002080208840F4806098
S31502003C802080684600F06CFA2088012140F010007E
S31502003C90208009208DF80000208820F01000208066
S31502003CA0208840F480602080684600F059FA208817
S31502003CB0012140F01000208033208DF8000020887A
S31502003CC020F010002080208840F480602080684622
S31502003CD000F046FA2088012140F0100020803720AB
S31502003CE08DF80000208820F010002080208840F403
S31502003CF080602080684600F033FA2088012140F077
S31502003D00100020808DF80090208820F0100020807E
S31502003D10208840F480602080684600F021FA2088DE
S31502003D20012140F010002080F4208DF80000208848
S31502003D3020F010002080208820F4806020806846D1
S31502003D4000F00EFA2088012140F0100020808DF844
S31502003D500060208820F010002080208840F48060D7
S31502003D602080684600F0FCF92088012140F010000E
S31502003D7020808DF80060208820F0100020802088A6
S31502003D8040F480602080684600F0EAF9208801212C
S31502003D9040F0100020808DF80090208820F010005E
S31502003DA02080208840F480602080684600F0D8F9A0
S31502003DB02088012140F01000208036208DF8000076
S31502003DC0208820F010002080208820F48060208047
S31502003DD0684600F0C5F92088012140F010002080D5
S31502003DE08DF800B0208820F010002080208840F452
S31502003DF080602080684600F0B3F92088012140F0F7
S31502003E00100020803A208DF80000208820F0100053
S31502003E102080208820F480602080684600F0A0F987
S31502003E202088012140F01000208066208DF80000D5
S31502003E30208820F010002080208840F480602080B6
S31502003E40684600F08DF92088012140F0100020809C
S31502003E5021208DF80000208820F010002080208884
S31502003E6020F480602080684600F07AF920880121DB
S31502003E7040F01000208011208DF80000208820F0EC
S31502003E8010002080208820F480602080684600F0A0
S31502003E9067F9208840F010002080009600BF00BF1E
S31502003EA00098A84203D2009801300090F8E7292032
S31502003EB08DF80000208842F2C0750121C0F2090582
S31502003EC020F010002080208820F480602080684640
S31502003ED000F046F9208840F010002080009600BFCE
S31502003EE00098A84203D2009801300090F8E700201B
S31502003EF000F006F801B0BDE8F08FD4D4D4D4D4D4FF
S31502003F0070B5F821FC2301EA102100F01F0600F02B
S31502003F101C0241EA503103EAD000F3004FF4A07EBE
S31502003F2040F2C166C2F20F2643EA9202B31C00BFF8
S31502003F3003F8021C03F8010C03F8032B0FF009C067
S31502003F4082250020002140F23F1240F2DF13C4F224
S31502003F50400540F2DF1600F01EF8288840F2C164E0
S31502003F60C2F20F2420F010002880288840F48060D6
S31502003F70288000BF00BF00BF4FF47071204600F0DA
S31502003F80EFF818B9002EA6F10106F5D1288840F0FF
S31502003F901000288070BD2DE9F04383B082242A27C1
S31502003FA0C4F240048DF8017089460121278898469B
S31502003FB0164627F0100727802588074625F48060D5
S31502003FC020800DF1010000F0CBF82088012140F09D
S31502003FD010002080380A8DF80200208820F0100098
S31502003FE02080208840F4806020800DF1020000F0DD
S31502003FF0B7F82088012140F0100020808DF8037068
S31502004000208820F010002080208840F480602080E4
S315020040100DF1030000F0A4F82088012140F0100001
S315020040202080300A8DF80400208820F010002080BD
S31502004030208840F48060208001A800F091F8208852
S31502004040012140F0100020808DF80560208820F0C4
S3150200405010002080208840F4806020800DF1050049
S3150200406000F07EF82088012140F0100020802B20ED
S315020040708DF80600208820F010002080208820F489
S31502004080806020800DF1060000F06AF82088012188
S3150200409040F0100020804FEA19208DF80700208892
S315020040A020F010002080208840F4806020800DF1EE
S315020040B0070000F055F82088012140F0100020800A
S315020040C08DF80890208820F010002080208840F487
S315020040D08060208002A800F043F82088012140F089
S315020040E0100020804FEA18208DF80900208820F061
S315020040F010002080208840F4806020800DF10900A5
S3150200410000F02EF82088012140F0100020808DF862
S315020041100A80208820F010002080208840F48060E9
S3150200412020800DF10A0000F01BF82088012140F0E2
S31502004130100020802C208DF80B00208820F0100023
S315020041402080208820F4806020800DF10B0000F092
S3150200415007F8208840F01000208003B0BDE8F08305
S315020041602DE9F04700284FF000064AD00D460029F7
S3150200417047D042F681070446C2F20F274BF20400EB
S31502004180C0F206203978D0F80090D0F808A039B9E4
S31502004190DAF80020416848469047B0B901203870E5
S315020041A040F2C06740F21208C2F20F27C2F200289C
S315020041B0002007233870022088F800004846DAF803
S315020041C0086021462A46B04708B1064619E04BF276
S315020041D0C040CFF6B37000BF397819B9002800F194
S315020041E00100F9D13878012805D198F80000012894
S315020041F003D1002605E0142601E04FF4967601F07D
S315020042002FFD3046BDE8F0872DE9F04F81B0054617
S3150200421082240020782140F23F1240F26713C4F252
S3150200422040044FF0000BFFF7B6FE208805F10108A7
S315020042304FF4A0791C2620F010002080208840F43C
S315020042408060208040F68120C2F20F20023000906A
S315020042504FF0000C4146009F49F001E00B463A46FA
S3150200426013F8015C13F8024B04F0F80006EAD50ACB
S3150200427040EA541002F8020C4AEA441002F8010C11
S31502004280C5F3820040EAC50002F8030B0FF019C01D
S315020042900CF1010C07F57077BCF1080F01F52071DE
S315020042A0DAD140F681204FF4F051C2F20F20FFF727
S315020042B057FF30B9BBF1E80F0BF1080B08F5A05810
S315020042C0C6D38221C4F24001088840F0100008805B
S315020042D001B0BDE8F08FD4D4904288BF70472DE973
S315020042E0F04381B00D4659091C460E2953D891094F
S315020042F0042998BFA5424ED8111A11F101091FD2FD
S31502004300089BF82103F01C0C03F01F0640F2C1685B
S3150200431001EA1321FC27F600C2F20F2849F001E058
S3150200432041EA533107EAD30346EA9C0708F102063B
S3150200433006F8021C06F8013C06F8037B0FF009C0DA
S3150200434040F2820829462346C4F24008FFF723FEBC
S31502004350B8F8000040F2C16709EB4906C2F20F271E
S3150200436020F01000A8F80000B8F8000040F48060C1
S31502004370A8F8000000BF00BF38463146FFF7F0FE3E
S3150200438018B90135A8B2A042F6D9B8F8000040F033
S315020043901000A8F8000001B0BDE8F0437047D4D47D
S315020043A0002800F0D6822DE9F04FA9B0814609A86F
S315020043B070214FF6E07B07F0A6FE99F84400CDF88F
S315020043C0049000283FD04CF2E2504FF00B0EC0F2A0
S315020043D00020013057230021002700BF00BF00BF85
S315020043E07A1C1B2A03D809AEF3551746B15410F8A6
S315020043F0013B0FF00BC840F2FF70ADF81C004CF603
S3150200440032014FF0060E09A8C0F200211C304A1CE8
S315020044104726002300250024671C1B2F03D80655B8
S315020044203D463C46C35512F8016B0FF00BC899F88E
S315020044300C10259509B3B9F9182025A901F02DFC10
S315020044404FF4FC6030E099F82C004FF6000C4CF269
S315020044500978CFF6FF7C0028C0F2002800F07A82A5
S3150200446099F82DA0BAF1050F00F280824AF248703F
S31502004470C0F2062050F82A207CE24CF2A4714FF0DA
S31502004480020EC0F200214A1C2D27002300BF00BFE6
S31502004490611C1B2902D807550C46435412F8017BAE
S315020044A00FF00BC048F21040ADF81E0009A800F14B
S315020044B038084CF272504FF0040EC0F20020013060
S315020044C05227002100250022531C1B2B05D808F871
S315020044D002701D461A4608F8031010F8017B0FF009
S315020044E00DC8B9F9502025A94046259501F0D5FBFE
S315020044F04CF28B704FF0040E259EC0F20020013064
S315020045002023002100BF00BF721C1B2A04D808F812
S315020045100630164608F8021010F8013B0FF00DC0DF
S3150200452048F29F61D9F84C00C0F201010DF19A02DE
S315020045304CF6CD4C0027884250EA3184501ECCF608
S31502004540CC4C034600BF00BFA4FB0C120A2C07F199
S31502004550010E4FEAD20505EB8501A4EB410141F0BC
S31502004560300103F8011F03D3092F2C467746EBD3FC
S31502004570002700BF00BF00BF711C1B2905D81A788F
S3150200458008F8017008F806200E46013B0FF00DC030
S315020045900BF11F01ADF8201009A94FF0030E01F12E
S315020045A054084CF20C61C0F200214F1C5225002621
S315020045B0002100BF00BF00BF4B1C1B2B04D808F80C
S315020045C00150194608F8036017F8015B0FF00DC099
S315020045D044F23F22D9F84870C0F20F0200269742F1
S315020045E057EA328400BF00BFA4FB0C230A2C06F153
S315020045F0010E4FEAD30505EB8502A4EB420242F017
S31502004600300200F8012F03D3092E2C467646EBD34F
S31502004610002600BF00BF00BF4B1C1B2B05D802782B
S3150200462008F8036008F80120194601380FF00DC09A
S315020046304CF2A7704FF0060EC0F200200130202681
S31502004640002300BF00BF00BF4A1C1B2A04D808F87B
S315020046500160114608F8023010F8016B0FF00DC028
S31502004660002F04BF4FF6000BCFF6FF7BD8468224FD
S315020046700020002140F23F126F23C4F24004ADF83D
S315020046802280FFF788FC208840F2C166C2F20F261C
S315020046904FF0000820F010002080208840F480604F
S315020046A02080B01C009000BF1FFA88F943F28610E2
S315020046B0B9F11B0F06D0B9F1360F18BFB9F1510F78
S315020046C040F0E380CDF8088000F00402302100F0CB
S315020046D006034FF4A07701EA1021DB0047F001E060
S315020046E041EA5031C00843EA9202009B00BF00BF74
S315020046F003F8021C03F8010C03F8032B0FF009C0A0
S315020047000021CDF80C9000BF4AF240700491C0F22D
S31502004710062030F811008145C0F09B8000F10E01A1
S31502004720039A89B28A4280F09480049909AAC1EB5D
S31502004730C10102EB810106910F78002F00F08980FA
S31502004740049C07A9F822FC23002C4FF0000A31F83A
S31502004750141002EA112201F01C0C01F01F0542EAB4
S31502004760513203EAD1034FEAC501029DA5EB0000CF
S3150200477041EA9C054FF0080180B208BF202140089B
S315020047800591012101FA00F0A7F13004092C0BD89A
S315020047904AF2AF7107EB8707C0F206210F44A7F171
S315020047A0F00B23E000BF00BFA7F14104192C0BD880
S315020047B04AF2E17107EB8707C0F206210F44A7F21E
S315020047C0451B13E000BF00BF4AF2AA714AF2A07469
S315020047D0252FC0F20621C0F2062451EA04844AF2C9
S315020047E0A5712D2FC0F2062151EA048B0AEB4A0766
S315020047F005994FF0000901EB870700BF00BF00BF14
S315020048001BF80940204217D0022107EB490C41F060
S3150200481001E04FF0000800BF4FEA9C14042C07D8B1
S3150200482048EA0C0404EB4404311932554B708D707E
S315020048304FF001080FF011C009F10109B9F1050F96
S31502004840DED10AF1010A069911F80A700FB12FF0AA
S3150200485065C80499DDF80C90013104297FF454AF40
S31502004860DDF80880019FA8F107000DF19A0580B2D4
S3150200487025AC102857D2B87870B1F87800284FF6D0
S31502004880E07018BF4FF4FC6008E00020B9F16C0F2D
S3150200489008BF43F2861015E74FF478403A78F823BA
S315020048A003EA1021002A40F2FF7252EA12A241EAFA
S315020048B05031C0088DF89B0090B28DF89A100021F5
S315020048C08DF89C1003EA122102F01C0341EA5030D3
S315020048D08DF89400FC20082100EAD2008DF895009C
S315020048E0D00040EA93008DF89600102040F001E0D7
S315020048F006F11A0000BF00BF7A78102955EA348300
S31502004900002A53EA148203D13A78002A55EA04822D
S315020049101378B2F8012000F8023C20F8012C01318C
S3150200492003300FF017C84FF470713046FFF718FCCA
S3150200493028B9B9F16F0F08F10108FFF4B5AE82216B
S31502004940C4F24001088840F01000088029B0BDE892
S31502004950F04F704799F80620022A00F272824AF254
S315020049607070C0F2062050F822006EE24CF26862C5
S31502004970C0F200224CF29A604FF0050EC0F20020FF
S31502004980431C442600270020411C1B2903D809ACDE
S3150200499026540846675413F8016B0FF00BC81778B4
S315020049A077B10132002300BF411C1B2903D809AE8F
S315020049B037540846735412F8017B0FB12FF00DC01D
S315020049C0BAF1000F5BEA0C80BAF1010F4CF2DB512F
S315020049D008BF4FF4FC60ADF81C004FF0060E09A8A4
S315020049E0C0F200211C304A1C43270023002500BFC9
S315020049F0691C1B2902D847550D46435412F8017B00
S31502004A000FF00BC099F82E20032A06D84AF26071DD
S31502004A10C0F2062151F8223003E04CF21063C0F2D4
S31502004A2000231E787EB10133002700BF00BF00BFFE
S31502004A30691C1B2902D846550D46475413F8016BCB
S31502004A400EB12FF00BC84CF231614FF0060EC0F2D8
S31502004A5000214B1C20260027691C1B2902D846551B
S31502004A600D46475413F8016B0FF00BC099F82F103F
S31502004A704CF260534CF23867C0F20023C0F20027B2
S31502004A80002953EA07810E786EB14B1C002700BF3E
S31502004A90691C1B2902D846550D46475413F8016B6B
S31502004AA00EB12FF00BC8032A06D84AF21070C0F2D4
S31502004AB0062030F8120001E048F21040ADF81E0060
S31502004AC009A800F138064CF23E704FF0070EC0F20C
S31502004AD000200130532300214FF0000C00BF00BF1D
S31502004AE00CF101021B2A03D806F80C309446B15485
S31502004AF010F8013B0FF00DC040F2E730D9F8342030
S31502004B000DF19A01CDF818A0824252EA30854F1E65
S31502004B104CF6CD4A0020CCF6CC4A3B46059200BF65
S31502004B20A5FB0A120A2D00F1010E4FEAD20101EB92
S31502004B308102A5EB420242F0300203F8012F03D3B1
S31502004B4009280D467046EBD3002000BF00BF00BF08
S31502004B500CF101011B2904D81A78705406F80C20AE
S31502004B608C46013B0FF00DC04FF0020E4CF2FB508B
S31502004B70C0F2002001302023002100BF00BF00BF89
S31502004B800CF101021B2A03D806F80C309446B154E4
S31502004B9010F8013B0FF00DC0019940F2E730D1F851
S31502004BA038B0002183455BEA3085384600BF00BF36
S31502004BB0A5FB0A230A2D01F1010E4FEAD30303EBEB
S31502004BC08302A5EB420242F0300200F8012F03D322
S31502004BD009291D467146EBD3002100BF00BF00BF65
S31502004BE00CF101031B2B04D80278F15406F80C20B1
S31502004BF09C4601380FF00DC04FF0020E08F101007D
S31502004C002023002100BF00BF0CF101021B2A03D89A
S31502004C1006F80C309446B15410F8013B0FF00DC063
S31502004C20019940F2E7303D46D1F83C8000218045AB
S31502004C3058EA308400BF00BFA4FB0A020A2C01F125
S31502004C40010E4FEAD20303EB8300A4EB400040F0CF
S31502004C50300005F8010F03D309291C467146EBD330
S31502004C60002100BF00BF00BF0CF101001B2804D8C1
S31502004C702A78315406F80C208446013D0FF00DC007
S31502004C804FF0020E4CF21560C0F20020451C2023A4
S31502004C90002100BF00BF00BF0CF101001B2803D892
S31502004CA006F80C308446315415F8013B0FF00DC05E
S31502004CB0019940F2E7303C46D1F840900021814507
S31502004CC059EA308000BF00BFA0FB0A230A2801F17F
S31502004CD0010E4FEAD30303EB8302A0EB420242F03A
S31502004CE0300204F8012F03D3092918467146EBD383
S31502004CF0002100BF00BF00BF0CF101001B2804D831
S31502004D002278315406F80C208446013C0FF00DC07F
S31502004D100198468E4FF6E0701F30ADF8200009A8C4
S31502004D2000F15402FEB14CF639004CF24671069B74
S31502004D30C0F20020C0F20021002B50EA01810020BF
S31502004D400D78002D00F09B804B1C002400BF00BF95
S31502004D50611C1B2902D815550C46505413F8015BE9
S31502004D60002DF5D18CE04CF2DC604FF0060EC0F25D
S31502004D7000204FF6E07C441C54230021002500BF8E
S31502004D80681C1B2802D853550546115414F8013BDA
S31502004D900FF00BC0059842F20F7158444044484444
S31502004DA0884250EA31810020A1FB0A360A2900F125
S31502004DB0010E4FEAD60303EB8306A1EB460646F045
S31502004DC0300607F8016F03D3092819467046EBD35C
S31502004DD00020019EE04600BF691C1B2903D83B78D0
S31502004DE0505453550D46013F0FF00BC01A2D03D8F0
S31502004DF0681C20215153054696F830004CF2AE71DC
S31502004E004CF2B973C0F20021C0F20023002851EA25
S31502004E1003810F787FB10131002300BF00BF00BFBD
S31502004E206E1C1B2E02D857553546935511F8017B39
S31502004E300FB12FF00BC8002808BF40F2FF78FFF72A
S31502004E4016BC4CF21770C0F2002006780024002E21
S31502004E5044D0471C002300BF581C1B2804D809A9AC
S31502004E608246CE5403460C5417F8016B0EB12FF04E
S31502004E700DC81A2BCDF894A037D85F1C30E0002459
S31502004E8042F20F70864256EA3086002000BF00BF0B
S31502004E90A6FB0A130A2E00F1010E4FEAD30303EB17
S31502004EA08301A6EB410141F0300107F8011F03D34C
S31502004EB009281E467046EBD3002000BF00BF00BF84
S31502004EC0631C1B2B03D83978D05411551C46013F5D
S31502004ED00FF00BC04FF47848FFF7C9BB0127002338
S31502004EE009A92020C8543B46CC550198C479082C00
S31502004EF006D84AF27C70C0F2062050F8240003E07D
S31502004F004CF24D60C0F20020057806949DB1471C14
S31502004F10002600BF00BF00BF581C1B2804D809A9E1
S31502004F208246CD5403460E5417F8015B0DB12FF09D
S31502004F300DC8CDF894A04CF601004FF0020EC0F257
S31502004F400020471C20250026581C1B2803D809A927
S31502004F50CD5403460E5417F8015B0FF00BC80199A6
S31502004F60087B002840D0B1F91810B1F1FF3F0ADCE6
S31502004F701A2B07D809AF03F1010A2D20CDF894A008
S31502004F80F852534649420DF19A004CF6CD47451E5A
S31502004F900026CCF6CC47B1F5004F28BF4FF40041AE
S31502004FA0A1FB07040A2906F1010E4FEAD40404EB19
S31502004FB08400A1EB400040F0300005F8010F03D356
S31502004FC0092E21467646EBD3002700BF00BF00BF5D
S31502004FD0581C1B2804D809AC2978E15403462754E7
S31502004FE0013D0FF00BC816E04CF2A4704FF0020E12
S31502004FF0C0F20020471C2D25002600BF00BF00BFBF
S31502005000581C1B2803D809A9CD5403460E5417F879
S31502005010015B0FF00BC81A2B06D809A903F1010A86
S31502005020CDF894A04720C852019B012A5BEA0C8066
S31502005030002A597A48F2104808BF4FF4FC60ADF8CE
S315020050401C0021B393F80AC0BCF1030F1FD84AF221
S31502005050607009A9C0F2062001F11C02002750F86F
S315020050602C0005787DB3461C002300BF00BF00BF9D
S31502005070581C1B2802D8D5540346175416F8015B50
S315020050800DB12FF00BC81A2B23D8581C1DE04CF279
S3150200509064514FF0080E09A8C0F200211C300131FC
S315020050A04427002200259A4648F2104600BF00BF58
S315020050B06B1C1B2B02D847551D46C25411F8017BA7
S315020050C00FF00BC0BCE0012000232021D15403467F
S315020050D0175401980DF19A014C1E4CF6CD49C07A2F
S315020050E00021CCF6CC492646632828BF632000BFA0
S315020050F0A0FB09750A2801F1010E4FEAD50707EB55
S315020051008705A0EB450545F0300506F8015F03D398
S31502005110092938467146EBD3002700BF00BF00BFFE
S31502005120581C1B2804D831788246D154034617549A
S31502005130013E0FF00BC8CDF894A04CF27D504FF013
S31502005140030EC0F20020013025210027DDF804A05D
S315020051505E1C1B2E02D8D1543346975510F8011BFC
S315020051600FF00BC0BAF8146000212046B6F59F7FF7
S3150200517088BF40F23F1600BFA6FB09750A2E01F151
S31502005180010E4FEAD50707EB8705A6EB450545F065
S31502005190300500F8015F03D309293E467146EBD379
S315020051A0002100BF00BF00BF5E1C1B2E03D805787E
S315020051B09155D554334601380FF00BC04CF63F00DB
S315020051C04FF0020EC0F2002001302021002700BF5E
S315020051D05E1C1B2E02D8D1543346975510F8011B7C
S315020051E00FF00BC0BAF816700020EF2F28BFEF277A
S315020051F0A7FB09160A2F00F1010E4FEAD60101EBB1
S315020052008106A7EB460646F0300604F8016F03D383
S3150200521009280F467046EBD3002000BF00BF00BF2F
S31502005220591C1B2903D825785054D5540B46013CEA
S315020052300FF00BC04AF21070C0F2062030F81C6064
S3150200524009A8ADF81E6000F138094CF247604FF02C
S31502005250050EC0F20020013043270023002200BFC2
S31502005260511C1B2904D809F802700A4609F80130B4
S3150200527010F8017B0FF00DC040F2E730DAF81C306F
S315020052800DF19A010593834253EA3085A1F1010C8F
S315020052904CF6CD400027CCF6CC40634600BF00BF9B
S315020052A0A5FB00160A2D07F1010E4FEAD60606EBFC
S315020052B08601A5EB410141F0300103F8011F03D33A
S315020052C0092F35467746EBD3002400BF00BF00BF47
S315020052D0551C1B2D05D8197809F8054009F8021046
S315020052E02A46013B0FF00DC04FF0020E4CF2FB5165
S315020052F0C0F200214B1C2025002400BF00BF00BFC6
S31502005300511C1B2904D809F802500A4609F8014023
S3150200531013F8015B0FF00DC040F2E731DAF82030E6
S31502005320049366468B4253EA3185002300BF00BFD1
S31502005330A5FB00170A2D03F1010E4FEAD70707EB6B
S315020053408701A5EB410141F0300106F8011F03D3A5
S31502005350092B3D467346EBD3002300BF00BF00BFB7
S31502005360541C1B2C05D8317809F8043009F80210B0
S315020053702246013E0FF00DC04FF0020E4CF20971AB
S31502005380C0F200214F1C2024002300BF00BF00BF33
S31502005390511C1B2904D809F802400A4609F80130B3
S315020053A017F8014B0FF00DC040F2E731DAF824B0DE
S315020053B0002366468B455BEA318500BF00BF00BF0E
S315020053C0A5FB00170A2D03F1010E4FEAD70707EBDB
S315020053D08701A5EB410141F0300106F8011F03D315
S315020053E0092B3D467346EBD3002300BF00BF00BF27
S315020053F0541C1B2C05D8317809F8043009F8021020
S315020054002246013E0FF00DC04FF0020E4CF215611E
S31502005410C0F200214E1C2024002300BF00BF00BFA3
S31502005420511C1B2904D809F802400A4609F8013022
S3150200543016F8014B0FF00DC040F2E731DAF828A05A
S31502005440002366468A455AEA318500BF00BF00BF7F
S31502005450A5FB00170A2D03F1010E4FEAD70707EB4A
S315020054608701A5EB410141F0300106F8011F03D384
S31502005470092B3D467346EBD3002300BF00BF00BF96
S31502005480551C1B2D05D8317809F8053009F802108C
S315020054902A46013E0FF00DC04FF6E0714CF27162E2
S315020054A01F31ADF820104FF0070E09A9C0F20022F5
S315020054B05431561C41230025002400BF00BF00BF03
S315020054C0671C1B2F02D80B553C46CD5516F8013BDF
S315020054D00FF00BC0019A92F80890B9F1030F06D8A3
S315020054E04AF26072C0F2062252F8293003E04CF208
S315020054F01063C0F200231F78069D67B15E1C00236D
S31502005500621C1B2A02D80F5514468B5416F8017BCF
