S00D00007261696E792E73726563F4
S3150200000020400022492E0002312D0002532E00020A
S31502000010532E0002532E0002532E0002532E0002CC
S31502000020000000000000000000000000532E000245
S31502000030532E000200000000532E0002532E00022F
S3150200004069260002FD20000293210002A722000277
S30D02000050C52300021D1B00027C
S3070200005802029A
S31502000060F0B583B040F200040221C2F2002444F249
S315020000704C0740F66C13C2F20027217044F24D0180
S31502000080C2F20021C4F2400300228DF807203A7022
S315020000900A7083F8A023402583F8A05354255D6097
S315020000A01D604FF6E865A220CFF6FF75C4F2400048
S315020000B004264FF0090E5E5183F8A023802683F8AA
S315020000C0A063038843F480530380038843F40063E8
S315020000D0038030F8803C23F0200320F8803C03881C
S315020000E043F48053038000BF038823F40063038034
S315020000F00292029B5B094A2B0AD800BF00BF00BFCF
S3150200010000BF029B01330293029BB3F5166FF7D32E
S31502000110038843F4006303800292029B5B094A2B25
S315020001200AD800BF00BF00BF00BF029B0133029383
S31502000130029BB3F5166FF7D30FF02BC0028822F499
S315020001408052028000220292029B5B094A2B07D848
S3150200015000BF029B01330293029BB3F5166FF7D3DE
S31502000160038843F4006303800292029A52094A2AE0
S315020001700AD800BF00BF00BF00BF029A0132029236
S31502000180029AB2F5166FF7D3028842F480520280C1
S3150200019000220292029B5B094A2B09D800BF00BFCC
S315020001A000BF029B01330293029BB3F5166FF7D38E
S315020001B002924AF68012C0F2030200BF00BF00BFDD
S315020001C0029B934204D200BF029B01330293F7E7DC
S315020001D030F8802C42F0200220F8802C0022029275
S315020001E04EF68062C0F23602029B934204D200BFF0
S315020001F0029B01330293F7E7428840880223C2F347
S31502000200003203EA902010440870032811D10DF140
S315020002100701A320012200F017F868B19DF8072014
S3150200022003213A70501EFE285FEA2F9038BF002144
S3150200023004E00020012101E000200221217003B028
S31502000240F0BDD4D4D4D4D4D4F0B581B014460F467C
S31502000250064600F0F5F8702000F02AF918B9304683
S3150200026000F026F928B1002600F096F9304601B0D2
S31502000270F0BD00F0E5F8712000F01AF900284FF001
S315020002800006F1D1A2204FF0080CC4F24000002370
S315020002900188002241F4805101804CF001E000BF48
S315020002A0018841F4006101800096009949094A29B2
S315020002B00AD800BF00BF00BF00BF009901310091FC
S315020002C00099B1F5166FF7D34188058825F40065C4
S315020002D005800096009D6D094A2D09D800BF00BF12
S315020002E000BF009D01350095009DB5F5166FF7D349
S315020002F0C1F3003141EA42020FF02FC00588591CB2
S31502000300A14225F4805528BF05F580550580009643
S31502000310009D6D094A2D07D800BF009D0135009545
S31502000320009DB5F5166FF7D3058845F4006505807F
S315020003300096009D6D094A2D0AD800BF00BF00BF76
S3150200034000BF009D01350095009DB5F5166FF7D3E8
S315020003500588A14225F400650580058845F4805587
S315020003600580FA540B4693D101267DE740F2000040
S31502000370C2F200200078704744F24C00C2F200201C
S315020003800078704744F24D00C2F2002000787047B0
S31502000390B0B582B0044600284FF000008DF8070081
S315020003A024D020710DF1070102200122FFF74CFF34
S315020003B030B90DF1070102200122FFF745FFA0B176
S315020003C09DF8070000F00F05E81E10F1020F0CD38E
S315020003D00DF1030103200422FFF736FF28B19DF831
S315020003E0030000F0C001402902D1002002B0B0BDD6
S315020003F000F00F009DF804109DF805209DF80630C8
S3150200040041EA002102F00F008A09042A43EA002287
S3150200041098BFB2F5F07F09D348090E284FF00000C5
S31502000420E4D89309042B1346E0D801E00B461146A3
S315020004300120238061802571D8E7D4D4D4D4D4D4C2
S3150200044082B0A220C4F24000018841F480510180AA
S31502000450018841F40061018000210091009A52094D
S315020004604A2A09D800BF00BF00BF009A0132009293
S31502000470009AB2F5166FF7D3028822F480520280F0
S315020004800191019949094A290AD800BF00BF00BF54
S3150200049000BF0199013101910199B1F5166FF7D3A8
S315020004A0018821F40061018002B07047D4D4D4D40B
S315020004B010B581B04FF0080EA221C4F24001072206
S315020004C04FF0000C00BF00BF0B8820FA02F423F4A1
S315020004D0805364F30C330B80CDF800C0009B5B099C
S315020004E04A2B09D800BF00BF00BF009B013300930F
S315020004F0009BB3F5166FF7D30B8843F400630B80AA
S31502000500CDF800C0009B5B094A2B09D800BF00BF8B
S3150200051000BF009B01330093009BB3F5166FF7D320
S315020005200B88013A23F400630B800FF033C8088866
S3150200053040F48050088000200090009A52094A2A0E
S315020005400AD800BF00BF00BF00BF009A0132009266
S31502000550009AB2F5166FF7D30A8842F400620A804F
S315020005600090009840094A280AD800BF00BF00BF81
S3150200057000BF0098013000900098B0F5166FF7D3CF
S3150200058048880A88C0F3003022F400620A8001B06B
S3150200059010BDD4D4D4D4D4D483B0A220C4F24000A3
S315020005A0018821F48051018000210091009A5209AC
S315020005B04A2A09D800BF00BF00BF009A0132009242
S315020005C0009AB2F5166FF7D3028842F400620280EF
S315020005D00191019949094A290AD800BF00BF00BF03
S315020005E000BF0199013101910199B1F5166FF7D357
S315020005F0018841F48051018000200290029840094E
S315020006004A2809D800BF00BF00BF029801300290F5
S315020006100298B0F5166FF7D303B07047D4D4D4D48A
S3150200062086B041F600374AF68014C0F2B707C0F228
S31502000630030400F0D5F8FFF713FD0546FFF796FE13
S315020006400646FFF799FE0146304600F055F84FF090
S3150200065000090DF10A0840F2FF7A4FF0000B00BFC5
S31502000660BDB9CDF8109000BF0498B84204D20498E0
S3150200067001300490F8E700BFFFF7F2FC0546FFF7EA
S3150200068075FE0646FFF778FE0146304600F034F85E
S31502000690E6E74046FFF77CFE064688B1F8200821C9
S315020006A040F237124723CDF800A001F07DF9BDF8DC
S315020006B00A00BDF80C104FF6FF7201F0DDF80BE0F0
S315020006C0BBF1000F08D0F820082140F23712472369
S315020006D0CDF8009001F068F9CDF8149000BF00BF84
S315020006E00598A04203D2059801300590F8E7B34673
S315020006F0B6E7D4D4D4D4D4D42DE9F04782B00328B3
S315020007008A4606D843F25411C0F2002131F810800D
S3150200071001E04FF6FF78FFF735FE814600200026FE
S3150200072000F026FF4FF4FC675FEAC97008BF4FF47A
S31502000730784708200821472247234FF4FC65009793
S3150200074001F032F95FEA89704FF0580058BF4FF452
S315020007507845082197224723009501F025F9A8201C
S315020007600821E7224723CDF8008001F01DF926254E
S3150200077006FB05F0B7B20AFA07F24FF4FC6400F181
S315020007800801120600F1210288B258BF42F204148F
S3150200079092B258217123009401F006F9072F06F14F
S315020007A00106E5D302B0BDE8F087022818BF7047FC
S315020007B044F2104043F26C21C2F20020C0F2002142
S315020007C001F071BE58B140F201010079C2F2002176
S315020007D0087044F24E00C2F20020012101707047F7
S315020007E02DE9F04F81B040F610108224C4F2400089
S315020007F0C4F240040025402180F8FC5380F8FC1323
S315020008000422026080F8FC53802380F8FC3344F211
S315020008100F462788C2F2002627F01007278080F8A5
S31502000820FC5380F8FC13826180F8FC5380F8FC3399
S31502000830278827F48067278080F8FC5380F8FC130A
S31502000840426180F8FC5380F8FC33278827F400774E
S31502000850278080F8FC5380F8FC13C26280F8FC53B0
S3150200086080F8FC3320886FF3DF302080208840F048
S3150200087010002080208820F480602080208840F4A8
S3150200088000402080307848B943F29011C0F200212E
S3150200089007C91268904708B901203070208840F4D1
S315020008A0007020804DF2C0400095C0F2010000BFEA
S315020008B00099814203D2009901310091F8E720881C
S315020008C04AF68011C0F2030120F400702080002055
S315020008D0009000BF00BF00BF009A8A4203D2009A6E
S315020008E001320092F8E721884FF60015C0F215058D
S315020008F041F40071218000900098A84203D200982A
S3150200090001300090F8E7F7208DF8000020880121D9
S3150200091020F010002080208820F480602080684625
S3150200092000F056FF2088012140F010002080A92007
S315020009308DF80000208820F010002080208840F4E6
S3150200094080602080684600F043FF2088012140F045
S315020009501000208051208DF80000208820F0100021
S315020009602080208840F480602080684600F030FFB6
S315020009702088012140F0100020802C208DF80000F4
S31502000980208820F010002080208840F4806020809B
S31502000990684600F01DFF2088012140F010002080EB
S315020009A082208DF80000208820F010002080208808
S315020009B040F480602080684600F00AFF208801210A
S315020009C040F010002080EC208DF80000208820F0F6
S315020009D010002080208820F480602080684600F085
S315020009E0F7FE20880026012140F0100020808DF8B5
S315020009F00060208820F010002080208840F480606B
S31502000A002080684600F0E4FE20884FF0020A0121A9
S31502000A1040F0100020808DF800A0208820F0100001
S31502000A202080208840F480602080684600F0D0FE56
S31502000A302088012140F01000208003208DF800005C
S31502000A40208820F010002080208840F480602080DA
S31502000A50684600F0BDFE2088012140F0100020808B
S31502000A607A208DF80000208820F01000208020884F
S31502000A7040F480602080684600F0AAFE20880121AA
S31502000A8040F010002080C0208DF80000208820F061
S31502000A9010002080208820F480602080684600F0C4
S31502000AA097FE20881327012140F0100020808DF840
S31502000AB00070208820F010002080208840F480609A
S31502000AC02080684600F084FE2088012140F0100054
S31502000AD020808DF80070208820F010002080208869
S31502000AE040F480602080684600F072FE2088012172
S31502000AF040F010002080C1208DF80000208820F0F0
S31502000B0010002080208820F480602080684600F053
S31502000B105FFE2088012140F01000208041208DF8E0
S31502000B200000208820F010002080208840F4806099
S31502000B302080684600F04CFE2088012140F010001B
S31502000B402080C5208DF80000208820F0100020802B
S31502000B50208820F480602080684600F039FE2088D4
S31502000B60012140F0100020808DF80060208820F0DE
S31502000B7010002080208840F480602080684600F0C3
S31502000B8027FE2088012140F01000208028208DF8C1
S31502000B900000208820F010002080208840F4806029
S31502000BA02080684600F014FE2088012140F01000E3
S31502000BB0208080208DF80000208820F01000208000
S31502000BC0208840F480602080684600F001FE20887C
S31502000BD0B027012140F0100020808DF80070208897
S31502000BE020F010002080208820F480602080684653
S31502000BF000F0EEFD2088012140F0100020808DF8E3
S31502000C000060208820F010002080208840F4806058
S31502000C102080684600F0DCFD2088012140F01000AB
S31502000C202080B1208DF80000208820F0100020805E
S31502000C30208820F480602080684600F0C9FD208864
S31502000C40012140F0100020808DF80070208820F0ED
S31502000C5010002080208840F480602080684600F0E2
S31502000C60B7FD2088012140F01000208011208DF868
S31502000C700000208820F010002080208840F4806048
S31502000C802080684600F0A4FD2088012140F0100073
S31502000C902080B4208DF80000208820F010002080EB
S31502000CA0208820F480602080684600F091FD20882C
S31502000CB0012140F0100020808DF800A0208820F04D
S31502000CC010002080208840F480602080684600F072
S31502000CD07FFD2088012140F010002080B6208DF88B
S31502000CE00000208820F010002080208820F48060F8
S31502000CF02080684600F06CFD2088012140F010003B
S31502000D0020808DF800A0208820F010002080208806
S31502000D1040F480602080684600F05AFD2088012158
S31502000D2040F01000208022208DF80000208820F05C
S31502000D3010002080208840F480602080684600F001
S31502000D4047FD2088012140F010002080B7208DF851
S31502000D500000208820F010002080208820F4806087
S31502000D602080684600F034FD2088012140F0100002
S31502000D702080C6208DF80000208820F010002080F8
S31502000D80208840F480602080684600F021FD20889B
S31502000D90012140F010002080BE208DF8000020883E
S31502000DA020F010002080208820F480602080684691
S31502000DB000F00EFD2088012140F0100020808DF801
S31502000DC00060208820F010002080208840F4806097
S31502000DD02080684600F0FCFC20880427012140F0B0
S31502000DE0100020808DF80070208820F010002080EE
S31502000DF0208840F480602080684600F0E9FC208864
S31502000E00012140F010002080E9208DF800002088A2
S31502000E1020F010002080208820F480602080684620
S31502000E2000F0D6FC2088012140F0100020808DF8C9
S31502000E300060208820F010002080208840F4806026
S31502000E402080684600F0C4FC2088012140F0100092
S31502000E502080F4208DF80000208820F010002080E9
S31502000E60208820F480602080684600F0B1FC20884B
S31502000E70012140F0100020808DF80060208820F0CB
S31502000E8010002080208840F480602080684600F0B0
S31502000E909FFC2088012140F0100020808DF8006020
S31502000EA0208820F010002080208840F48060208076
S31502000EB0684600F08DFC20884FF00F09012140F0B2
S31502000EC0100020808DF80090208820F010002080ED
S31502000ED0208840F480602080684600F079FC2088F3
S31502000EE0012140F010002080E0208DF800002088CB
S31502000EF020F010002080208820F480602080684640
S31502000F0000F066FC2088012140F0100020808DF858
S31502000F100060208820F010002080208840F4806045
S31502000F202080684600F054FC2088012140F0100021
S31502000F3020808DF80070208820F010002080208804
S31502000F4040F480602080684600F042FC20880E272C
S31502000F50012140F0100020808DF80070208820F0DA
S31502000F6010002080208840F480602080684600F0CF
S31502000F702FFC20884FF0080B012140F01000208042
S31502000F808DF800B0208820F010002080208840F4E0
S31502000F9080602080684600F01BFC2088012140F01A
S31502000FA01000208017208DF80000208820F0100005
S31502000FB02080208840F480602080684600F008FC8B
S31502000FC020884FF00A08012140F0100020808DF899
S31502000FD00080208820F010002080208840F4806065
S31502000FE02080684600F0F4FB2088012140F01000C2
S31502000FF0208040208DF80000208820F010002080FC
S31502001000208840F480602080684600F0E1FB20885A
S31502001010012140F01000208079208DF80000208800
S3150200102020F010002080208840F4806020806846EE
S3150200103000F0CEFB2088012140F0100020804D20D8
S315020010408DF80000208820F010002080208840F4CF
S3150200105080602080684600F0BBFB2088012140F0BA
S315020010601000208007208DF80000208820F0100054
S315020010702080208840F480602080684600F0A8FB2B
S315020010802088012140F0100020808DF80070208811
S3150200109020F010002080208840F48060208068467E
S315020010A000F096FB2088012140F0100020808DF888
S315020010B00080208820F010002080208840F4806084
S315020010C02080684600F084FB2088012140F0100051
S315020010D020801A208DF80000208820F01000208041
S315020010E0208840F480602080684600F071FB2088EA
S315020010F0012140F0100020801D208DF8000020887C
S3150200110020F010002080208840F48060208068460D
S3150200111000F05EFB2088012140F0100020808DF84F
S315020011200090208820F010002080208840F4806003
S315020011302080684600F04CFB2088012140F0100018
S315020011402080E1208DF80000208820F01000208009
S31502001150208820F480602080684600F039FB2088D1
S31502001160012140F0100020808DF80060208820F0D8
S3150200117010002080208840F480602080684600F0BD
S3150200118027FB2088012140F0100020801B208DF8CB
S315020011900000208820F010002080208840F4806023
S315020011A02080684600F014FB2088012140F01000E0
S315020011B020801F208DF80000208820F0100020805B
S315020011C0208840F480602080684600F001FB208879
S315020011D0012140F0100020808DF800A0208820F028
S315020011E010002080208840F480602080684600F04D
S315020011F0EFFA2088012140F01000208010208DF89F
S315020012000000208820F010002080208840F48060B2
S315020012102080684600F0DCFA2088012140F01000A8
S31502001220208005208DF80000208820F01000208004
S31502001230208840F480602080684600F0C9FA208841
S31502001240012140F01000208032208DF80000208815
S3150200125020F010002080208840F4806020806846BC
S3150200126000F0B6FA2088012140F0100020803420D8
S315020012708DF80000208820F010002080208840F49D
S3150200128080602080684600F0A3FA2088012140F0A1
S315020012901000208043208DF80000208820F01000E6
S315020012A02080208840F480602080684600F090FA12
S315020012B02088012140F0100020808DF800A02088AF
S315020012C020F010002080208840F48060208068464C
S315020012D000F07EFA2088012140F0100020808DF86F
S315020012E00080208820F010002080208840F4806052
S315020012F02080684600F06CFA2088012140F0100038
S31502001300208009208DF80000208820F0100020801F
S31502001310208840F480602080684600F059FA2088D0
S31502001320012140F01000208033208DF80000208833
S3150200133020F010002080208840F4806020806846DB
S3150200134000F046FA2088012140F010002080372064
S315020013508DF80000208820F010002080208840F4BC
S3150200136080602080684600F033FA2088012140F030
S31502001370100020808DF80090208820F01000208038
S31502001380208840F480602080684600F021FA208898
S31502001390012140F010002080F4208DF80000208802
S315020013A020F010002080208820F48060208068468B
S315020013B000F00EFA2088012140F0100020808DF8FE
S315020013C00060208820F010002080208840F4806091
S315020013D02080684600F0FCF92088012140F01000C8
S315020013E020808DF80060208820F010002080208860
S315020013F040F480602080684600F0EAF920880121E6
S3150200140040F0100020808DF80090208820F0100017
S315020014102080208840F480602080684600F0D8F959
S315020014202088012140F01000208036208DF800002F
S31502001430208820F010002080208820F48060208000
S31502001440684600F0C5F92088012140F0100020808E
S315020014508DF800B0208820F010002080208840F40B
S3150200146080602080684600F0B3F92088012140F0B0
S31502001470100020803A208DF80000208820F010000D
S315020014802080208820F480602080684600F0A0F941
S315020014902088012140F01000208066208DF800008F
S315020014A0208820F010002080208840F48060208070
S315020014B0684600F08DF92088012140F01000208056
S315020014C021208DF80000208820F01000208020883E
S315020014D020F480602080684600F07AF92088012195
S315020014E040F01000208011208DF80000208820F0A6
S315020014F010002080208820F480602080684600F05A
S3150200150067F9208840F010002080009600BF00BFD7
S315020015100098A84203D2009801300090F8E72920EB
S315020015208DF80000208842F2C0750121C0F209053B
S3150200153020F010002080208820F4806020806846F9
S3150200154000F046F9208840F010002080009600BF87
S315020015500098A84203D2009801300090F8E70020D4
S3150200156000F006F801B0BDE8F08FD4D4D4D4D4D4B8
S3150200157070B5F821FC2301EA102100F01F0600F0E5
S315020015801C0241EA503103EAD000F3004FF4A07E78
S3150200159044F24F06C2F2002643EA9202B31C00BF8F
S315020015A003F8021C03F8010C03F8032B0FF009C021
S315020015B082250020002140F23F1240F2DF13C4F2DE
S315020015C0400540F2DF1600F01EF8288844F24F0468
S315020015D0C2F2002420F010002880288840F480609F
S315020015E0288000BF00BF00BF4FF47071204600F094
S315020015F0EFF818B9002EA6F10106F5D1288840F0B9
S315020016001000288070BD2DE9F04383B082242A277A
S31502001610C4F240048DF80170894601212788984654
S31502001620164627F0100727802588074625F480608E
S3150200163020800DF1010000F0CBF82088012140F056
S3150200164010002080380A8DF80200208820F0100051
S315020016502080208840F4806020800DF1020000F096
S31502001660B7F82088012140F0100020808DF8037021
S31502001670208820F010002080208840F4806020809E
S315020016800DF1030000F0A4F82088012140F01000BB
S315020016902080300A8DF80400208820F01000208077
S315020016A0208840F48060208001A800F091F820880C
S315020016B0012140F0100020808DF80560208820F07E
S315020016C010002080208840F4806020800DF1050003
S315020016D000F07EF82088012140F0100020802B20A7
S315020016E08DF80600208820F010002080208820F443
S315020016F0806020800DF1060000F06AF82088012142
S3150200170040F0100020804FEA19208DF8070020884B
S3150200171020F010002080208840F4806020800DF1A7
S31502001720070000F055F82088012140F010002080C3
S315020017308DF80890208820F010002080208840F440
S315020017408060208002A800F043F82088012140F042
S31502001750100020804FEA18208DF80900208820F01A
S3150200176010002080208840F4806020800DF109005E
S3150200177000F02EF82088012140F0100020808DF81C
S315020017800A80208820F010002080208840F48060A3
S3150200179020800DF10A0000F01BF82088012140F09C
S315020017A0100020802C208DF80B00208820F01000DD
S315020017B02080208820F4806020800DF10B0000F04C
S315020017C007F8208840F01000208003B0BDE8F083BF
S315020017D02DE9F04700284FF000064AD00D460029B1
S315020017E047D044F20F470446C2F2002743F2901054
S315020017F0C0F200203978D0F80090D0F808A039B9A4
S31502001800DAF80020416848469047B0B9012038709E
S3150200181044F24E0740F20108C2F20027C2F2002843
S31502001820002007233870022088F800004846DAF8BC
S31502001830086021462A46B04708B1064619E04BF22F
S31502001840C040CFF6B37000BF397819B9002800F14D
S315020018500100F9D13878012805D198F8000001284D
S3150200186003D1002605E0142601E04FF4967600F037
S31502001870FEF83046BDE8F0872DE9F04F8DB005251C
S31502001880B0F59D7F03460C900846D1FA55FA28BF5B
S315020018904FF49D73B1F5ED7F1FFA8AF728BF4FF417
S315020018A0ED700530874200F279808C460C99D1FAA8
S315020018B055F7591D16468BB2F8210897BFB201EAB1
S315020018C016210691D91B02F01C020792013106F07D
S315020018D01F02D200CDE9042101EB4101039144F23A
S315020018E04F014FF0FC08C2F20021DDE907B9CDE94C
S315020018F00A730231019180B20290CDF824C000BF72
S31502001900069FDDE9045040F023C00020019900BF84
S315020019101FFA8AF20C9C624509EB000292B25FEA58
S315020019201F93A2425FEA1F9201301A4313461446DE
S315020019301EBF47EA563308EAD60445EA9B0201F877
S31502001940023C01F8014C01F8032B0FF01FC81FFAE5
S315020019508AF70A9839460B9A3B464FF0FC08FFF77E
S3150200196052FE8225C4F24005288820F01000288005
S31502001970288840F48060288044F24F000399C2F21E
S315020019800020FFF725FFDDF824C0288802990AF116
S31502001990010A40F0100028808F42B1D30DB0BDE895
S315020019A0F08FD4D4D4D4D4D4904288BF70472DE9D2
S315020019B0F04381B00D4659091C460E2953D89109A8
S315020019C0042998BFA5424ED8111A11F101091FD256
S315020019D0089BF82103F01C0C03F01F0644F24F0883
S315020019E001EA1321FC27F600C2F2002849F001E0C1
S315020019F041EA533107EAD30346EA9C0708F1020695
S31502001A0006F8021C06F8013C06F8037B0FF009C033
S31502001A1040F2820829462346C4F24008FFF7F3FD46
S31502001A20B8F8000044F24F0709EB4906C2F2002754
S31502001A3020F01000A8F80000B8F8000040F480601A
S31502001A40A8F8000000BF00BF38463146FFF7C0FEC7
S31502001A5018B90135A8B2A042F6D9B8F8000040F08C
S31502001A601000A8F8000001B0BDE8F0437047F0B5D9
S31502001A7081B044F20F4543F29016C2F20025C0F23D
S31502001A80002628783468B768012804D17969204687
S31502001A908847002028703A6871682046904708B93E
S31502001AA00120287001B0F0BD80B5FEF7B9FD002017
S31502001AB080BD01688A6802F00C0202328A60006800
S31502001AC0416849075CBF41685FEAC16101D50020F0
S31502001AD07047416809065CBF41685FEAC151F6D4A6
S31502001AE04068C0F34010704701780131017040BF71
S31502001AF000207047B0B50446407C012808BFB0BD3F
S31502001B00204602252574FFF7D4FF002818BF0025BA
S31502001B106574E06ABDE8B040FFF7E6BFB0B582B0D3
S31502001B204FF07041EFF3038001EB006044F2A842EC
S31502001B308115C2F2002204165558A9680868FFF7F3
S31502001B40D9FFE86868B1286910B10168019100E01F
S31502001B5001A869690160E9688847286908B101999D
S31502001B6001604CF20030C4F2000050F8241021F457
S31502001B70803140F8241050F8240002B0B0BD2DE99F
S31502001B80F04F83B00D4609784CF2000983462F695F
S31502001B90C4F2350909EB012487B178684FF0006178
S31502001BA000680160786800688460D7E901123868C5
S31502001BB0126890470646002840F067816869B8B106
S31502001BC041684FF4002209680A60416809684C605E
S31502001BD0D0E9011200681268904706462FB126B175
S31502001BE0B9683868096A88474FE1002E40F04D818E
S31502001BF0CBF804504FF0000AA869CBF82400E86934
S31502001C00CBF82C00CBF828A0287809EB002ECBF8CD
S31502001C1008E0EF7AA97A6E7B286A6A7A4FF444154D
S31502001C2041EA4701C77941EA0636002A08BFA9F503
S31502001C3096253146047845EAC77508BF41F080010A
S31502001C404378002C51EA068718BF45F0807544791F
S31502001C508178002B029108BF45F400354FF480715C
S31502001C60012C90F803C045EA037608BF4FF4407191
S31502001C70002C18BF0E43417A002A027A47EA0C6307
S31502001C8001F003010779847943EA8105019410D1B1
S31502001C90417B012907D146F40056DEF8441041F48F
S31502001CA04071CEF84410017B408945F4604540EA14
S31502001CB0014A0123EFF3108983F310884FF40011D0
S31502001CC0DBF80400022F007808BF4FF44011C0F180
S31502001CD01300002F03FA00F043F20403C4F22003B8
S31502001CE051EA17844CF200371968C4F2000721EA58
S31502001CF0000018600298196800FA0CF040EA0228FF
S31502001D001E20012100F0D2FF89F310880021DBF8A2
S31502001D100800CFF680518166DBF80800C0F8108013
S31502001D20DBF80800C0F804A0DBF80800C460DBF8A2
S31502001D3008004561DBF808000199016426F080413C
S31502001D40DBF808008160DBF8080081688660DBF852
S31502001D50042044F2A840C2F2002092F9021000299F
S31502001D6023D44EF200159279CEF2000501266B18A5
S31502001D70120183F8002340F821B057F8212022F4FB
S31502001D80803247F8212057F821204A0901F01F0125
S31502001D90BFF35F8F05EB820306FA01F1C3F88011E8
S31502001DA045F82210DBF8042003E04EF20015CEF2CD
S31502001DB0000592F9011000291ED452796B180126EA
S31502001DC0120183F8002340F821B057F8212022F4AB
S31502001DD0803247F8212057F821204A0901F01F01D5
S31502001DE0BFF35F8F05EB820306FA01F1C3F8801198
S31502001DF045F82210DBF8042092F90410127A002921
S31502001E004FEA021203D46B1883F8002307E001F0AD
S31502001E100F034EF61856043BCEF200069A5540F8CA
S31502001E2021B057F8212022F4803247F8212057F8B2
S31502001E3021204A0901F01F01012705EB820307FA57
S31502001E4001F1BFF35F8FC3F8801145F82210DBF86A
S31502001E50042092F90310D27900294FEA021203D420
S31502001E606B1883F8002307E001F00F034EF61857AC
S31502001E70043BCEF20007DA5540F821B045F249009C
S31502001E800026C5F25320CBF80000304603B0BDE869
S31502001E90F08F80B582B094460A46002100936346CD
S31502001EA000F08CF802B080BD80B582B09446002264
S31502001EB00093634600F082F802B080BDDDF800C0F0
S31502001EC0CDF800C000F07AB8844641620020CCE921
S31502001ED00A32704710B50446406800212160416904
S31502001EE021B18A680868116A88476068006918B172
S31502001EF081680068096A8847A068816821F44C11E4
S31502001F00816061684EF28010CEF2000091F90220E3
S31502001F10002A0CD4510902F01F02012303FA02F22D
S31502001F2040F82120BFF34F8FBFF36F8F616891F99D
S31502001F300120002A0CD4510902F01F02012303FAE0
S31502001F4002F240F82120BFF34F8FBFF36F8F616813
S31502001F5091F9031001234A0901F01F0103FA01F165
S31502001F6040F82210BFF34F8FBFF36F8F616891F96C
S31502001F7004104A0901F01F0103FA01F140F8221088
S31502001F80BFF34F8FBFF36F8FA068816821F0010105
S31502001F908160A0680021CFF680518166A068C36681
S31502001FA06068417A41B9006A407B012804D1A06881
S31502001FB0416C21F440714164002010BD2DE9F041CD
S31502001FC004468068006E10B10820BDE8F08104F175
S31502001FD00C0C8846002706988CE88600616807285C
S31502001FE0C4E906731E4684F8200088BF4FF0805766
S31502001FF00F28486988BF4FF0005700B3A6614FF615
S31502002000FF754869CCF6F375416809680B68CE819D
S3150200201003EA050343EA070343F400250D608A60D9
S315020020202AB944F248420B60C2F200228A608268F0
S3150200203000685268904708B1BDE8F0816168086996
S3150200204090B366610869416809680A6822F04052DD
S315020020503A430A6063685F7A3FB91B6A2BB15B7BBE
S31502002060012B02D1E369012B43D1CE8122F04062DA
S31502002070B8F1000F02F100630B60C1F8048005D1CC
S3150200208044F24C430A60C2F200234B60A268936892
S3150200209023F4801393608268006852689047002890
S315020020A018BFBDE8F0816168A068426994F82030E3
S315020020B04F7A22F4F81242EA034267B9096A51B129
S315020020C0497B012907D1E169012902D122F0800267
S315020020D001E042F0800242610121A068C166A06867
S315020020E0816841F4801141F0010181600020BDE860
S315020020F0F081721E6261CA810A68B7E74FF07041C9
S31502002100EFF3038001EB00604CF200318015C4F25C
S315020021100001425822F48032425044F2A842415809
S31502002120C2F200221058D0E90612914221D0026969
S3150200213042B190F82030102B07D383681B6842F80F
S3150200214021300CE08268126809E0D0F808C0082B3A
S31502002150DCF8003002D322F8113000E053548268D2
S315020021604FF00043013193668161C269914218BF03
S3150200217070474068012290F9030000F01F014009F0
S3150200218002FA01F14EF20012CEF2000242F82010DB
S3150200219070474FF07041EFF3038001EB00604CF2A1
S315020021A000318015C4F2000144F2A8434258C2F23B
S315020021B0002322F480324250425818584268136A69
S315020021C05B78012B36D1C369A3F1010C43696345E0
S315020021D020D180B592F903204EF2001CCEF2000CFB
S315020021E051F8223023F4803341F8223051F822107C
S315020021F0510902F01F0201230CEB810E03FA02F2CF
S31502002200BFF35F8FCEF880214CF82120BDE88040D5
S3150200221000F012B8116969B192F90310012301F0B5
S315020022201F02490903FA02F24EF20013CEF200032C
S3150200223043F8212000F000B84268517A002941692A
S3150200224010D1126A72B1527B012A0BD18268136DC8
S315020022509B0027D5C369013B994203D1536923F0F9
S3150200226080035361C269914208BF7047C2683AB19E
S3150200227090F82030102B07D3836852F821200AE009
S3150200228082680023136007E0082B836802D332F8C2
S31502002290112000E0525C1A6082684FF0005301314F
S315020022A093664161704710B54FF07041EFF30380BA
S315020022B001EB00624CF2003E9015C4F2000E44F2AD
S315020022C0A84150F80E30C2F2002123F4803340F8C0
S315020022D00E3050F80E3008588168096D890104D510
S315020022E04168497A012918BF10BD11164EF2001431
S315020022F04B09CEF2000401F01F014FF0010C04EB72
S3150200230083030CFA01F1C3F88010BFF34F8FBFF3BA
S315020023106F8F416891F90230002B2AD4590903F0D4
S315020023201F030CFA03F304EB8101C1F88030BFF3FB
S315020023304F8FBFF36F8F81688B6823F001038B6029
S31502002340416891F902105EF8213023F480334EF889
S3150200235021305EF821304B0901F01F01BFF35F8F78
S3150200236004EB83020CFA01F1C2F8801144F823103F
S3150200237004E081688A6822F001028A600121BDE8D0
S31502002380104000F000B82DE9F04184B00446806A9E
S315020023900DF1040828B10246434692E8E000E0C384
S315020023A000E040466268127801710260E16A81606B
S315020023B0616A8847A06A10B198E80E000EC004B0A0
S315020023C0BDE8F081F0B581B04FF07041EFF30380C4
S315020023D001EB006644F2A841B015C2F200214CF2AC
S315020023E000350C58C4F20005606890F90210002905
S315020023F02FD44A094EF20010CEF2000001F01F015E
S3150200240000EB8202012303FA01F1C2F88010BFF346
S315020024104F8FBFF36F8FA1688A6822F001028A602C
S31502002420616891F9021055F8212022F4803245F8AC
S31502002430212055F821204A0901F01F01BFF35F8FC1
S3150200244000EB820703FA01F1C7F8801140F8221067
S3150200245004E0A068816821F001018160A068002182
S31502002460CFF68051076D81663A0103D505212046D4
S31502002470FFF789FFF80103D504212046FFF783FF02
S31502002480F843361610F0A05F03D108212046FFF765
S315020024907AFF55F8260020F4803045F8260055F8D4
S315020024A0260001B0F0BD80B545F25422C5F24F02B6
S315020024B00260084600F004F8002080BDD4D4D4D4CB
S315020024C070B5044600F060F844F2A44CEFF31081B4
S315020024D0C2F2002C012080F31088DCF8000038B923
S315020024E040F614500022C4F24000027040220270EC
S315020024F0DCF800000130CCF8000081F31088208857
S3150200250028B340F6000E0021C4F2400E00BF00BF01
S31502002510606800EBC10250F831309288D8034FEA66
S315020025201220D2B20BD50EEB801555F8226026F496
S31502002530803645F8226023F4803645F822600EEB99
S315020025408010013140F8223020888142E0D30120F8
S31502002550EFF3108180F31088DCF8000020B1DCF87C
S3150200256000000138CCF80000DCF8000038B940F66B
S3150200257014500022C4F2400002708022027081F3DD
S31502002580108870BDD4D4D4D42DE9F04F81B004465E
S315020025900088002865D04EF64C4B0025C4F2010B8C
S315020025A04FF0010A00BF00BF43F29C2642F24008E8
S315020025B00027C0F20026C4F2200800BF00BF00BFF9
S315020025C0606836F8021B00EBC50082888A423FD15A
S315020025D000689BF8001000F0B8500AFA07F9B0F14B
S315020025E0807F09EA010017D158B9012000F003FCE7
S315020025F09BF8000040EA09008BF80000012000F079
S31502002600D3FB98F90000002822D498F8000040F085
S31502002610800017E000BF00BF58B1012000F0EBFBBD
S315020026209BF8000020EA09008BF80000012000F068
S31502002630BBFB98F90000B0F1FF3F09DC98F80000F7
S3150200264000F07F0088F80000C820012100F02EFB70
S31502002650013708F10208032FB2D1208801358542DD
S31502002660A2D301B0BDE8F08FF0B58BB048F2740189
S31502002670C4F234010868C2430A604FF07042EFF3B5
S31502002680038102EB01614CF200328915C4F20002A9
S315020026908B5823F480338B5044F2A8438A58C2F2F3
S315020026A000235C58616911B322690DF1040E1040D2
S315020026B001900020CDE90200A069E369A2680492B4
S315020026C0059360B103460DF1180C93E8E6008CE819
S315020026D0E60001469EE8EC00ECC1616900E0704646
S315020026E08847A06918B106A991E8EC00ECC00BB0C6
S315020026F0F0BDD4D44EF22401C4F2010188780988CF
S3150200270001F00F02A2F1080103293BD8DFE801F02C
S31502002710022C101E44F22001C2F2002151F82000C0
S315020027204AF6AB21CAF6AA21A0FB0101480830E00D
S3150200273044F22001C2F2002151F820004AF6AB21F0
S31502002740CAF6AA21A0FB0101C80822E044F2200130
S31502002750C2F2002151F820004AF6AB21CAF6AA219C
S31502002760A0FB0101080914E044F22001C2F2002193
S3150200277051F820004AF6AB21CAF6AA21A0FB0101B4
S31502002780880806E044F22001C2F2002151F8200036
S31502002790D04044F2CC41C2F2002108607047D4D442
S315020027A02DE9F04381B0BCA04EF2FA38C4F201081A
S315020027B04AF20151CFF6FF7190ED001F44F220005C
S315020027C00231A8F80010C2F20020B7A14EF6014667
S315020027D080ED001F4EF600474EF2140591ED001FE4
S315020027E048F2004140F6000280ED041F2030C1F29B
S315020027F0D77143F60003C4F20106C4F20107C4F21C
S315020028000105C2F6AF72C1F69C430EC0FFF772FF16
S315020028104FF650600A21CFF6FF703954092085F829
S315020028208E00387818B93078800700F03081387811
S3150200283048B901203870C820012100F037FA00BFDC
S3150200284038780128FCD10020307038704AF20159DC
S31502002850002085F82200A87795F828000007FBD506
S3150200286042F602314EF61450C0F20101C5F8B41018
S3150200287040F223416987002285F836204FF602117D
S31502002880C5F8981040F251412987CEF200004EF267
S315020028900001BFF34F8FBFF36F8F0368CEF20101C2
S315020028A023F400330360C0F83C22BFF34F8FBFF31B
S315020028B06F8F0A6822F440520A60BFF34F8FBFF34C
S315020028C06F8F2A7802F0F80201322A7000BF00BF29
S315020028D02A78D206FCD40A6842F440520A60BFF350
S315020028E04F8FBFF36F8F0168890312D4BFF34F8FE7
S315020028F0BFF36F8F0021C0F83C12BFF34F8FBFF3B7
S315020029006F8F016841F400310160BFF34F8FBFF34F
S315020029106F8F0020A87500BF95F828008006FBD5AA
S315020029204CF200070020C4F2130738703878387862
S3150200293038787868FA2807D0FA20C1F6006000BF16
S3150200294078607968FA29FBD1B8687D2808D07D209D
S31502002950CEF2001000BF00BFB860B9687D29FBD176
S3150200296043F232400524C3F22320E86042F22010EB
S315020029702882AC74FFF7BEFE1E200121012600F05C
S3150200298095F978686FF39F20652828BF3E70FFF798
S31502002990B1FE42F200004FF42541C4F20000A0F855
S315020029A00090BFF35F8F0672BFF35F8F01800DF158
S315020029B0020085F83F60ADF8024000F07DF895F818
S315020029C0410040F0400085F8410000BF00BF00BF53
S315020029D095F94100B0F1FF3FFADC022085F840008C
S315020029E0CA2085F8410095F8410000F0BF0085F83D
S315020029F0410000BF00BF00BF95F941000028FBD48B
S31502002A0095F8490040F0400085F8490000BF00BF34
S31502002A1095F94900B0F1FF3FFADC052085F8480038
S31502002A20C02085F8490095F8490000F0BF0085F8F6
S31502002A30490000BF00BF00BF95F949000028FBD43A
S31502002A4095F8640040F0400085F8640000BF00BFBE
S31502002A5095F96400B0F1FF3FFADC022085F85C00CC
S31502002A60C82085F8640095F8640000F0BF0085F878
S31502002A70640000BF00BF00BF95F964000028FBD4C4
S31502002A804FF42540A8F8000001B0BDE8F0834FF4EA
S31502002A907A7000F0C2F8D9E6006CDC0200127A0005
S31502002AA00080000000366E010080000000CA9A3BDA
S31502002AB00046C3235543DE132DE9F04F81B04EF293
S31502002AC0FA3143F20406C4F201018246C4F2200638
S31502002AD04AF20350B1F8009008804FF0010B00252E
S31502002AE04FF480340127002004FA00F132680A42CA
S31502002AF010D1EFF310888BF3108832680BFA00F0CE
S31502002B0011433160316805431E20012100F0CEF8E1
S31502002B1088F31088F8074FF001004FF00007E3D161
S31502002B204EF2750744F22001C4F20107C2F20021F7
S31502002B30387800F00F0051F8200017F8081C01F051
S31502002B400F01022901D801220BE0CA1E052A06D26C
S31502002B5043F2F041C0F2002151F8221003E0083995
S31502002B60102202FA01F1B0FBF1F04DF68361C4F2D4
S31502002B701B31A0FB01016FF0010000EA5140012167
S31502002B8000F094F8387840F04000387000BF00BF7B
S31502002B9097F90000B0F1FF3FFADC9AF8010007F856
S31502002BA0080C9AF8000040F0400038709AF80000CD
S31502002BB0387000BF00BF00BF97F900000028FBD4A1
S31502002BC000204FF0010A4FF48038012400BF00BFF5
S31502002BD025FA00F1C90710D0EFF310878AF310889F
S31502002BE008FA00F0316821EA0000306030681E20E1
S31502002BF0012100F05BF887F31088E0074FF001002F
S31502002C004FF00004E4D14EF2FA3149F42540C4F201
S31502002C100101088001B0BDE8F08F7047D4D4D4D446
S31502002C20B0B542F22404C820C4F2200401210025D2
S31502002C30257100F03BF82570207808B12FF005C009
S31502002C40207840F00200207020788007FCD4002013
S31502002C5004F8020C00BF00BF14F8020C08B12FF0F2
S31502002C6005C84FF0030E002004F11C0100BF00BF8F
S31502002C7011F8102002F07F0201F8102000BF00BFF9
S31502002C8011F91020002AFBD401300FF00FC80120E1
S31502002C9000F0B1F84EF64C410120C4F201010022C7
S31502002CA00A70BDE8B04000F07FB8704744F2CC42EB
S31502002CB041F20023C2F20022C0F27A0348431268AC
S31502002CC09A420FD344F23F21C0F20F0111444DF64E
S31502002CD08362C4F21B32A1FB0212910CA0FB01011A
S31502002CE0C9B11BE04CF60021C3F69A31B1FBF2F1F1
S31502002CF048F63812C0F24102904205D24FF47A7277
S31502002D005043B0FBF1F006E0B0FBF1F0904205D281
S31502002D104FF47A71484328B100F006B84FF0FF30FD
S31502002D2000F002B87047D4D401380028FCD17047AD
S31502002D30F0B581B04CF2001544F25047C4F20005DA
S31502002D400024C2F200272868296A01EA000600BFA9
S31502002D5026FA04F0C00703D0396809B1204688472D
S31502002D6001340437152CF3D12E6100BF00BF00BF1A
S31502002D70286A3042FCD101B0F0BDD4D4D4D4D4D424
S31502002D8080B54FF0060E4CF2003043F27821C4F2C1
S31502002D900000C0F2002100BF31F8022B02B102602E
S31502002DA004300FF007C880BDEFF31081012282F3D1
S31502002DB0108844F2C042C2F2002232F8103023B127
S31502002DC032F81030013B22F8103032F810207AB96E
S31502002DD04EF2FA3243F2045CC4F20102C0F2002C53
S31502002DE013883CF8100043F4254323EA00001080C0
S31502002DF081F31088704710B5EFF31081012282F338
S31502002E00108844F2C042C2F2002232F8103083B96E
S31502002E104EF2FA3E43F2045CC4F2010EC0F2002CFA
S31502002E20BEF800403CF81030234343F42543AEF885
S31502002E30003032F81030013322F8103081F3108856
S31502002E4010BDD4D4D4D4D4D400F006F8FEF72CFEA8
S31502002E50FEE700BE7047D4D470B54EF6005540F278
S31502002E600120CEF20005C0F20E004EF200066861A5
S31502002E70CEF20106BFF34F8FBFF36F8F2968C1F3FE
S31502002E80035001285FEA1F9211F00F0F5FEA0F91BC
S31502002E901142316811D102280FD241F0040030608C
S31502002EA04EF20800BFF34F8FCEF20000BFF36F8FD2
S31502002EB0016841F48031016002E021F004003060D3
S31502002EC0BFF34F8FBFF36F8F4FF4700040F20001D4
S31502002ED0C5F888000020C0F20021A9600024FDF791
S31502002EE064FCFFF75DFC4EF2FA304EF6B022C4F2F5
S31502002EF00100C4F201024AF20251018014704FF439
S31502002F00254101800120FDF750FC40F22000C2F26B
S31502002F10002080F30A883068800721D5A868B0F1BE
S31502002F20007F1DD130694FF40071C0F3C30072698E
S31502002F3001FA00F3C2F3C30081400020DA08CB088D
S31502002F400146064642F005C0E6E802010FF005C05A
S31502002F504FF0005243F005C0E2E802010FF005C04F
S31502002F60002000F095F8FFF7C5FBFFF759FE032096
S31502002F70FFF741FF4FF00E0E40F63050C4F240000C
S31502002F8020F8044B0FF005C04EF210140320C4F2D1
S31502002F900104FFF709FF0320FFF72DFF44F20400A7
S31502002FA00021C4F22000016041608160C1600320FB
S31502002FB0FFF7FAFED4F8C802800714D42078A0B12D
S31502002FC00120FFF718FF00BF94F9000010F1410F2E
S31502002FD0FADC0020207000BF20783F28FCD80120B0
S31502002FE0FFF7E2FE01E0D4F8C802D4F8C8024007AF
S31502002FF015D42079A8B10120FFF7FDFE00BF00BF5E
S3150200300094F9040010F1410FFADC0020207100BF90
S3150200301020793F28FCD80120FFF7C6FE01E0D4F84C
S31502003020C8020220FDF7C1FB012000F031F844F28C
S31502003030D444C2F20024204600F06EF8204600F086
S315020030407FF8BFF34F8FBFF36F8F0020C5F8500292
S3150200305043F25E5043F25E51C0F20020C0F20021FC
S31502003060BFF34F8F081ABFF36F8F8410012C08DB52
S3150200307043F25E55C0F2002555F8040B8047013C29
S31502003080FAD1FFF77DFE0020BDE87040FFF70DBEC6
S31502003090F0B581B043F2C4250446C0F200252E687D
S315020030A076B16868071D00BF7879844204D157E972
S315020030B00101091A00F01BF8013E07F10C07F3D1D2
S315020030C0AE6896B1E86800F1080500BF00BF00BF10
S315020030D06879844205D155E902022968121A00F07C
S315020030E00AF8013E05F11005F2D101B0F0BD0A461B
S315020030F0002100F009B810B5002322B1CC5C013AD8
S31502003100C4540133F9E710BD03461AB103F8011B93
S31502003110013AFAE77047D4D410B505490446054A80
S31502003120FFF7E9FF044805492044FFF7E0FF10BD19
S315020031305A0000020000000000000000000000002B
S315020031400249401A02490860704700BF08000000A1
S31502003150D0440022E00700F81FF8E0FF010100005A
S3150200316000000001010000000001D4D401010203A5
S31502003170040C0C0C0C000000010000000000000012
S3150200318000000000C5070002000000005C310002DA
S31502003190184400226C31000284320002040000004E
S315020031A0000000000500000001000000000001060A
S315020031B002010000000001000802000000000100F8
S315020031C009020000000001000A02000000000100DE
S315020031D00B0200000000010F000400000000010FB6
S315020031E00104000004000000040400000000010FB6
S315020031F0050400000000010F0604000004000000A0
S3150200320009040000040000000A0400000000011F77
S315020032100B0400000000010F0E0400000000010371
S315020032200F04000005000000020600000500000071
S31502003230030600000000010F000700000000010F56
S31502003240010700000000010F020700000000010F45
S315020032500307000000040106080700000000010F32
S31502003260020B00000000010F030B00001A00000011
S315020032709C3100020000000097031D031E03210378
S31502003280200367007F1B0002931E0002A91E000294
S31502003290BD1E0002C91E0002D51E0002020403045E
S315020032A00404D4D400000068000000680000008016
S315020032B00000008000000070000000702000002264
S315020032C0200000220B000000DC3200021900000080
S315020032D06033000204000000A4320002000000680D
S315020032E0000000680001000D000000680000006890
S315020032F00001000D000000800000008000010008AF
S31502003300000000800000008000010008000000703C
S31502003310000000700001000A00000070000000704A
S315020033200001000A00000000000000000100000584
S3150200333000000020000000200100000420000022FE
S3150200334020000022000000034C400022D444002248
S3150200335000000003D4440022D444002200000003EB
S315020033600000006800000068000000900001090DDE
S3150200337000000068000000680000007800010B0DE4
S315020033800000006800000068000000270001020D2E
S315020033900000006800000068580000020001010DEC
S315020033A00000008000000080000000900001090873
S315020033B000000080000000800000007800010B0879
S315020033C000000080000000800000002700010208C3
S315020033D00000008000000080580000020001010881
S315020033E00000007000000070000000900001090A51
S315020033F000000070000000700000007800010B0A57
S315020034000000007000000070000000270001020AA0
S315020034100000007000000070580000020001010A5E
S3150200342000000000000000000000009001010905F4
S3150200343000000000000000000000007801010B05FA
S315020034400000000000000000000000270100020545
S315020034500000000000000000580000020100010503
S315020034600000002000000020000000900101090475
S3150200347000000020000000200000007801010B047B
S3150200348000000020000000200000002701000204C6
S315020034900000002000000020580000020100010484
S315020034A00000002200000022000000900001090333
S315020034B000000022000000220000007800010B0339
S315020034C00000002200000022000000270000020384
S315020034D00000002202000022580000020000010340
S315020034E0D4440022D44400225A0000020000010300
S315020034F006000000080000000300000005000000AE
S315020035000A00000001000200080010002000D4D4C6
S3150200351000000406362E342E30004275696C742083
S31502003520776974682052656E6573617320416476AB
S31502003530616E63656420466C657869626C652053CA
S315020035406F667477617265205061636B616765208F
S3130200355076657273696F6E20362E342E300049
S30902C9F040FFFFFFFFFF
S30902C9F044EFFFFFFF0B
S30902C9F0C0FFFFFFFD81
S30902C9F0C4FFFFFFFF7B
S30902C9F120000000001A
S30902C9F1240000000016
S70502002E4981
