S00D00007261696E792E73726563F4
S315020000002050002239490002E94700024349000212
S3150200001043490002434900024349000243490002A0
S31502000020000000000000000000000000434900023A
S31502000030434900020000000043490002434900020E
S3150200004011410002BD38000253390002673A00022C
S30D02000050853B0002D9320002D1
S3150200005802000000C8EA0E220000000000000000AC
S31502000068040000220000000000000000000000005A
S315020000802DE9F04F8BB01D461646884614981899EE
S315020000909FED1A0A4FF4D8720023DDE9169A4FF043
S315020000A0000B00F05DF89FED160A6C22002328462D
S315020000B0514600F055F89FED130A90220023304670
S315020000C0494600F04DF845F2100007AAC0F200209A
S315020000D0114603AB90E8F00045F20000C0F20020A2
S315020000E0F0C1194690E8F000F0C140461599CDE9F5
S315020000F000BB00F049F80BB0BDE8F08FCBF49B3C97
S31502000100288F283E2D138B3DF0B581B01846164632
S315020001100C4608999FED0E0A4FF4D8620023DDE9DA
S31502000120065700F01DF89FED0B0A4FF4D872002314
S315020001303046394600F014F89FED070A4FF4107264
S3150200014000232046294601B0BDE8F04000F008B879
S31502000150349FEA3C22EF153E74F6C63DD4D4D4D47D
S3150200016080B542F00FC000BF10F9012BD21A01EE82
S31502000170102AB8EEC11A20EE011AA1EC011A0FF0EC
S315020001800DC880BDD4D4D4D42DE9F04F8DB01E68ED
S315020001900296012E089053DB9768D0680790784341
S315020001A052680590504306970190D86804900C4611
S315020001B01799169E5D68D3F808A00023DDF818800B
S315020001C0049F09920A9500BF012D03932FDB00209D
S315020001D0009109992A4633460B90B34600F034F84B
S315020001E0BAF1010F1CDB059A089900FB02104FF0C9
S315020001F000095546079E0C901798009048464146BE
S3150200020052465B4600F020F80C9900FB0611204688
S315020002103A4604F0E8FC013D3C4409F10109EBD100
S315020002200B980A9D01301799A8425E46D0D1039BCE
S3150200023002980133019A8342089810440890C3D168
S315020002400DB0BDE8F08FD4D480B5DDF808C06BB12F
S31502000250022A0BDBA1F1010E00EE10EA013A01EED1
S31502000260102AB8EEC00AB8EE411A07E000EE101ADC
S3150200027001EE102AB8EEC00AB8EEC11ABCF1000FA0
S3150200028003EE100A80EE010A9FED112AB6EE001A5D
S31502000290B8EEC33A02FE011A31EE031A21EE000A43
S315020002A023B1B8FE400ABDEEC00A05E0B7EEC00AA9
S315020002B0BBFE400BBDEEC00B10EE100A01398842A0
S315020002C050EAB180BCF1000F18BF20EAE07080BD91
S315020002D00000000045F26000C2F20020704740F2C2
S315020002E06000C2F20220704741F66030C2F202207C
S315020002F0704742F22020C2F20220704742F62030B6
S31502000300C2F20220704743F2E010C2F202207047A6
S3150200031043F29030C2F2022070472DE9F04F89B0C5
S31502000320044641F6E470C0F2052041F6F472C0F2CA
S3150200033005224DF2F01901684AF2F010C2F20220CB
S31502000340C2F2082900EB010B41F6E871C0F2052161
S31502000350096846181168471841F6F071C0F205217E
S3150200036041F6EC72C0F2052209684518116800EBE5
S31502000370010A42F6106142F60C62C0F20621C0F290
S315020003800622096812684944089109EB020107919D
S3150200039042F60861C0F2062141F6E072C0F2052279
S315020003A0096812684944069145F260011044C2F296
S315020003B000214FF4D83204F016FC204600F054F81F
S315020003C043F2903042F6203143F2E012C2F20220AA
S315020003D0029043F2D050C2F20221C2F2022243F24A
S315020003E0DC58C2F20220CDE9032131463A462B46B9
S315020003F0C2F20228CDE900A8FFF742FE42F60460E7
S315020004004FF45852C0F2062059460068484404F098
S31502000410EAFB42F600604FF4D842C0F2062041469B
S315020004200068484404F0DFFB204600F08DF842F2F3
S31502000430202040F2600141F66032C2F202200090B2
S315020004404AF2DC10C2F20221C2F20222C2F20220F7
S31502000450CDE901210899DDE90632FFF755FE09B01B
S31502000460BDE8F08FD4D4D4D4B0B59EB04AF22021E0
S315020004700025C0F20021CDE90C154AF218214AF2F4
S31502000480F014C0F20021C2F202240028CDE90E4582
S31502000490096803914FF4C621CDE910454FF4D830CF
S315020004A00690CDE9041104F5D831CDE912150BD029
S315020004B045F29011204604F092FB45F640404FF477
S315020004C00771204404F08BFB45F640411AA02144F3
S315020004D0CDE9181545F2200190ED001FC0F200216A
S315020004E045F6F050204404F55852CDE916250A681F
S315020004F045F230010CABCDE91A0504F5A240C0F273
S315020005000021CDE91C0590200B9003A800904EF621
S31502000510C820C2F20E208DED071FCDE9144508242E
S31502000520CDE9014502F055FE01305FEA1FA01EB07B
S31502000530B0BD00BF00BF00BF00360000001B0000B8
S31502000540B00100006C000000B0B59CB042F2D87257
S315020005504DF2F014C0F2052242F2E071C2F2082412
S31502000560C0F205210C911168049104F558411291CB
S3150200057023A100250D951195CDE90E4591ED001F9C
S3150200058010941395159514948DED051F50B14FF4E3
S315020005901071204604F023FB04F534504FF4076132
S315020005A004F01DFB04F53451CDE916154FF4D8615C
S315020005B0099141F6F87104F54F50C0F20521CDE9D3
S315020005C018054FF4D8700A904FF410700B900A6811
S315020005D004A800904EF6C82042F20001C2F20E2094
S315020005E0C0F205210CABCDE91A450824CDE9014537
S315020005F002F0EFFD01305FEA1FA01CB0B0BD00BFE4
S315020006000044010000440100006C000000360000B6
S3150200061041F2F0510068C2F20A21C3070A6840EAB1
S315020006200200086008BF704741F2F4500121C2F28D
S315020006300A2001707047D4D482B000F019F901F093
S31502000640E7F990B1C11C4FF62051CFF6FF7108BFF2
S315020006506FF4FC6110F1030F84BF4FF60001CFF671
S31502000660FF7188B200F0CCFFFEE74EF6483043F247
S31502000670BC41C2F20E20C0F2062103F0D5FB20B126
S315020006804FF61F0000F0BCFFFEE701F0E5FB20B1CC
S315020006901F2000F0B5FF00BFFEE741F2F05441F221
S315020006A0F455C2F20A24C2F20A2500264EF6483052
S315020006B026602E70BFF35F8F41F20061C2F20E20F8
S315020006C0C2F20A2103F0F5FC38B140F2FF7000F0E5
S315020006D097FF00BF00BF00BFFEE74DF2C04841F2E0
S315020006E0012A4EF6483B41F20067C0F20108C0F209
S315020006F07A0AC2F20E2BC2F20A274FF0000900BF95
S31502000700504600BF00BF00BF297829B90138FBD186
S315020007102EE000BF00BF00BFBFF35F8F206810F45A
S31502000720010F25D126602E7041F2006646F6006062
S31502000730C2F20A26C2F20C20BFF35F8FB74250EA1A
S3150200074006865846314603F0B4FC00285AD041F2D8
S31502000750F05441F2012A4EF6483B3746C2F20A24C9
S315020007600026C0F27A0AC2F20E2B00BF00BF00BFFB
S3150200077026602E70BFF35F8F5846394609F101098C
S3150200078003F097FC4EF6483BC2F20E2B10B9B9F1B4
S31502000790080FB5D3584603F04CFC43F2BC41584609
S315020007A0C0F2062103F040FB48B1009600BF00BF2D
S315020007B0009840453CD2009801300090F8E74FF08F
S315020007C00009C4F8009085F8009041F20067BFF373
S315020007D05F8FC2F20A275846394603F06AFC08B907
S315020007E02FF073C0019600BF0198404503D20198CD
S315020007F001300190F8E741F200674FF00009C2F2BA
S315020008000A277DE7384601F033FB384601F068FFD8
S31502000810384601F079F841F2F05441F2012A4FF0DC
S3150200082000093746C2F20A240026C0F27A0A00BF3D
S315020008304EF6483BC2F20E2B62E7022818BF7047FB
S315020008404EF6103043F2A451C2F20E20C0F2062137
S3150200085003F009BA58B140F200010079C2F2002150
S3150200086008704CF20060C2F20E200121017070473E
S315020008702DE9F04F81B040F610108224C4F24000F8
S31502000880C4F240040025402180F8FC5380F8FC1392
S315020008900422026080F8FC53802380F8FC334EF277
S315020008A0C1762788C2F20E2627F01007278080F825
S315020008B0FC5380F8FC13826180F8FC5380F8FC3309
S315020008C0278827F48067278080F8FC5380F8FC137A
S315020008D0426180F8FC5380F8FC33278827F40077BE
S315020008E0278080F8FC5380F8FC13C26280F8FC5320
S315020008F080F8FC3320886FF3DF302080208840F0B8
S3150200090010002080208820F480602080208840F417
S3150200091000402080307848B943F29041C0F2062167
S3150200092007C91268904708B901203070208840F440
S31502000930007020804DF2C0400095C0F2010000BF59
S315020009400099814203D2009901310091F8E720888B
S315020009504AF68011C0F2030120F4007020800020C4
S31502000960009000BF00BF00BF009A8A4203D2009ADD
S3150200097001320092F8E721884FF60015C0F21505FC
S3150200098041F40071218000900098A84203D2009899
S3150200099001300090F8E7F7208DF800002088012149
S315020009A020F010002080208820F480602080684695
S315020009B000F056FF2088012140F010002080A92077
S315020009C08DF80000208820F010002080208840F456
S315020009D080602080684600F043FF2088012140F0B5
S315020009E01000208051208DF80000208820F0100091
S315020009F02080208840F480602080684600F030FF26
S31502000A002088012140F0100020802C208DF8000063
S31502000A10208820F010002080208840F4806020800A
S31502000A20684600F01DFF2088012140F0100020805A
S31502000A3082208DF80000208820F010002080208877
S31502000A4040F480602080684600F00AFF2088012179
S31502000A5040F010002080EC208DF80000208820F065
S31502000A6010002080208820F480602080684600F0F4
S31502000A70F7FE20880026012140F0100020808DF824
S31502000A800060208820F010002080208840F48060DA
S31502000A902080684600F0E4FE20884FF0020A012119
S31502000AA040F0100020808DF800A0208820F0100071
S31502000AB02080208840F480602080684600F0D0FEC6
S31502000AC02088012140F01000208003208DF80000CC
S31502000AD0208820F010002080208840F4806020804A
S31502000AE0684600F0BDFE2088012140F010002080FB
S31502000AF07A208DF80000208820F0100020802088BF
S31502000B0040F480602080684600F0AAFE2088012119
S31502000B1040F010002080C0208DF80000208820F0D0
S31502000B2010002080208820F480602080684600F033
S31502000B3097FE20881327012140F0100020808DF8AF
S31502000B400070208820F010002080208840F4806009
S31502000B502080684600F084FE2088012140F01000C3
S31502000B6020808DF80070208820F0100020802088D8
S31502000B7040F480602080684600F072FE20880121E1
S31502000B8040F010002080C1208DF80000208820F05F
S31502000B9010002080208820F480602080684600F0C3
S31502000BA05FFE2088012140F01000208041208DF850
S31502000BB00000208820F010002080208840F4806009
S31502000BC02080684600F04CFE2088012140F010008B
S31502000BD02080C5208DF80000208820F0100020809B
S31502000BE0208820F480602080684600F039FE208844
S31502000BF0012140F0100020808DF80060208820F04E
S31502000C0010002080208840F480602080684600F032
S31502000C1027FE2088012140F01000208028208DF830
S31502000C200000208820F010002080208840F4806098
S31502000C302080684600F014FE2088012140F0100052
S31502000C40208080208DF80000208820F0100020806F
S31502000C50208840F480602080684600F001FE2088EB
S31502000C60B027012140F0100020808DF80070208806
S31502000C7020F010002080208820F4806020806846C2
S31502000C8000F0EEFD2088012140F0100020808DF852
S31502000C900060208820F010002080208840F48060C8
S31502000CA02080684600F0DCFD2088012140F010001B
S31502000CB02080B1208DF80000208820F010002080CE
S31502000CC0208820F480602080684600F0C9FD2088D4
S31502000CD0012140F0100020808DF80070208820F05D
S31502000CE010002080208840F480602080684600F052
S31502000CF0B7FD2088012140F01000208011208DF8D8
S31502000D000000208820F010002080208840F48060B7
S31502000D102080684600F0A4FD2088012140F01000E2
S31502000D202080B4208DF80000208820F0100020805A
S31502000D30208820F480602080684600F091FD20889B
S31502000D40012140F0100020808DF800A0208820F0BC
S31502000D5010002080208840F480602080684600F0E1
S31502000D607FFD2088012140F010002080B6208DF8FA
S31502000D700000208820F010002080208820F4806067
S31502000D802080684600F06CFD2088012140F01000AA
S31502000D9020808DF800A0208820F010002080208876
S31502000DA040F480602080684600F05AFD20880121C8
S31502000DB040F01000208022208DF80000208820F0CC
S31502000DC010002080208840F480602080684600F071
S31502000DD047FD2088012140F010002080B7208DF8C1
S31502000DE00000208820F010002080208820F48060F7
S31502000DF02080684600F034FD2088012140F0100072
S31502000E002080C6208DF80000208820F01000208067
S31502000E10208840F480602080684600F021FD20880A
S31502000E20012140F010002080BE208DF800002088AD
S31502000E3020F010002080208820F480602080684600
S31502000E4000F00EFD2088012140F0100020808DF870
S31502000E500060208820F010002080208840F4806006
S31502000E602080684600F0FCFC20880427012140F01F
S31502000E70100020808DF80070208820F0100020805D
S31502000E80208840F480602080684600F0E9FC2088D3
S31502000E90012140F010002080E9208DF80000208812
S31502000EA020F010002080208820F480602080684690
S31502000EB000F0D6FC2088012140F0100020808DF839
S31502000EC00060208820F010002080208840F4806096
S31502000ED02080684600F0C4FC2088012140F0100002
S31502000EE02080F4208DF80000208820F01000208059
S31502000EF0208820F480602080684600F0B1FC2088BB
S31502000F00012140F0100020808DF80060208820F03A
S31502000F1010002080208840F480602080684600F01F
S31502000F209FFC2088012140F0100020808DF800608F
S31502000F30208820F010002080208840F480602080E5
S31502000F40684600F08DFC20884FF00F09012140F021
S31502000F50100020808DF80090208820F0100020805C
S31502000F60208840F480602080684600F079FC208862
S31502000F70012140F010002080E0208DF8000020883A
S31502000F8020F010002080208820F4806020806846AF
S31502000F9000F066FC2088012140F0100020808DF8C8
S31502000FA00060208820F010002080208840F48060B5
S31502000FB02080684600F054FC2088012140F0100091
S31502000FC020808DF80070208820F010002080208874
S31502000FD040F480602080684600F042FC20880E279C
S31502000FE0012140F0100020808DF80070208820F04A
S31502000FF010002080208840F480602080684600F03F
S315020010002FFC20884FF0080B012140F010002080B1
S315020010108DF800B0208820F010002080208840F44F
S3150200102080602080684600F01BFC2088012140F089
S315020010301000208017208DF80000208820F0100074
S315020010402080208840F480602080684600F008FCFA
S3150200105020884FF00A08012140F0100020808DF808
S315020010600080208820F010002080208840F48060D4
S315020010702080684600F0F4FB2088012140F0100031
S31502001080208040208DF80000208820F0100020806B
S31502001090208840F480602080684600F0E1FB2088CA
S315020010A0012140F01000208079208DF80000208870
S315020010B020F010002080208840F48060208068465E
S315020010C000F0CEFB2088012140F0100020804D2048
S315020010D08DF80000208820F010002080208840F43F
S315020010E080602080684600F0BBFB2088012140F02A
S315020010F01000208007208DF80000208820F01000C4
S315020011002080208840F480602080684600F0A8FB9A
S315020011102088012140F0100020808DF80070208880
S3150200112020F010002080208840F4806020806846ED
S3150200113000F096FB2088012140F0100020808DF8F7
S315020011400080208820F010002080208840F48060F3
S315020011502080684600F084FB2088012140F01000C0
S3150200116020801A208DF80000208820F010002080B0
S31502001170208840F480602080684600F071FB208859
S31502001180012140F0100020801D208DF800002088EB
S3150200119020F010002080208840F48060208068467D
S315020011A000F05EFB2088012140F0100020808DF8BF
S315020011B00090208820F010002080208840F4806073
S315020011C02080684600F04CFB2088012140F0100088
S315020011D02080E1208DF80000208820F01000208079
S315020011E0208820F480602080684600F039FB208841
S315020011F0012140F0100020808DF80060208820F048
S3150200120010002080208840F480602080684600F02C
S3150200121027FB2088012140F0100020801B208DF83A
S315020012200000208820F010002080208840F4806092
S315020012302080684600F014FB2088012140F010004F
S3150200124020801F208DF80000208820F010002080CA
S31502001250208840F480602080684600F001FB2088E8
S31502001260012140F0100020808DF800A0208820F097
S3150200127010002080208840F480602080684600F0BC
S31502001280EFFA2088012140F01000208010208DF80E
S315020012900000208820F010002080208840F4806022
S315020012A02080684600F0DCFA2088012140F0100018
S315020012B0208005208DF80000208820F01000208074
S315020012C0208840F480602080684600F0C9FA2088B1
S315020012D0012140F01000208032208DF80000208885
S315020012E020F010002080208840F48060208068462C
S315020012F000F0B6FA2088012140F010002080342048
S315020013008DF80000208820F010002080208840F40C
S3150200131080602080684600F0A3FA2088012140F010
S315020013201000208043208DF80000208820F0100055
S315020013302080208840F480602080684600F090FA81
S315020013402088012140F0100020808DF800A020881E
S3150200135020F010002080208840F4806020806846BB
S3150200136000F07EFA2088012140F0100020808DF8DE
S315020013700080208820F010002080208840F48060C1
S315020013802080684600F06CFA2088012140F01000A7
S31502001390208009208DF80000208820F0100020808F
S315020013A0208840F480602080684600F059FA208840
S315020013B0012140F01000208033208DF800002088A3
S315020013C020F010002080208840F48060208068464B
S315020013D000F046FA2088012140F0100020803720D4
S315020013E08DF80000208820F010002080208840F42C
S315020013F080602080684600F033FA2088012140F0A0
S31502001400100020808DF80090208820F010002080A7
S31502001410208840F480602080684600F021FA208807
S31502001420012140F010002080F4208DF80000208871
S3150200143020F010002080208820F4806020806846FA
S3150200144000F00EFA2088012140F0100020808DF86D
S315020014500060208820F010002080208840F4806000
S315020014602080684600F0FCF92088012140F0100037
S3150200147020808DF80060208820F0100020802088CF
S3150200148040F480602080684600F0EAF92088012155
S3150200149040F0100020808DF80090208820F0100087
S315020014A02080208840F480602080684600F0D8F9C9
S315020014B02088012140F01000208036208DF800009F
S315020014C0208820F010002080208820F48060208070
S315020014D0684600F0C5F92088012140F010002080FE
S315020014E08DF800B0208820F010002080208840F47B
S315020014F080602080684600F0B3F92088012140F020
S31502001500100020803A208DF80000208820F010007C
S315020015102080208820F480602080684600F0A0F9B0
S315020015202088012140F01000208066208DF80000FE
S31502001530208820F010002080208840F480602080DF
S31502001540684600F08DF92088012140F010002080C5
S3150200155021208DF80000208820F0100020802088AD
S3150200156020F480602080684600F07AF92088012104
S3150200157040F01000208011208DF80000208820F015
S3150200158010002080208820F480602080684600F0C9
S3150200159067F9208840F010002080009600BF00BF47
S315020015A00098A84203D2009801300090F8E729205B
S315020015B08DF80000208842F2C0750121C0F20905AB
S315020015C020F010002080208820F480602080684669
S315020015D000F046F9208840F010002080009600BFF7
S315020015E00098A84203D2009801300090F8E7002044
S315020015F000F006F801B0BDE8F08FD4D4D4D4D4D428
S3150200160070B5F821FC2301EA102100F01F0600F054
S315020016101C0241EA503103EAD000F3004FF4A07EE7
S315020016204CF20166C2F20E2643EA9202B31C00BFD6
S3150200163003F8021C03F8010C03F8032B0FF009C090
S3150200164082250020002140F23F1240F2DF13C4F24D
S31502001650400540F2DF1600F01EF828884CF20164BD
S31502001660C2F20E2420F010002880288840F4806000
S31502001670288000BF00BF00BF4FF47071204600F003
S31502001680EFF818B9002EA6F10106F5D1288840F028
S315020016901000288070BD2DE9F04383B082242A27EA
S315020016A0C4F240048DF801708946012127889846C4
S315020016B0164627F0100727802588074625F48060FE
S315020016C020800DF1010000F0CBF82088012140F0C6
S315020016D010002080380A8DF80200208820F01000C1
S315020016E02080208840F4806020800DF1020000F006
S315020016F0B7F82088012140F0100020808DF8037091
S31502001700208820F010002080208840F4806020800D
S315020017100DF1030000F0A4F82088012140F010002A
S315020017202080300A8DF80400208820F010002080E6
S31502001730208840F48060208001A800F091F820887B
S31502001740012140F0100020808DF80560208820F0ED
S3150200175010002080208840F4806020800DF1050072
S3150200176000F07EF82088012140F0100020802B2016
S315020017708DF80600208820F010002080208820F4B2
S31502001780806020800DF1060000F06AF820880121B1
S3150200179040F0100020804FEA19208DF807002088BB
S315020017A020F010002080208840F4806020800DF117
S315020017B0070000F055F82088012140F01000208033
S315020017C08DF80890208820F010002080208840F4B0
S315020017D08060208002A800F043F82088012140F0B2
S315020017E0100020804FEA18208DF80900208820F08A
S315020017F010002080208840F4806020800DF10900CE
S3150200180000F02EF82088012140F0100020808DF88B
S315020018100A80208820F010002080208840F4806012
S3150200182020800DF10A0000F01BF82088012140F00B
S31502001830100020802C208DF80B00208820F010004C
S315020018402080208820F4806020800DF10B0000F0BB
S3150200185007F8208840F01000208003B0BDE8F0832E
S315020018602DE9F04700284FF000064AD00D46002920
S3150200187047D04EF2C1770446C2F20E2743F2904099
S31502001880C0F206203978D0F80090D0F808A039B90D
S31502001890DAF80020416848469047B0B9012038700E
S315020018A04CF2006740F20008C2F20E27C2F200288C
S315020018B0002007233870022088F800004846DAF82C
S315020018C0086021462A46B04708B1064619E04BF29F
S315020018D0C040CFF6B37000BF397819B9002800F1BD
S315020018E00100F9D13878012805D198F800000128BD
S315020018F003D1002605E0142601E04FF4967600F0A7
S315020019006AF83046BDE8F0872DE9F04F81B005460A
S3150200191082240020782140F23F1240F26713C4F27B
S3150200192040044FF0000BFFF7B6FE208805F10108D0
S315020019304FF4A0791C2620F010002080208840F465
S31502001940806020804CF6C110C2F20E200230009058
S315020019504FF0000C4146009F49F001E00B463A4623
S3150200196013F8015C13F8024B04F0F80006EAD50AF4
S3150200197040EA541002F8020C4AEA441002F8010C3A
S31502001980C5F3820040EAC50002F8030B0FF019C046
S315020019900CF1010C07F57077BCF1080F01F5207107
S315020019A0DAD14CF6C1104FF4F051C2F20E20FFF715
S315020019B057FF30B9BBF1E80F0BF1080B08F5A05839
S315020019C0C6D38221C4F24001088840F01000088084
S315020019D001B0BDE8F08FF0B581B04EF2C17543F2A9
S315020019E09046C2F20E25C0F2062628783468B768F9
S315020019F0012804D1796920468847002028703A6870
S31502001A0071682046904708B90120287001B0F0BDE0
S31502001A10B0B582B040F60C5240F600050220C4F280
S31502001A204002C4F24005C4F24000002111704FF09A
S31502001A30400C82F800C004242C606C601170802473
S31502001A401470038823F001030380038843F0020322
S31502001A500380117082F800C05423C5F88C31C5F892
S31502001A60883111701470B0F8C02042F00802A0F854
S31502001A70C020B0F8C02042F00402A0F8C0200288BC
S31502001A8022F001020280028842F0020202804DF236
S31502001A90C0420191C0F20102019B934203D2019B13
S31502001AA001330193F8E7028822F0020202800191D3
S31502001AB042F6DF61019A8A4208D842F6E06100BF27
S31502001AC0019A01320192019A8A42F9D3018841F0C0
S31502001AD001010180002001904AF68010C0F2030045
S31502001AE00199814203D2019901310191F8E70DF181
S31502001AF0030143F20A0000F050F810B14FF0FF3430
S31502001B0008E00DF1020143F20B0000F046F820B1A5
S31502001B106FF00104204602B0B0BD9DF803006FF0DD
S31502001B2002045628F6D19DF802004028F2D1002080
S31502001B3001904EF65F200199814207D84EF6602049
S31502001B4001990131019101998142F9D342F614605A
S31502001B506FF00304C0F20620851C00BF00BF00BF61
S31502001B6035F8020C297800F03BF80028D2D1013C66
S31502001B70043514F1FE00F3D10020019044F6807082
S31502001B80C0F2120000BF00BF0199814203D201993F
S31502001B9001310191F8E70024BCE7B0B50C460546D1
S31502001BA000F03AF8782000F067F878B9302000F0B3
S31502001BB063F858B9E8B200F05FF838B900F0C8F82F
S31502001BC000F02AF8792000F057F820B1012400F03D
S31502001BD0BFF82046B0BD00F0E7F820700024F6E713
S31502001BE0B0B50C46054600F017F8782000F044F828
S31502001BF038B9280A00F040F818B9E8B200F03CF803
S31502001C0020B1012400F0A4F82046B0BD204600F021
S31502001C1033F80446F6E7D4D482B0C220C4F24000B8
S31502001C20018841F008010180018841F00401018028
S31502001C300021009100BF00BF009AB2F5FA6F04DAE4
S31502001C4000BF009A01320092F6E7028822F00802EB
S31502001C50028000BF00BF00BF01910199B1F5FA6F82
S31502001C6003DA00BF01990131F6E7018821F0040188
S31502001C70018002B07047D4D410B581B04FF0080E7F
S31502001C80C221C4F2400107224FF0000C00BF00BF80
S31502001C900B8820FA02F423F0080364F3C3030B80D3
S31502001CA0CDF800C000BF00BF009BB3F5FA6F07DA9C
S31502001CB000BF009B01330093F6E700BF00BF00BFE1
S31502001CC00B8843F004030B80CDF800C000BF00BFB1
S31502001CD0009BB3F5FA6F07DA00BF009B013300934E
S31502001CE0F6E700BF00BF00BF0B88013A23F00403EA
S31502001CF00B800FF033C8088840F0080008800020E7
S31502001D00009000BF00BF00BF009AB2F5FA6F04DA76
S31502001D1000BF009A01320092F6E70A8842F00402F6
S31502001D200A8000BF00BF00BF00900098B0F5FA6FAE
S31502001D3003DA00BF00980130F6E748880A88C0F344
S31502001D40C00022F004020A8001B010BDD4D4D4D45B
S31502001D5082B0C220C4F24000018821F0080101804D
S31502001D60018841F0040101800021009100BF00BFFB
S31502001D70009AB2F5FA6F04DA00BF009A01320092B5
S31502001D80F6E7028842F008020280019100BF00BF16
S31502001D900198B0F5FA6F04DA00BF0198013001909C
S31502001DA0F6E702B07047D4D4B0B583B0C2214FF083
S31502001DB0080EC4F24001002207234FF0010C0888E6
S31502001DC040F00800088000200C8844F004040C80CF
S31502001DD0009200BF00BF00BF009CB4F5FA6F07DA9D
S31502001DE000BF009C01340094F6E700BF00BF00BFAD
S31502001DF04C880D8825F004050D800CFA03F5019236
S31502001E002407019C48BF2843B4F5FA6F08DA00BFDD
S31502001E10019C01340194019CF6E700BF00BF00BF9C
S31502001E20013B0FF02FC80A8842F008020A800A888E
S31502001E3042F004020A8000220292029AB2F5FA6F76
S31502001E4003DA00BF029A0132F6E70A88C0B222F02C
S31502001E5004020A8003B0B0BD40F2080043F24C41CE
S31502001E60C2F20020C0F2062101F0CAB9D4D4D4D4F9
S31502001E702DE9F04F81B02DED088BC0B04EF2C47142
S31502001E808246C2F20E210C684CB104EB44004EF2BB
S31502001E90C871C200C2F20E210AA802F0A4FE029480
S31502001EA000240994FEF716FA834600F5903700F5EA
S31502001EB010454AF6AB284FF0FC0C00BF00BF00BF2E
S31502001EC0C4EB041108940901C02289B242F001E070
S31502001ED001FB08F105A8C90D80E8A00801EB810104
S31502001EE04FEA8119002100BF604601EB810C4FEADF
S31502001EF08C1384469BB2013103FB08F309EBD353DF
S31502001F001AF813000AEB430300F01C06C4005B78C0
S31502001F10E4B244EA96060136C3F3410240EA0320DC
S31502001F2074080CEAD0007F2C4FF07F04104438BFAF
S31502001F3074080130621E0BF8012B42087F2A03F057
S31502001F40F8024FF07F0642EA531238BF4608501C89
S31502001F50721E430805F8012B7F2B4FF07F0338BF13
S31502001F604308581E07F8010B0FF043C0089C069F52
S31502001F700134059DDDF81CB0C037C02C05F1C00543
S31502001F800BF1C00B9CD100204FF0000BFEF7C5F9F8
S31502001F90FEF7A5F90546FEF7A7F90646FEF7A9F9E3
S31502001FA002460C232846314609ACCDE900B400F0BE
S31502001FB033F9FEF7A3F90546FEF7A5F90646FEF73D
S31502001FC0A7F9024606230120CDE900042846314638
S31502001FD000F022F90998002800F006814EF68801E1
S31502001FE00DF1E809C2F20E21431E01F11802002189
S31502001FF0CDE904320890CDE9063200BF00BF00BF2A
S315020020004A1C039282422BD201EB41014EF6880012
S31502002010C2F20E2000EBC10EDDE9068100BF00BF51
S3150200202091ED040A9EED041AB4EE410AF1EE10FA9D
S3150200203011DD7546484695E8981C80E8981C0B46C3
S31502002040F44693E8F5008CE8F5004A468C4692E899
S31502002050F9008CE8F900B8F1010801F11801DFD1A5
S3150200206008980699039A013906910799824201F165
S31502002070180107911146C3D14FF000089FED628AFD
S315020020804FF0010A4FF0000B08EB48004EF68801AC
S31502002090C2F20E2108F1010801EBC005687D012894
S315020020A02CD00BEB4B004EF2C871C2F20E210BF193
S315020020B0010B01EBC00C294691E8DD008CE8DD003E
S315020020C0089880451AD2DDE9049400BF00BF00BF1C
S315020020D0607D70B9287D217D81420AD1284621463C
S315020020E000F0B0FAB4EE480AF1EE10FAC8BF84F86E
S315020020F015A0B9F1010904F11804E9D1089880453F
S315020021000AD20498BBF1080FA0F1010004900598C9
S3150200211000F118000590B7D34EF2C470BBF1000F60
S31502002120C2F20E20C0F800B065D000279FED378AB4
S315020021309FED379A9FED37AADDF8088000BF00BFF2
S31502002140B8F1000F4CD007EB47004EF2C871C2F24D
S315020021500E214FF0FF3401EBC0054FF0000A0AAE24
S31502002160B0EE48BA95F81490307D81450BD12846D9
S31502002170314600F067FAB4EE4B0AF1EE10FA5AEA6B
S31502002180C48430FE0BBAB8F1010806F118060AF14A
S31502002190010AE9D1B4F1FF3FDDF8088020DD04EB46
S315020021A044000AA995ED003F01EBC00049F69A11D9
S315020021B0C3F6996190ED001F31EE610E43F23331A1
S315020021C0C3F6337133EE410E85ED001F90ED040A1E
S315020021D095ED041A20EE090AA1EE0A0A85ED040A13
S315020021E001375F45ACD108E04EF2C470C2F20E2050
S315020021F0C0F800B001E04FF0000B584640B0BDEC0D
S31502002200088B01B0BDE8F08FCDCCCC3ECDCC4C3E98
S315020022109A99993E3333333F2DE9F04F81B02DED34
S31502002220108B90B000EE103A03FB03F5B8EE400AAD
S315020022309FEDD51A4EF6880ACDE9050181EE008A90
S315020022404FEA850B02EB85000027B7EE009A9FED59
S31502002250CFBAB3EE00AADFEDCEDAF0EE00AADFEDDA
S31502002260CD9AB6EE00FADFEDCCBAC2F20E2AFBEE3A
S3150200227000CA990001910792089300BF00BF00BFF0
S3150200228007FB03F100EE107A099100210646039737
S31502002290B8EE400A8DED0E0A0292049000BF00BF0E
S315020022A009980C9401EB000907980D91002700EBA1
S315020022B08900314690ED00DA032040F001E001206A
S315020022C00A9600BF00BF00BF91ED000A5944B4EE62
S315020022D04D0AF1EE10FA50EAC78700F1010030FE0E
S315020022E00DDA0FF00FC804261446B0EE4BCA0B9255
S315020022F094ED000A30EE4D0A02F090FD3CEE00CA63
S31502002300013E5C44F4D10698C9EE0CEA00EB89085A
S31502002310059800EB89090D9800EE100A0026F8EEE2
S3150200232040FA0C9CF8B20F9006FB05F0B0EE491A83
S3150200233008EB800090ED000AB4EE4A0AF1EE10FABC
S315020023400EDCB4EE6C0AF1EE10FAB0EE4B1A07D4BC
S31502002350B1EE400A02F062FD30EE090A89EE001A79
S315020023602EEE81DAB4EE6DDAF1EE10FA00F1488162
S31502002370B700B0EE49EA07FB05F009EB800090EDE5
S31502002380000AB4EE4A0AF1EE10FA0EDCB4EE6C0A5A
S31502002390F1EE10FAB0EE4BEA07D4B1EE400A02F0C3
S315020023A03DFD30EE090A89EE00EA47F00100F0EE43
S315020023B0498A684309EB800090ED000AB4EE4A0AA6
S315020023C0F1EE10FA0EDCB4EE6C0AF1EE10FAF0EE53
S315020023D04B8A07D4B1EE400A02F020FD30EE090A1C
S315020023E0C9EE008A47F00200B0EE6ACA684309EBFA
S315020023F0800090ED000AB4EE4A0AF1EE10FA10DC03
S31502002400B4EE6C0AF1EE10FAB0EE4BCA09D4B1EE94
S31502002410400A02F003FD30EE090A89EE000A30EEA8
S3150200242000CABEEE001A47F00300B0EE410A684346
S31502002430A8EEAA1A9DED0E2AAEEE2A0A09EB800034
S3150200244031EE021A30EE2F0A68EE018A90ED001A7A
S3150200245028EE00EAB4EE4A1AF1EE10FAB0EE6A0A73
S3150200246010DCB4EE6C1AF1EE10FAB0EE4B0A09D497
S31502002470B1EE410A02F0D2FC30EE090A89EE000AF8
S3150200248030EE000A2A9843F2FC11C0F206212CEE25
S315020024900C1A00EB400020EE000A9FED695AB0EEDE
S315020024A0684A01EBC000B7EE046A00EBC6002B9A3D
S315020024B04FF6FF7190ED002A90ED013A21EE021AD5
S315020024C024EA0101B0EE4E2A20EE033AA1EE4F2A8B
S315020024D0A1EE0FEAA3EE4F4AE3EE0F8A22EE052A99
S315020024E0B4EE692AF1EE10FAB5EE402A28EE863AE3
S315020024F039FE820A24EE062AF1EE10FA48BFB0EE41
S315020025004B0AB4EE6B2AF1EE10FAB5EE402A3BFE08
S31502002510821A2EEE052AF1EE10FA48BFB0EE4B1AD9
S31502002520B4EE692AF1EE10FAB5EE402A39FE822A95
S31502002530F1EE10FAB4EE6B3A48BFB0EE4B2AF1EE6A
S3150200254010FAB5EE403A3BFE833AF1EE10FA48BF76
S31502002550B0EE4B3A10680F9B182801EB03041FD20A
S3150200256000EB40000AEBC00080ED000A80ED011A84
S3150200257080ED022A80ED033A80ED04DA44611068A8
S31502002580013010603CE000BF000040430000000044
S315020025903333B33E00809F4300006F4300BF00BF4A
S315020025A017210AF1280041F001E00021012200BFB3
S315020025B001EB410390ED004A18300AEBC30393ED99
S315020025C0045AB4EE454AF1EE10FA52EA418101325A
S315020025D00FF013C001EB41000AEBC00090ED044A74
S315020025E0B4EE4D4AF1EE10FA0AD580ED000A80EDFE
S315020025F0011A80ED022A80ED033A80ED04DA446185
S315020026000136032E7FF490AE0D99089B01310A9E86
S315020026100B9A994206F1040602F104027FF440AED7
S31502002620039F049801370199029A9F4208440A447B
S315020026307FF426AE10B0BDEC108B01B0BDE8F08F72
S315020026405555D53F90ED001A91ED002AB4EE421A87
S3150200265090ED013AF1EE10FA91ED014A90ED026A1F
S31502002660B4EE443A91ED025A31FE020A90ED037A33
S31502002670F1EE10FAB4EE465AD1ED030A73FE042ABD
S31502002680F1EE10FAF4EE470A76FE051AF1EE10FAAA
S3150200269071EEC01A9FED110AF5EE401A77FE203A46
S315020026A0F1EE10FA19D973EEE22AF5EE402AF1EEAE
S315020026B010FA98BF704736EE410A35EE421A30EEEE
S315020026C0C42A37EE433A21EE021A00EE031A21EE2D
S315020026D0A20A31EE401A80EE010A7047000000009D
S315020026E02DE9F04F81B02DED048B92B04EF2C471FC
S315020026F00490C2F20E210A680392002A00F05E815B
S3150200270004980024411C0D919FEDAF8AB6EE009A03
S3150200271000213038029000BF059101EB41004EF2D4
S31502002720C8714FF00008C2F20E214FF0010C01EB06
S31502002730C002069292ED030A92ED001ABDEEC00A9D
S3150200274092ED012ABDEEC11A117DBDEEC22A10EE2E
S31502002750107A92ED020A43F22C2211EE106A12EE60
S31502002760103AC0F2062207EB8700BDEEC00A32F825
S3150200277011A00D9906EB80100C9003EB8300CDE9B6
S315020027800F7301EB46010B9110EE101A0E9101EB3D
S3150200279080120A924FEA1A2206EB80100990881BD1
S315020027A0F91A01300890481C079000BF00BF00BF0D
S315020027B00E98864231DC08EB88000C9B10990D9F1F
S315020027C0A3EB8010414407EB400B089840F001E070
S315020027D001EB81030F98A0EB08050B9800EBC319D8
S315020027E0304600BF00BF00BFEF2906D88309042B7D
S315020027F09CBF09F801AC89F80020EF2D06D88309A1
S31502002800042B9CBF0BF801AC8BF8002001300BF1B6
S31502002810020B09F102090FF019C8DDE90F1088420F
S315020028202DDC0A980999A0EB080001EB08070E991E
S315020028300D9D08EB0603A1463446A1EB080605EBFF
S315020028404001079840F001E005EB47059809B309F6
S3150200285026464C46109F00BF04289EBFEF2F05F860
S3150200286001AC2A70042B05F520759EBFEF2F01F8E7
S3150200287001AC0A70013701F520710FF013C85FEA47
S31502002880CC704FF001084FF0000C91D1069FB0EECC
S31502002890491A46F2676343F24C2897ED040AC6F2D8
S315020028A06663A0EE081AC0F20628BDEEC10A10EE53
S315020028B0100A6328A8BF632050FB03F18A1002EBBB
S315020028C0D17151FB03F2930803EBD2723B7D02EB0B
S315020028D08202A1EB420201EB810130328DF84420E3
S315020028E0A0EB410030308DF845002520ADF84600BA
S315020028F058F8230002F088F900EB4001182000EB9B
S315020029004107B819B0F5A07F4FF49470C8BFA0EB89
S315020029104106109A0220092AB146C8BF6FF0090083
S3150200292000EB020CF21902980CEB8C03DB0103EBB1
S3150200293042026346A2EB81020CF10801851800BF30
S31502002940012F0FDB47F001E02A464E4600BF00BFCB
S31502002950EF2B03D8B009042898BF1480013602323F
S315020029600FF00BC08B4203F1010305F52075E7D189
S31502002970069F09F101060CF10109049D387D3146D5
S315020029804A46CDF800A058F82030284600F020F834
S31502002990387D58F8200002F037F900EB40004A462D
S315020029A011ABCDF800A006EB4001284600F010F866
S315020029B005990398013181427FF4AEAE12B0BDECA7
S315020029C0048B01B0BDE8F08F0000C842D4D4D4D441
S315020029D02DE9F04F81B01E78002E00F0F38002EB55
S315020029E08207DDF828C0FF01072507EB41070744E8
S315020029F04FEA1C2007F10109A6F13007092F37D843
S31502002A0006EB860743F2BB36C0F206263744A7F129
S31502002A10F00645E000BF00BF7C1845F001E04FF02C
S31502002A20000A4FEA941BC846F45D24FA0AF4E40746
S31502002A300AD0BBF1040F07D802EB0A04EF2C9CBFA5
S31502002A4008F801CC88F800000AF1010A08F5207896
S31502002A500FF017C0013709F10209052FDCD11E78E4
S31502002A60DDF80090063109F10C09002EC4D1A9E067
S31502002A70A6F14107192F1DD843F2BB36C0F206262E
S31502002A803236DFE807F00D2012206920205B3A205B
S31502002A9075203356418A836E4891627C2C984F2565
S31502002AA001330027CDF80090B6E743F2AC36C0F208
S31502002AB00626F5E7252E06D143F2BB37C0F20627D6
S31502002AC007F18706ECE743F2A736C0F20626E7E7E8
S31502002AD043F2BB37C0F2062707F18206E0E743F26C
S31502002AE0BB37C0F2062707F17306D9E743F2BB37B5
S31502002AF0C0F2062707F14606D2E743F2BB37C0F219
S31502002B00062707F13C06CBE743F2BB37C0F206279E
S31502002B1007F14B06C4E743F2BB37C0F2062707F1BB
S31502002B205F06BDE743F2BB37C0F2062707F17D0613
S31502002B30B6E743F2B636C0F20626B1E743F2BB3732
S31502002B40C0F2062707F13706AAE743F2BB37C0F2FF
S31502002B50062707F16906A3E743F2B136C0F2062655
S31502002B609EE743F2BB37C0F2062707F1500697E706
S31502002B7043F2BB37C0F2062707F1410690E743F25C
S31502002B80BB37C0F2062707F16E0689E743F2BB3769
S31502002B90C0F2062707F15A0682E743F2BB37C0F2B4
S31502002BA0062707F155067BE743F2BB37C0F2062735
S31502002BB007F1640674E743F2BB37C0F2062707F152
S31502002BC078066DE701B0BDE8F08F80B5FDF734FDFC
S31502002BD0002080BD704780E80E008A6A0021B1EBB2
S31502002BE0127F07D180B500F007F800285FEA1F912F
S31502002BF0BDE880400846704790E80E00002B5FEA69
S31502002C000F93002A48F29F6208BF0233CB60C0F2DC
S31502002C100102016800BF00BF4B681B0703D5002AEB
S31502002C20A2F10102F8D14A68120726D44A6A436819
S31502002C30002B5FEA1F9312F0020F5FEA1F92934284
S31502002C401BD04A6A836802F00102002B5FEA1F93D7
S31502002C50934212D00222CA61016845F25352CA63F4
S31502002C6000220168C0F61F720A6401684A6401689C
S31502002C708A640068C264002000E0FF2040B2704708
S31502002C80F0B581B0069F092F3ADA1C460B46164666
S31502002C90054600214FF0FF321846FFF79BFF002939
S31502002CA03DD12968012F08612868066211DB0026DA
S31502002CB0D4E900013246FFF78DFF91B92968013F39
S31502002CC001EBC60106F1010604F10804C1F8800011
S31502002CD0EED12868816801F00C010131816001B0F2
S31502002CE0F0BD43F2712043F2843243F25C23C0F218
S31502002CF00620C0F20622C0F20623A42101F02CFD12
S31502002D0043F2712043F2843243F2E823C0F20620F2
S31502002D10C0F20622C0F20623942101F01DFD43F201
S31502002D20712043F2843243F26E33C0F20620C0F2BF
S31502002D300622C0F20623982101F00EFD70470168B3
S31502002D408A6802F00C0202328A600068416849070A
S31502002D505CBF41685FEAC16101D5002070474168E6
S31502002D6009065CBF41685FEAC151F6D44068C0F308
S31502002D7040107047D0F800C0012ADCF8080000F0C5
S31502002D80040308BF0833022A08BF00F00C0303F04D
S31502002D900800012908BF0430022953EA00810020F5
S31502002DA0CCF80810704780B50368986AD3F800E03B
S31502002DB0814201D101200FE0FF2380EA010CCFF20C
S31502002DC000031CEA030F5FEA1F9311F0006F5FEA2C
S31502002DD01F9141EAD06018408EEA02010023B3EB4C
S31502002DE0117F07D1C2F30751CEF307528A4238BF89
S31502002DF0002080BD002080BD4EF66830C2F20E2053
S31502002E007047002070470020704780B5012001F00E
S31502002E1087FF08B10021017080BDD4D4D4D4D4D4A4
S31502002E200278014600BF00BF12B920BF0A78FBE74D
S31502002E300020013A0A70704701780131017040BFE3
S31502002E400020704770477047B0B50446407C0128A1
S31502002E5008BFB0BD204602252574FFF770FF002883
S31502002E6018BF00256574E06ABDE8B040FFF7E4BF0D
S31502002E702DE9F04381B04EF66C381E46C2F20E289A
S31502002E800D460446D8F80070002F174604D1FFF706
S31502002E90B3FFC8F80000C8B34EF67039C2F20E2965
S31502002EA0D9F8000020B9FFF7B0FFC9F8000068B3EF
S31502002EB0DDE908230020C4E90C702946C4E90E6046
S31502002EC040F20220A4F841002046FFF784FEE8B152
S31502002ED0FFF79BFFE062C8B104F110001C2101F06C
S31502002EE07EFED8F80000FFF78CFF4EF67430C2F271
S31502002EF00E2001680460D8F80000E160FFF783FF46
S31502002F00D9F80000FFF798FF002001E04FF0FF30EC
S31502002F1001B0BDE8F08310B50446FFF76DFE10B1AF
S31502002F204FF0FF3010BDE06B00285FEA1F9120468C
S31502002F300A46FFF71FFF002010BD10B50446C06BFE
S31502002F40002800F10100E06301D0002010BD2046F8
S31502002F50FFF7E1FF0028F8D0E06B0138E0634FF09D
S31502002F60FF3010BDD4D4D4D4F0B581B004460546A2
S31502002F7014F8100F00284ED0022803D0012847D19A
S31502002F80002953D0686A012813DB0026002700BFF8
S31502002F9095F84210F940C90707D0D5E907018059CB
S31502002FA051F8271000F0CAF9686A013708368742D5
S31502002FB0EEDBE86A4FF0FF324FF0FF33FFF730FFE8
S31502002FC000280CD501206874297C022907D168746F
S31502002FD04FF0FF32E86A4FF0FF33FFF721FFA96A8D
S31502002FE02846FFF730FFE86B38B10138E86304D1B1
S31502002FF0012101222846FFF7BDFE687C70B1687C7C
S31502003000022802D12846FFF799FE2846FFF783FFDA
S315020030104FF0FF3503E06FF0010504E000251C21A7
S31502003020204601F0DCFD284601B0F0BD0125FAE795
S315020030302DE9F04F83B0002900F09B80002B00F0B1
S31502003040A88004460C98002800F0B380254615F89F
S31502003050107F17BB0026267404F11406DDE90DEC79
S3150200306020620EC69607C4E909EC12D144F64377EC
S315020030700E68C3F25017BE420BD1BEF1030F13DB2B
S31502003080D4E90C7C57EA0C060ED0A66B8068B042D7
S3150200309008D91C21284601F0A2FD4FF0FF3003B0EB
S315020030A0BDE8F08FC3E9047C02EB01080F1D47451A
S315020030B05DD23878052858D002280AD00128E8D1EE
S315020030C0D7E901122046FFF76EFE0028E1D00C3741
S315020030D0EDE707F1040B5FEA0B70DAD178787E88A8
S315020030E00290606A012824DBE169024600BF00BF44
S315020030F00B781B07CDD1013A01F10801F8D14FF047
S31502003100000A4FF0000900BF94F8411021FA09F1B4
S31502003110C90708D0D4E9070150F80A0051F8291066
S3150200312000F00BF9606A09F101090AF1080A814502
S31502003130EADB2046FFF701FF0028AAD1029846EAF9
S315020031400046012020742046A16A4FEA8609FFF74D
S3150200315079FEE369606A0090204659464A46FFF7BF
S315020031608FFD07EB8600071DA1E704379FE70020C6
S3150200317095E743F2203043F2523243F2B323C0F2D0
S315020031800620C0F20622C0F2062340F2822101F096
S31502003190E3FA43F2203043F2523243F20E33C0F2E4
S315020031A00620C0F20622C0F2062340F2832101F075
S315020031B0D3FA43F2203043F2523243F2CB23C0F227
S315020031C00620C0F20622C0F206234FF4217101F056
S315020031D0C3FA70B584B008AD064631CD8DE831002C
S315020031E03046FFF725FF002806D40121304604B0F9
S315020031F0BDE87040FFF7B8BE4FF0FF3004B070BDB7
S31502003200F0B583B0EFF31086012282F3108843F201
S315020032100002C4F220020D4607461E201368012151
S3150200322023F480331360126801F09BFA86F3108848
S315020032300021B8686E7BAC7BC4F2140100680022E0
S315020032400023CDE90064FFF713FE08B1032041E035
S3150200325095F90C102A7A4EF200100029CEF20000DF
S315020032604FEA021203D4431883F8002306E04EF60F
S31502003270145601F00F03CEF200069A554EF6D832D6
S315020032800126C2F20E2242F821704CF20032C4F23A
S31502003290000252F8213023F4803342F8213052F8EA
S315020032A021204A0901F01F01BFF35F8F00EB820361
S315020032B006FA01F1C3F8801140F822107D602868F1
S315020032C0F86068687861002044F25451C5F24D21D5
S315020032D03861396003B0F0BDB0B582B04FF07041CD
S315020032E0EFF3038001EB00604EF6D8328115C2F28D
S315020032F00E2204165558A9680868FFF7A5FDE86866
S3150200330068B1286910B10168019100E001A86969F4
S315020033100160E9688847286908B1019901604CF2A1
S315020033200030C4F2000050F8241021F4803140F835
S31502003330241050F8240002B0B0BD704770472DE942
S31502003340F04F83B00D4609784CF2000983462F6987
S31502003350C4F2350909EB012487B178684FF00061A0
S3150200336000680160786800688460D7E901123868ED
S31502003370126890470646002840F067816869B8B12E
S3150200338041684FF4002209680A60416809684C6086
S31502003390D0E9011200681268904706462FB126B19D
S315020033A0B9683868096A88474FE1002E40F04D81B6
S315020033B0CBF804504FF0000AA869CBF82400E8695C
S315020033C0CBF82C00CBF828A0287809EB002ECBF8F6
S315020033D008E0EF7AA97A6E7B286A6A7A4FF4441576
S315020033E041EA4701C77941EA0636002A08BFA9F52C
S315020033F096253146047845EAC77508BF41F0800133
S315020034004378002C51EA068718BF45F08075447947
S315020034108178002B029108BF45F400354FF4807184
S31502003420012C90F803C045EA037608BF4FF44071B9
S31502003430002C18BF0E43417A002A027A47EA0C632F
S3150200344001F003010779847943EA8105019410D1D9
S31502003450417B012907D146F40056DEF8441041F4B7
S315020034604071CEF84410017B408945F4604540EA3C
S31502003470014A0123EFF3108983F310884FF40011F8
S31502003480DBF80400022F007808BF4FF44011C0F1A8
S315020034901300002F03FA00F043F20403C4F22003E0
S315020034A051EA17844CF200371968C4F2000721EA80
S315020034B0000018600298196800FA0CF040EA022827
S315020034C01E20012101F04DF989F310880021DBF855
S315020034D00800CFF680518166DBF80800C0F810803C
S315020034E0DBF80800C0F804A0DBF80800C460DBF8CB
S315020034F008004561DBF808000199016426F0804165
S31502003500DBF808008160DBF8080081688660DBF87A
S3150200351004204EF6D830C2F20E2092F9021000298B
S3150200352023D44EF200159279CEF2000501266B18CD
S31502003530120183F8002340F821B057F8212022F423
S31502003540803247F8212057F821204A0901F01F014D
S31502003550BFF35F8F05EB820306FA01F1C3F8801110
S3150200356045F82210DBF8042003E04EF20015CEF2F5
S31502003570000592F9011000291ED452796B18012612
S31502003580120183F8002340F821B057F8212022F4D3
S31502003590803247F8212057F821204A0901F01F01FD
S315020035A0BFF35F8F05EB820306FA01F1C3F88011C0
S315020035B045F82210DBF8042092F90410127A002949
S315020035C04FEA021203D46B1883F8002307E001F0D6
S315020035D00F034EF61856043BCEF200069A5540F8F3
S315020035E021B057F8212022F4803247F8212057F8DB
S315020035F021204A0901F01F01012705EB820307FA80
S3150200360001F1BFF35F8FC3F8801145F82210DBF892
S31502003610042092F90310D27900294FEA021203D448
S315020036206B1883F8002307E001F00F034EF61857D4
S31502003630043BCEF20007DA5540F821B045F24900C4
S315020036400026C5F25320CBF80000304603B0BDE891
S31502003650F08F80B582B094460A46002100936346F5
S3150200366000F08CF802B080BD80B582B0944600228C
S315020036700093634600F082F802B080BDDDF800C018
S31502003680CDF800C000F07AB8844641620020CCE949
S315020036900A32704710B5044640680021216041692C
S315020036A021B18A680868116A88476068006918B19A
S315020036B081680068096A8847A068816821F44C110C
S315020036C0816061684EF28010CEF2000091F902200C
S315020036D0002A0CD4510902F01F02012303FA02F256
S315020036E040F82120BFF34F8FBFF36F8F616891F9C6
S315020036F00120002A0CD4510902F01F02012303FA09
S3150200370002F240F82120BFF34F8FBFF36F8F61683B
S3150200371091F9031001234A0901F01F0103FA01F18D
S3150200372040F82210BFF34F8FBFF36F8F616891F994
S3150200373004104A0901F01F0103FA01F140F82210B0
S31502003740BFF34F8FBFF36F8FA068816821F001012D
S315020037508160A0680021CFF680518166A068C366A9
S315020037606068417A41B9006A407B012804D1A068A9
S31502003770416C21F440714164002010BD2DE9F041F5
S3150200378004468068006E10B10820BDE8F08104F19D
S315020037900C0C8846002706988CE886006168072884
S315020037A0C4E906731E4684F8200088BF4FF080578E
S315020037B00F28486988BF4FF0005700B3A6614FF63D
S315020037C0FF754869CCF6F375416809680B68CE81C6
S315020037D003EA050343EA070343F400250D608A6002
S315020037E02AB94EF678320B60C2F20E228A608268DD
S315020037F000685268904708B1BDE8F08161680869BF
S3150200380090B366610869416809680A6822F0405205
S315020038103A430A6063685F7A3FB91B6A2BB15B7BE6
S31502003820012B02D1E369012B43D1CE8122F0406202
S31502003830B8F1000F02F100630B60C1F8048005D1F4
S315020038404EF67C330A60C2F20E234B60A26893687E
S3150200385023F48013936082680068526890470028B8
S3150200386018BFBDE8F0816168A068426994F820300B
S315020038704F7A22F4F81242EA034267B9096A51B151
S31502003880497B012907D1E169012902D122F080028F
S3150200389001E042F0800242610121A068C166A0688F
S315020038A0816841F4801141F0010181600020BDE888
S315020038B0F081721E6261CA810A68B7E74FF07041F1
S315020038C0EFF3038001EB00604CF200318015C4F285
S315020038D00001425822F4803242504EF6D832415804
S315020038E0C2F20E221058D0E90612914221D0026984
S315020038F042B190F82030102B07D383681B6842F838
S3150200390021300CE08268126809E0D0F808C0082B62
S31502003910DCF8003002D322F8113000E053548268FA
S315020039204FF00043013193668161C269914218BF2B
S3150200393070474068012290F9030000F01F01400918
S3150200394002FA01F14EF20012CEF2000242F8201003
S3150200395070474FF07041EFF3038001EB00604CF2C9
S3150200396000318015C4F200014EF6D8334258C2F235
S315020039700E2322F480324250425818584268136A83
S315020039805B78012B36D1C369A3F1010C4369634508
S3150200399020D180B592F903204EF2001CCEF2000C23
S315020039A051F8223023F4803341F8223051F82210A4
S315020039B0510902F01F0201230CEB810E03FA02F2F7
S315020039C0BFF35F8FCEF880214CF82120BDE88040FE
S315020039D000F012B8116969B192F90310012301F0DE
S315020039E01F02490903FA02F24EF20013CEF2000355
S315020039F043F8212000F000B84268517A0029416953
S31502003A0010D1126A72B1527B012A0BD18268136DF0
S31502003A109B0027D5C369013B994203D1536923F021
S31502003A2080035361C269914208BF7047C2683AB1C6
S31502003A3090F82030102B07D3836852F821200AE031
S31502003A4082680023136007E0082B836802D332F8EA
S31502003A50112000E0525C1A6082684FF00053013177
S31502003A6093664161704710B54FF07041EFF30380E2
S31502003A7001EB00624CF2003E9015C4F2000E4EF6C7
S31502003A80D83150F80E30C2F20E2123F4803340F8BA
S31502003A900E3050F80E3008588168096D890104D538
S31502003AA04168497A012918BF10BD11164EF2001459
S31502003AB04B09CEF2000401F01F014FF0010C04EB9A
S31502003AC083030CFA01F1C3F88010BFF34F8FBFF3E3
S31502003AD06F8F416891F90230002B2AD4590903F0FD
S31502003AE01F030CFA03F304EB8101C1F88030BFF324
S31502003AF04F8FBFF36F8F81688B6823F001038B6052
S31502003B00416891F902105EF8213023F480334EF8B1
S31502003B1021305EF821304B0901F01F01BFF35F8FA0
S31502003B2004EB83020CFA01F1C2F8801144F8231067
S31502003B3004E081688A6822F001028A600121BDE8F8
S31502003B40104000F000B82DE9F04184B00446806AC6
S31502003B500DF1040828B10246434692E8E000E0C3AC
S31502003B6000E040466268127801710260E16A816093
S31502003B70616A8847A06A10B198E80E000EC004B0C8
S31502003B80BDE8F081F0B581B04FF07041EFF30380EC
S31502003B9001EB00664EF6D831B015C2F20E214CF298
S31502003BA000350C58C4F20005606890F9021000292D
S31502003BB02FD44A094EF20010CEF2000001F01F0186
S31502003BC000EB8202012303FA01F1C2F88010BFF36F
S31502003BD04F8FBFF36F8FA1688A6822F001028A6055
S31502003BE0616891F9021055F8212022F4803245F8D5
S31502003BF0212055F821204A0901F01F01BFF35F8FEA
S31502003C0000EB820703FA01F1C7F8801140F822108F
S31502003C1004E0A068816821F001018160A0680021AA
S31502003C20CFF68051076D81663A0103D505212046FC
S31502003C30FFF789FFF80103D504212046FFF783FF2A
S31502003C40F843361610F0A05F03D108212046FFF78D
S31502003C507AFF55F8260020F4803045F8260055F8FC
S31502003C60260001B0F0BD80B545F25422C5F24F02DE
S31502003C700260084600F004F8002080BDD4D4D4D4F3
S31502003C8070B5044600F060F84EF6D43CEFF31081AE
S31502003C90C2F20E2C012080F31088DCF8000038B93D
S31502003CA040F614500022C4F2400002704022027014
S31502003CB0DCF800000130CCF8000081F3108820887F
S31502003CC028B340F6000E0021C4F2400E00BF00BF2A
S31502003CD0606800EBC10250F831309288D8034FEA8F
S31502003CE01220D2B20BD50EEB801555F8226026F4BF
S31502003CF0803645F8226023F4803645F822600EEBC2
S31502003D008010013140F8223020888142E0D3012020
S31502003D10EFF3108180F31088DCF8000020B1DCF8A4
S31502003D2000000138CCF80000DCF8000038B940F693
S31502003D3014500022C4F2400002708022027081F305
S31502003D40108870BDD4D4D4D42DE9F04F81B0044686
S31502003D500088002865D04EF64C4B0025C4F2010BB4
S31502003D604FF0010A00BF00BF43F2D45642F24008A8
S31502003D700027C0F20626C4F2200800BF00BF00BF1B
S31502003D80606836F8021B00EBC50082888A423FD182
S31502003D9000689BF8001000F0B8500AFA07F9B0F173
S31502003DA0807F09EA010017D158B9012000F07FFD92
S31502003DB09BF8000040EA09008BF80000012000F0A1
S31502003DC04FFD98F90000002822D498F8000040F030
S31502003DD0800017E000BF00BF58B1012000F067FD68
S31502003DE09BF8000020EA09008BF80000012000F091
S31502003DF037FD98F90000B0F1FF3F09DC98F80000A2
S31502003E0000F07F0088F80000C820012100F0A9FC1C
S31502003E10013708F10208032FB2D120880135854205
S31502003E20A2D301B0BDE8F08F2DE9F04F85B00D4663
S31502003E3001604E6981464988287AF27800FB01F7CB
S31502003E403178531C002A5FEA1F92B7FBF3F8EB881E
S31502003E50029228FA02FA51B931690A0403D0B6F875
S31502003E6014A00AFB00F7B1F5803F80F0E080194606
S31502003E70E868C9F814003078CDE9033701910228C1
S31502003E8001D1B06801E001FB07F0C9F80C00EFF3BD
S31502003E90108B012080F3108843F2080048F20004D8
S31502003EA0C4F22000C4F23404016821F480310160B6
S31502003EB000681E20012100F054FC8BF3108800BF1D
S31502003EC0E06FC007FCD100BF2068C003FCD4306994
S31502003ED020634FF0000CC4F818C0717B4FF44012F7
S31502003EE06FF35F3802EA015161607179B279337812
S31502003EF0F07801F00101377962F34101727803F03B
S31502003F00030300F0010002F003026FF31F3A41EAD5
S31502003F10031141EA022107F0010241EA0030C7F328
S31502003F20400140EA0260C7F3800240EA8160002154
S31502003F3040EAC260A060E888C0F6FF716A8801F1B3
S31502003F40405101EA00406FF39F321044E060288836
S31502003F5002998840A9886FF35F3061F31B40039989
S31502003F6061F31B482061C4F814800198C4F85CC050
S31502003F7060F31B4AC4F834A03078049900285FEA3B
S31502003F801F9021FA00F0A063C4F860C0307BB178BC
S31502003F9000F0070061F30410606644F25550D9F848
S31502003FA00010C5F24320C9E9010C48698169C9F8C4
S31502003FB0101090F91D10027F4EF200100029CEF269
S31502003FC000004FEA021203D4431883F8002306E0E6
S31502003FD04EF6145701F00F03CEF20007DA554EF6ED
S31502003FE0D8320127C2F20E2242F821904CF2003258
S31502003FF0C4F2000252F8213023F4803342F8213011
S3150200400052F821204A0901F01F01BFF35F8F00EB2E
S31502004010820307FA01F1C3F8801140F8221000204A
S315020040206067D9F81010216705B0BDE8F08FF18AF4
S315020040301EE7B0B548F2000C4FF0000EC4F2340C85
S315020040404EF28015CEF200050124CCF870E003682A
S315020040505B6993F91D1001F01F02490904FA02F285
S3150200406045F821204EF6D832BFF34F8FBFF36F8F3C
S3150200407093F91D10C2F20E2242F821E04FF480316C
S31502004080CCF80010C0F804E043F20800EFF3108504
S31502004090C4F2200084F31088016841F48031016083
S315020040A000681E20012100F05CFB85F310880020C9
S315020040B0B0BD48F20002C4F23402D36FDB0723D14B
S315020040C01368DB0320D41368DB071FD10368D3F818
S315020040D014C081609CF80030022B07D1C3681944D2
S315020040E00123013963F30401D1658168D1639CF828
S315020040F0001021B9D0E9020100EB51001064002042
S315020041005067012111607047082070471E207047D2
S31502004110F0B58BB048F27401C4F234010868C243A8
S315020041200A604FF07042EFF3038102EB01614CF239
S3150200413000328915C4F200028B5823F480338B5067
S315020041404EF6D8338A58C2F20E235C58616911B30F
S3150200415022690DF1040E104001900020CDE9020003
S31502004160A069E369A2680492059360B103460DF162
S31502004170180C93E8E6008CE8E60001469EE8EC009F
S31502004180ECC1616900E070468847A06918B106A9CA
S3150200419091E8EC00ECC00BB0F0BDD4D44EF2240191
S315020041A0C4F201018878098801F00F02A2F1080120
S315020041B003293BD8DFE801F0022C101E45F220014C
S315020041C0C2F2002151F820004AF6AB21CAF6AA2112
S315020041D0A0FB0101480830E045F22001C2F20021AD
S315020041E051F820004AF6AB21CAF6AA21A0FB01012A
S315020041F0C80822E045F22001C2F2002151F820004F
S315020042004AF6AB21CAF6AA21A0FB0101080914E06D
S3150200421045F22001C2F2002151F820004AF6AB21F4
S31502004220CAF6AA21A0FB0101880806E045F2200190
S31502004230C2F2002151F82000D0404EF60041C2F2EF
S315020042400E2108607047D4D42DE9F04381B0BCA09A
S315020042504EF2FA38C4F201084AF20151CFF6FF7162
S3150200426090ED001F45F220000231A8F80010C2F2BC
S315020042700020B7A14EF6014680ED001F4EF600471C
S315020042804EF2140591ED001F48F2004140F600027D
S3150200429080ED041F2030C1F2D77143F60003C4F249
S315020042A00106C4F20107C4F20105C2F6AF72C1F6F5
S315020042B09C430EC0FFF772FF4FF650600A21CFF6FD
S315020042C0FF703954092085F88E00387818B930788D
S315020042D0800700F03081387848B901203870C8204C
S315020042E0012100F03EFA00BF38780128FCD10020F7
S315020042F0307038704AF20159002085F82200A877FA
S3150200430095F828000007FBD542F602314EF6145006
S31502004310C0F20101C5F8B41040F2234169870022B8
S3150200432085F836204FF60211C5F8981040F2514131
S315020043302987CEF200004EF20001BFF34F8FBFF382
S315020043406F8F0368CEF2010123F400330360C0F8D5
S315020043503C22BFF34F8FBFF36F8F0A6822F440529D
S315020043600A60BFF34F8FBFF36F8F2A7802F0F8020D
S3150200437001322A7000BF00BF2A78D206FCD40A682E
S3150200438042F440520A60BFF34F8FBFF36F8F01684A
S31502004390890312D4BFF34F8FBFF36F8F0021C0F88A
S315020043A03C12BFF34F8FBFF36F8F016841F40031A8
S315020043B00160BFF34F8FBFF36F8F0020A87500BF58
S315020043C095F828008006FBD54CF200070020C4F2BF
S315020043D0130738703878387838787868FA2807D02A
S315020043E0FA20C1F6006000BF78607968FA29FBD12D
S315020043F0B8687D2808D07D20CEF2001000BF00BF2D
S31502004400B860B9687D29FBD143F232400524C3F274
S315020044102320E86042F220102882AC74FFF7BEFE29
S315020044201E200121012600F09CF978686FF39F2077
S31502004430652828BF3E70FFF7B1FE42F200004FF436
S315020044402541C4F20000A0F80090BFF35F8F067208
S31502004450BFF35F8F01800DF1020085F83F60ADF872
S31502004460024000F07DF895F8410040F0400085F8E2
S31502004470410000BF00BF00BF95F94100B0F1FF3F08
S31502004480FADC022085F84000CA2085F8410095F83A
S31502004490410000F0BF0085F8410000BF00BF00BF29
S315020044A095F941000028FBD495F8490040F04000F8
S315020044B085F8490000BF00BF95F94900B0F1FF3FFA
S315020044C0FADC052085F84800C02085F8490095F8F1
S315020044D0490000F0BF0085F8490000BF00BF00BFD9
S315020044E095F949000028FBD495F8640040F0400095
S315020044F085F8640000BF00BF95F96400B0F1FF3F84
S31502004500FADC022085F85C00C82085F8640095F87C
S31502004510640000F0BF0085F8640000BF00BF00BF62
S3150200452095F964000028FBD44FF42540A8F8000052
S3150200453001B0BDE8F0834FF47A7000F0C2F8D9E614
S31502004540006CDC0200127A000080000000366E0168
S315020045500080000000CA9A3B0046C3235543DE137F
S315020045602DE9F04F81B04EF2FA3143F20406C4F25D
S3150200457001018246C4F220064AF20350B1F80090C5
S3150200458008804FF0010B00254FF4803401270020EC
S3150200459004FA00F132680A4210D1EFF310888BF365
S315020045A0108832680BFA00F0114331603168054316
S315020045B01E20012100F0D5F888F31088F8074FF085
S315020045C001004FF00007E3D14EF2750745F22001D4
S315020045D0C4F20107C2F20021387800F00F0051F848
S315020045E0200017F8081C01F00F01022901D8012248
S315020045F00BE0CA1E052A06D243F62801C0F206219E
S3150200460051F8221003E00839102202FA01F1B0FB38
S31502004610F1F04DF68361C4F21B31A0FB01016FF08C
S31502004620010000EA5140012100F09BF8387840F081
S315020046304000387000BF00BF97F90000B0F1FF3F9D
S31502004640FADC9AF8010007F8080C9AF8000040F024
S31502004650400038709AF80000387000BF00BF00BFF3
S3150200466097F900000028FBD400204FF0010A4FF40E
S315020046708038012400BF00BF25FA00F1C90710D017
S31502004680EFF310878AF3108808FA00F0316821EAFE
S315020046900000306030681E20012100F062F887F3C6
S315020046A01088E0074FF001004FF00004E4D14EF20B
S315020046B0FA3149F42540C4F20101088001B0BDE88F
S315020046C0F08F7047D4D4D4D4B0B542F22404C820B3
S315020046D0C4F2200401210025257100F042F825705C
S315020046E0207808B12FF005C0207840F00200207033
S315020046F020788007FCD4002004F8020C00BF00BF1B
S3150200470014F8020C08B12FF005C84FF0030E002072
S3150200471004F11C0100BF00BF11F8102002F07F0255
S3150200472001F8102000BF00BF11F91020002AFBD4A7
S3150200473001300FF00FC8012000F0B9F84EF64C41D7
S315020047400120C4F2010100220A70BDE8B04000F067
S3150200475087B87047D4D4D4D400BE00BF00BF00BF10
S31502004760FEE74EF6004241F20023C2F20E22C0F2EA
S315020047707A03484312689A420FD344F23F21C0F2A9
S315020047800F0111444DF68362C4F21B32A1FB0212E1
S31502004790910CA0FB0101C9B11BE04CF60021C3F646
S315020047A09A31B1FBF2F148F63812C0F24102904258
S315020047B005D24FF47A725043B0FBF1F006E0B0FB3B
S315020047C0F1F0904205D24FF47A71484328B100F0D5
S315020047D007B84FF0FF3000F003B87047D4D4D4D4F2
S315020047E001380028FCD17047F0B581B04CF20015B3
S315020047F04EF68037C4F200050024C2F20E2728685E
S31502004800296A01EA000600BF26FA04F0C00703D0AF
S31502004810396809B12046884701340437152CF3D18B
S315020048202E6100BF00BF00BF286A3042FCD101B032
S31502004830F0BDD4D4D4D4D4D480B54FF0060E4CF205
S31502004840003043F2B051C4F20000C0F2062100BFAC
S3150200485031F8022B02B1026004300FF007C880BDA6
S31502004860EFF31081012282F310884EF6F032C2F283
S315020048700E2232F8103023B132F81030013B22F802
S31502004880103032F810207AB94EF2FA3243F63C0C66
S31502004890C4F20102C0F2062C13883CF8100043F45D
S315020048A0254323EA0000108081F31088704710B573
S315020048B0EFF31081012282F310884EF6F032C2F233
S315020048C00E2232F8103083B94EF2FA3E43F63C0C11
S315020048D0C4F2010EC0F2062CBEF800403CF81030BD
S315020048E0234343F42543AEF8003032F81030013347
S315020048F022F8103081F3108810BDD4D44EF6FC3164
S31502004900C2F20E210A681318B3F5805F0AD980B580
S3150200491008487844016800F07BFA0C2242504FF0B6
S31502004920FF3080BD40F220000B60C2F2002010442E
S31502004930704700BF8AEF050000F006F8FEF745F95A
S31502004940FEE700BE7047D4D470B54EF6005540F26D
S315020049500120CEF20005C0F20E004EF2000668619A
S31502004960CEF20106BFF34F8FBFF36F8F2968C1F3F3
S31502004970035001285FEA1F9211F00F0F5FEA0F91B1
S315020049801142316811D102280FD241F00400306081
S315020049904EF20800BFF34F8FCEF20000BFF36F8FC7
S315020049A0016841F48031016002E021F004003060C8
S315020049B0BFF34F8FBFF36F8F4FF4700040F20001C9
S315020049C0C5F888000020C0F20021A9600024FBF788
S315020049D034FFFFF739FC4EF2FA304EF6B022C4F23B
S315020049E00100C4F201024AF20251018014704FF42E
S315020049F0254101800120FBF720FF41F22000C2F28F
S31502004A00002080F30A883068800721D5A868B0F1B3
S31502004A10007F1DD130694FF40071C0F3C300726983
S31502004A2001FA00F3C2F3C30081400020DA08CB0882
S31502004A300146064642F005C0E6E802010FF005C04F
S31502004A404FF0005243F005C0E2E802010FF005C044
S31502004A50002000F095F8FFF7A1FBFFF735FE0320D3
S31502004A60FFF725FF4FF00E0E40F63050C4F240001D
S31502004A7020F8044B0FF005C04EF210140320C4F2C6
S31502004A800104FFF7EDFE0320FFF711FF44F20400D5
S31502004A900021C4F22000016041608160C1600320F0
S31502004AA0FFF7DEFED4F8C802800714D42078A0B13E
S31502004AB00120FFF7FCFE00BF94F9000010F1410F40
S31502004AC0FADC0020207000BF20783F28FCD80120A5
S31502004AD0FFF7C6FE01E0D4F8C802D4F8C8024007C0
S31502004AE015D42079A8B10120FFF7E1FE00BF00BF6F
S31502004AF094F9040010F1410FFADC0020207100BF86
S31502004B0020793F28FCD80120FFF7AAFE01E0D4F85D
S31502004B10C8020220FBF791FE012000F031F84EF6A2
S31502004B201844C2F20E24204600F052F9204600F044
S31502004B3063F9BFF34F8FBFF36F8F0020C5F85002A2
S31502004B4043F6A40043F6A401C0F20620C0F20621F1
S31502004B50BFF34F8F081ABFF36F8F8410012C08DB47
S31502004B6043F6A405C0F2062555F8040B8047013C1E
S31502004B70FAD1FFF761FE0020BDE87040FFF7E9BDFC
S31502004B80F0B581B043F2FC550446C0F206252E6804
S31502004B9076B16868071D00BF7879844204D157E967
S31502004BA00101091A00F01BF8013E07F10C07F3D1C7
S31502004BB0AE6896B1E86800F1080500BF00BF00BF05
S31502004BC06879844205D155E902022968121A00F071
S31502004BD00AF8013E05F11005F2D101B0F0BD0A4610
S31502004BE0002100F009B810B5002322B1CC5C013ACD
S31502004BF0C4540133F9E710BD03461AB103F8011B89
S31502004C00013AFAE77047D4D4034613F8012B002A77
S31502004C10FBD1181A0138704710B5C8B104460020F6
S31502004C202060194800F0D2F81849086890B1844209
S31502004C300FD950F8042C8118A1420146F5D154F837
S31502004C40041C04461144026840F8041C104605E0A0
S31502004C5010BD0ED020600C6054F8041C621882420B
S31502004C600CD1026850F8040C2260084444F8040C83
S31502004C7004E007490C2200F0CBF842500248BDE896
S31502004C80104000F0A4B800BF10EC0E2204EC0E2275
S31502004C900800000070B504460D4A54F8040D2618A3
S31502004CA0126896420DD10D1A082D98BF082528467E
S31502004CB000F010F8B04206D0411C1CBF20C0FFF71E
S31502004CC0ABFF002070BD206828442060012070BD23
S31502004CD008EC0E22F8B5002814D40446FFF70EFE9F
S31502004CE0411C0FD000F10B010C4E21F007010719F0
S31502004CF00C1F844237600BD0251A2846FFF7FEFDAB
S31502004D00B84203D04FF0FF342046F8BD2844306045
S31502004D1070680028F8D17460F6E700BF08EC0E222E
S31502004D20F8B510F1140F06D327490C2200F070F8DB
S31502004D3042500020F8BD0446214800F047F8E01D25
S31502004D40204C20F0070606F10805274624686CB1B8
S31502004D5054F8040CA84211D220680028F5D1204646
S31502004D602946FFF797FF0028EFD013E02846FFF702
S31502004D70B1FF0446013019D020C40DE0401B0828BB
S31502004D8008D3216861516119396041F8040C44F86D
S31502004D90045C01E020683860094800F018F846F023
S31502004DA004012046FFF71BFF2046F8BD06490C22E8
S31502004DB000F02EF84250024800F009F8B9E700BFA9
S31502004DC010EC0E2204EC0E22080000007047704719
S31502004DD010B505490446054AFFF705FF044805498B
S31502004DE02044FFF7FCFE10BD780000020000000020
S31502004DF000000000040000000249401A024908604F
S31502004E00704700BF0800000014EC0E22D4D4D4D49C
S31502004E10014800687047000014EC0E2210EE100ADA
S31502004E2020F00041B1F1FF4F84BF30EE000A704717
S31502004E3006D19FED621AB0F1FF3F30FE010A7047BC
S31502004E404D4A9042A4BF002000F0CAB8B0F1FF3F1D
S31502004E5005DC4A4A914224BF002000F0B1B8484A14
S31502004E60914213D3C20F4848814221D84B4982F05E
S31502004E700100801A01EB820191ED001A484930EED9
S31502004E80410A01EB820191ED001A28E09FED3D1ADD
S31502004E90002030EE012AB7EE001AB4EE412AF1EEF6
S31502004EA010FA02DD890E0C2962D9B0EE402A18E00A
S31502004EB036489FED372A00EB820090ED001AA0EEED
S31502004EC0021A9FED342ABDEEC11A11EE100AB8EE8F
S31502004ED0C11AA1EE020A9FED302A21EE021A30EE25
S31502004EE0412A22EE024A9FED2F3A9FED2F5A9FED5D
S31502004EF0316AA4EE035A9FED2D3AA4EE053A9FEDD0
S31502004F002C5AA4EE035AB0EE423AA4EE056AA4EE77
S31502004F10463A22EE034A08B3B0EE002AC20510F161
S31502004F207D0F32EE432A84EE022A31EE421A30EE29
S31502004F30410AB7EE001A30EE010A10EE101AA2BFAD
S31502004F40501800EE100A704750189FED1B1A00F118
S31502004F50485000EE100A20EE010A7047B8EE000A29
S31502004F60B7EE001A33EE000A84EE000A32EE400A69
S31502004F7030EE010A704700BF1872B142B6F1CF4255
S31502004F801972B13ECAF249719115853F3432060251
S31502004F903BAAB83F807131BFD1F7173744320602B8
S31502004FA03C3206024CBB31330EEADDB555B38A38C4
S31502004FB0610B36BBABAA2A3E0000800D0000000042
S31502004FC00649002891ED000AB1EE401A00FE010AD8
S31502004FD091ED001A20EE010A704700BF483806021A
S31502004FE00649002891ED000AB1EE401A00FE010AB8
S31502004FF091ED001A20EE010A704700BF4C380602F6
S31502005000010000000C0000000C000000C0000000BF
S31502005010010000000600000006000000C0000000BB
S31502005020E8510000D4D4D4D4D4D4D4D4D4D4D4D44F
S31502005030434F5031010010000830000000000610F6
S3150200504005000000050000000500000002007214C1
S315020050500F0101000040000000B001000140000005
S3150200506000000000024000000000000003400000B3
S31502005070000000000B0102000C0102000A01FF8F72
S315020050800401000006400000010000000540000087
S315020050900090000004400000010000000901000029
S315020050A005010100070100000001000001010000E6
S315020050B003010000020100001F0101001040000070
S315020050C00000000011400000000000001240000035
S315020050D00000000013400000000000001B01020057
S315020050E01C0102001A01FF8F120102001101FF8F3B
S315020050F013010000164000000100000015400000E8
S315020051000100000014400000030000001801000026
S31502005110140101012101000020010000220100000A
S3150200512025010000260180FF27017F0016010100EC
S3150200513015011900170107000D010A002D011E00B5
S315020051402401000024401F00010000802F010000FE
S315020051500500010000400000000000000B01BF0036
S315020051600C01BF000A01BF00040102000540000055
S315020051704002000004400000030000000901FFFF96
S3150200518003010100020101001040000000B001000D
S315020051901B015F001C015F001A015F0012015F0024
S315020051A011015F00130117001640000000060000FF
S315020051B015400000000C0000144000001000000022
S315020051C01401410021010200200102002201070010
S315020051D02801000020400000E0C900002140000034
S315020051E0500300002901000022400000F0C8000020
S315020051F023400000F000000026010000160107000F
S3150200520015010B00170117002D010E002F010300D7
S31502005210020000000040000000B001000B015F0028
S315020052200C015F000A015F0004011700064000003E
S315020052300006000005400000000C000004400000CB
S3150200524010000000090100000501410003010000F1
S315020052500201000010400000000000001B012F00A8
S315020052601C012F001A012F0012012F0011012F001D
S315020052701640000000030000154000000006000072
S315020052801401410122010300260180FF16010900D3
S3150200529017010F000D011A002D011E0024402300E4
S315020052A0E5388EE305000100004000000000000022
S315020052B00B012F000C012F000A012F0006400000EF
S315020052C00003000005400000000600000301010083
S315020052D00201010010400000002001001B0117001E
S315020052E01C0117001A0117001201170011011700FD
S315020052F01640000080010000154000000003000077
S31502005300140141002040000020CE00002140000090
S31502005310100100002240000030CD00000300000012
S3150200532000400000002001000B0117000C011700CD
S315020053300A01170006400000800100000540000037
S3150200534000030000030100000201000010400000FB
S31502005350008C010021010000200100002201000052
S315020053602040000020D00000214000007002000012
S315020053702240000030CF0000260100001601050081
S3150200538015011700170117000D010A002D010E0065
S315020053900200000000400000008C010010400000E6
S315020053A00020010016400000010000001540000028
S315020053B08004000014400000300000001401018146
S315020053C0260180FF160101001501090017010F00D1
S315020053D02D011E0024401F0001000080050001006F
S315020053E000400000000000000B012F000C012F00FE
S315020053F00A012F00064000000003000005400000DD
S315020054000006000010400000008C01001B012F0066
S315020054101C012F001A012F0012012F0011012F006B
S3150200542016400000000300001540000000060000C0
S31502005430144000001000000014014100204000004A
S3150200544080D300002240000090D200002601000016
S315020054501601090015010F00170117002D010E0094
S315020054600200000000400000008C01000301010060
S315020054700201010010400000000000001B0117009D
S315020054801C0117001A01170012011700110117005B
S3150200549016400000800100001540000000030000D5
S315020054A02101020020010200220103002040000027
S315020054B0E0D600002140000020010000224000004A
S315020054C0F0D50000260180FF15010B0017010F0021
S315020054D00D011A002D011E0003000000004000000D
S315020054E0000000000B0117000C0117000A0117004B
S315020054F00640000080010000054000000003000095
S3150200550003010000020100001040000000480000F4
