S00D00007261696E792E73726563F4
S315020000008050002269BC000219BB000273BC0002C8
S3150200001073BC000273BC000273BC000273BC000214
S3150200002000000000000000000000000073BC000297
S3150200003073BC00020000000073BC000273BC000225
S31502000040BB90000213920002FFB0000231B400021C
S315020000507D83000213840002278500024586000282
S31502000060997D00024BA20002D9A30002F9A4000264
S31502000070E1A500024999000263980002CF990002A5
S30902000080219A0002B7
S315020000840100000001000000010000000100000060
S3150200009401020201FF000000602C0F220000000092
S315020000A4000000001800002200000000000000000A
S315020000B40000000010C2100000001028000000001A
S315020000C400000000000080000001000068AE060285
S315020000D4291B0002000000000000000000020000CC
S315020000E4010000DF01DF0BFF0BFF0000FFFFFFFF34
S3150200010080B582B0009171B34FF0020C0B4600BF6E
S3150200011013F801EBACF1010CBEF1210F02D3BEF1D3
S315020001203A0FF5D1BEF13A0F07D1097830294FF0CF
S315020001300B0108BFBCF1000F18D145F2C00CC2F288
S31502000140002CDCF800300BB10021197008B1002137
S315020001500170CCF8000042B1684601A9002200F005
S315020001602BF8014602E00B2100E00021084602B00E
S3150200017080BDD4D4D4D4D4D4D0F800C0BCF1000FFE
S3150200018016D00223624600BF12F8011B013B212949
S3150200019001D33A29F8D13A2908D19CF8001030291E
S315020001A04FF0FF3108BF002B04D10260002101E0AD
S315020001B04FF0FF31084670472DE9F04184B00F46F3
S315020001C0154600213960FFF7D7FF00281BD40646E3
S315020001D045F2C000C2F2002050F82640002C4ED054
S315020001E03C60207888B1607802F04CF90146C0077D
S315020001F00BD115F03E004FEA41714FF00A0218BFCB
S3150200020002EAE17067E00B2065E0002020703046CC
S31502000210667002F02BF9C10733D115F03E0F18BFF5
S3150200022010F004002FD10021204601F0B4F8022874
S3150200023021D14FF0040E04F2F910694600BF00BF47
S3150200024050F8032C103041F8042B0FF007C8002693
S315020002506D4600BF00BF00BF55F8041B21B1204602
S3150200026001F099F801E000BF0320022803D3032E10
S3150200027006F10106F0D3042807D101202BE00C2059
S3150200028029E0032027E00A2025E0012822D8B4F835
S315020002903B00B0F5007F1DD1B4F8460000B9606D91
S315020002A094F84030E16AA061A3705A1E012A11D85F
S315020002B094F83D7067817A1ED6B27A40D2B2B242C3
S315020002C008D994F8426094F84120150742EA0622BA
S315020002D0228103D00D2004B0BDE8F081B4F843506A
S315020002E005B9256DE68F002EF4D000FB03FE0EEB5A
S315020002F0121333449D42EDD3ED1ABD42EAD397FA67
S31502000300A7F74FF6F67CB7FA87F74FF0000825FAFB
S3150200031007F74FF6F675C0F6FF75AF4240F6F5756C
S3150200032038BF4FF00308674538BF4FF00208AF42A7
S3150200033098BF4FF00108B8F1000FCBD007F1020CBD
S315020003400E44B8F1030FC4F814C0C4E907160B44EF
S31502000350A3623ED194F85A3094F85B703B431A4339
S31502000360B8D140F2FF1202EB8C02B0EB522FE06DD5
S315020003706062AFD3B4F860004FF0FF32C4E90322E3
S3150200038001284FF08000207142D10131204600F051
S31502000390ECFAE8BBB4F82E024AF6552188424FF031
S315020003A00000207134D145F25221206BC4F2611152
S315020003B088422DD147F27221D4F81402C6F24111B5
S315020003C0884225D1D4F81802D4F81C12C4E90310C5
S315020003D01EE0002A3FF47EAF0CEB4C0107F001034E
S315020003E0A7F6F67203EB5101B2F5704F38BF4FEA2A
S315020003F04C0101F2FF11B0EB512F06EB0E006062C9
S31502000400FFF468AF4FF0FF30C4E90300802020718B
S3150200041045F2C40084F80080C2F20020018801314E
S3150200042001800020E18056E72DE9F04F8DB00C9156
S3150200043070B102F03F0A834615460CA86946524639
S31502000440FFF7BAFE48B107460020CBF8000000E0ED
S31502000450092738460DB0BDE8F08F0C9901A8DDF8E2
S315020004600080CDF8048000F0F7F89DF82F1049B20D
S31502000470B1F1FF3F0146D8BF0621002850EA118795
S315020004801AF01C0F00F0A080002F00F0AB80042FA2
S3150200049003D101A800F0E4F907464AF0080AAFBB07
S315020004A01AF0080032D0089867A191ED001F80ED7E
S315020004B00E0F458B80ED160F98F80010032905D113
S315020004C0017D427D120642EA01410D442021C1729C
S315020004D00021418398F80020032A08BF8182C16166
S315020004E04FF0010088F8030095B101A800222946C1
S315020004F0D8F82C9000F0F0F90028A4D140464946DD
S3150200050000F033FA0746681EC8F80C00002F9BD18C
S31502000510D8F82C100898CBE908100AF0080298F8C7
S315020005200010458B03294AEAC20105D1027D437DAB
S315020005301B0643EA02421544CBF808500BF1280980
S31502000540C469CBF80C40CBF800800027B8F8060047
S315020005508BF81010ABF804004FF4007148468BF884
S315020005601170CBF81C70CBF814700BF0D0FC5FEA5C
S315020005708A607FF56EAF002C3FF46BAFCBF8144068
S31502000580B8F80A00B4EB402F39D94FEA402A00BF27
S3150200059058462946264600F005FA0027022838BFA3
S315020005A002270546013008BF0127A4EB0A040FB94A
S315020005B05445EDD8CBF8185017B96FF35F2616BB22
S315020005C0002F7FF441AF39E0002F7FF43DAF9DF855
S315020005D00A00C10611D45FEA8A7199D510F00100AA
S315020005E096D004E09DF80A0010F0110F01D00727FB
S315020005F02AE7082000EA450751E7042724E7E00531
S31502000600CBF818501AD0D8F81400811EA81E8842BA
S3150200061016D2B8F80A10D8F8282000FB012078B1C3
S3150200062000EB5422CBF81C2098F80100012349461E
S31502000630012701F03BFF00287FF406AF002708E7F9
S31502000640022701E700BF00BF000000000000000013
S31502000650F30000005C0000002DE9F04F87B00D4664
S315020006600446016800BF00BF28785C2801D02F2805
S3150200067001D10135F8E70020A0602878202808D2A9
S31502000680802084F82B00204607B0BDE8F04F00F02A
S315020006906BBC04F1200B019101F1300000904FF088
S315020006A02030CDF818B0CBF80700CBF80400CBF811
S315020006B000006A1C00234FF0080900204FF0000AD0
S315020006C002922E5C471C212E5FEA2F915CD3CDE964
S315020006D0043107EB090102EB0008D344A1EB0A013E
S315020006E0039100BF00BF00BFF0B22E282CD05C28B9
S315020006F018BF2F283CD0D14525D070B2B0F1FF3FAC
S3150200070006DC4CF2426106F07F00C0F200210E5C6C
S315020007104CF2C640F1B20F22C0F200200BF0FBFBF6
S31502000720002840F09180A6F161000AF1010AC0B2E8
S3150200073001371A2838BF203E0BF8016B18F8016BF7
S31502000740212ED1D224E0039F2E285FEA0F9004992E
S315020007504FF0080A4FF00B0901230843DDF818B0E1
S31502000760C0073846029AACD06EE000BF00BF00BF99
S31502000770DDE9051B00BF00BF18F8010B5C2801D09C
S315020007802F2801D10137F7E7BAF1000F5CD002E05A
S315020007900121DDF818B09BF80000E52802D10520FA
S315020007A08BF800003D4409B1042005E02878212891
S315020007B04FF0000038BF042084F82B00204627683B
S315020007C000F0D2FB002842D1A169384600F0CDF8EC
S315020007D0E0BBE069017871B3C67A06F03F01A17108
S315020007E0C17A090704D40B2259460BF093FC30B1A7
S315020007F00021204600F088FCD8B92FF01BC894F8D7
S315020008002B00400726D4F00626D5206900996FF3FF
S315020008105F20014401980278488B032A05D10A7D9C
S31502000820497D090641EA02410844A0604FF02030A2
S3150200083039E704280BD194F82B0010F0040F4FF07F
S31502000840040050EA109002E0062000E0012007B002
S31502000850BDE8F08F0020FAE70520F8E7D4D4D4D417
S3150200086070B50546046800F07FFB064680B1F0B21B
S3150200087070BD00BF00BF00BFE869007880B1E528FF
S315020008800ED00121284600F03FFC064600061CD188
S31502000890A969204600F069F80028EDD00126E6E7AE
S315020008A0A969204600F061F800284FF00106DED162
S315020008B0E86920210BF02BFBE86905F120010B22E8
S315020008C00BF033FBE6700026D1E7F0B2042808BF2E
S315020008D00726CCE7D4D4D4D4022901D2022040E0A0
S315020008E0F0B581B0056804460E466869814234D285
S315020008F01146EAB14FF0FF32284600F0A6FDB8B124
S315020009002CE000BF00BF00BF00222846314600F09F
S315020009109CFD18BBD5E90410821E914205D22A79A4
S315020009200131296142F00101297187423E461AD2FC
S315020009302046314600F036F807460228E4DA082057
S315020009404FF6F87100EBC700C0F2FF010840012123
S31502000950C0F2020121FA00F000E0022001B0BDE877
S31502000960F040C0B270470020F8E7B0B50446C06A4E
S31502000970814201D10020B0BD20460D4600F0E9FDBE
S3150200098008B10120B0BD607804F1300101232A4686
S3150200099001F08CFD00285FEA0F9018BF4FF0FF357B
S315020009A0E562B0BD022901D2012070472DE9F0416E
S315020009B005680C46686981422BD22878032838D00C
S315020009C0022829D0012824D104EB5406286A00EB18
S315020009D056212846FFF7C9FF90BB05F13008771C60
S315020009E06FF35F26286A00EB5721284618F806603F
S315020009F0FFF7BBFF20BB6FF35F27E20718F807007C
S31502000A0046EA002108466FF31F3018BF0809BDE801
S31502000A10F0810120BDE8F081286A00EB1421284606
S31502000A20FFF7A3FF60B9E0B205EB4000008EBDE818
S31502000A30F081286A00EBD4112846FFF796FF18B119
S31502000A404FF0FF30BDE8F08104F07F0005EB800037
S31502000A5090F8321090F8332090F8313090F8300048
S31502000A60090241EA0241194461F31B20BDE8F08103
S31502000A70B0B50C4680B10546006868B1017859B137
S31502000A80C188AA888A4207D1407801F0FBFCC007D8
S31502000A9002D12968002001E0002109202160B0BDB1
S31502000AA02DE9F04F83B004460E460020186002A9D5
S31502000AB020469A461746FFF7DBFF002840F0C4801F
S31502000AC0607C002840F0C080217C880701D4072082
S31502000AD0BAE06069C243974257EA30A5002D00F09A
S31502000AE0AA80DDF808B004F12809CDF8049000BF09
S31502000AF001466FF35F2179B1C1F50070A84250EA51
S31502000B00358709EB010031463A460BF00EFA207C96
S31502000B1040F08000207462E0BBF80A10013911EA45
S31502000B20502815D120B1A169204600F091F802E0C3
S31502000B30A06800287CD0411C00F08480002879D06F
S31502000B4001287DD0A168A06111B9A06000BF00BFD5
S31502000B5094F91000B0F1FF3F0CDC9BF80100E2694A
S31502000B600123494601F0FBFC00286BD1207C00F0F2
S31502000B707F002074DBF81400A169821E881E904251
S31502000B805ED2BBF80A10DBF8282000FB0120002801
S31502000B9056D06F0A00EB080933D008EB07004A4625
S31502000BA088429BF8010088BFA1EB080731463B4605
S31502000BB001F0D5FC002845D1E069A0EB0900DDF87B
S31502000BC00490B8420AD206EB40214FF4007248461E
S31502000BD00BF0ABF9207C00F07F0020747F02DAF87C
S31502000BE00000ED1B3844CAF80000E1686069384429
S31502000BF03E44884250EA81816061E160D5B12FF0BE
S31502000C0089C8E069616948450BD0E068814208D22B
S31502000C109BF80100012301994A4601F047FC88B975
S31502000C206169C4F81C906FF35F21DDF8049063E7F5
S31502000C30002179E7217C41F040002074002003E086
S31502000C40022000E00120607403B0BDE8F08FD4D426
S31502000C502DE9F04F81B088460646D0F800A039B19A
S31502000C6030464146FFF79EFE02280FD2012559E083
S31502000C70DAF80C401CB1DAF8140084420ED3D146DD
S31502000C8059F8100F00284CD0012431E005460130F6
S31502000C9026D0DAF814004446854243D3D14659F8A1
S31502000CA0101F00293DD0444522D108F1010181429D
S31502000CB04FF0020050EA289730463946FFF772FE97
S31502000CC0054601302ED075B1012D2BD0DAF80C0075
S31502000CD002280CD3DAF81410884250EA388407E066
S31502000CE04FF0FF351EE044463D460FB11FE0444635
S31502000CF04FF0020B274600BFDAF81400791C814236
S31502000D005BEA279701D3022C0BD330463946FFF70D
S31502000D1049FE0546013005D045B1012D02D0A74254
S31502000D20EAD10025284601B0BDE8F08F3D464FF0D6
S31502000D30FF325046294600F088FBB8F1000F05D075
S31502000D4020B9504641462A4600F07FFB28B10128C9
S31502000D504FF0010050EA10B5E4E7DAE90401CAF8F7
S31502000D600C500239884202D80138C9F800009AF8B4
S31502000D70040040F001008AF80400D3E7D4D4D4D4A6
S31502000D8070B582B001A90446FFF772FE0646C8B9DD
S31502000D90207C410601D4002614E040B2019DB0F148
S31502000DA0FF3F06DD216A2846FFF7DFFD68B101260F
S31502000DB008E0687804F12801E2690123012601F0BE
S31502000DC0CEFB20B3304602B070BD606AC17A41F0F4
S31502000DD02001C1722268A16841831278032A03D1D5
S31502000DE00A0C0275090E41750BA191ED001FE1680F
S31502000DF080ED160FC161002141820120E87028466C
S31502000E0000F012F8217C01F0BF012174DBE7207C9F
S31502000E1000F07F002074C5E700000000000000001B
S31502000E20F30000005C000000B0B5044600F091FB40
S31502000E3008B10120B0BD207803282DD120790128E0
S31502000E402AD104F134004FF4FE710BF060F818A0B9
S31502000E502546012390ED001F19A0A5ED300F05F5DB
S31502000E60F27190ED001F4AF65520A5F8FE0181EDBC
S31502000E70000F55E90910C5F8E801C5F8EC1155F857
S31502000E80141C15F82F0C4A1C294645F8042C01F0AF
S31502000E9066FB002005F82C0C60780021002201F088
S31502000EA095FB00285FEA0F90B0BD00BF00BF00BFF0
S31502000EB052000000520000006100000041000000E4
S31502000EC07200000072000000410000006100000094
S31502000ED010B582B00446FFF753FF30B901A9204688
S31502000EE0FFF7C6FD08B90020206002B010BD70B53C
S31502000EF082B00191A0B1044601A8694600220025EC
S31502000F00FFF75AF948BB01992046009E2660FFF773
S31502000F10A3FB010606D0C1B2042908BF05201CE0C6
S31502000F2009201BE094F92B00002810D4A079C006F2
S31502000F3001D4052011E0E1693278488B032A05D1F4
S31502000F400A7D497D090641EA02410844A060F0880B
S31502000F50A080204600F008F818B12560C0B202B0A1
S31502000F6070BD0020FAE7D4D4F0B581B00446866895
S31502000F7005684FF0000020617EB16F89314600BFDF
S31502000F80B7B92046FFF70EFD014601301AD00229F5
S31502000F9023D36869814220D2F2E72878032802D354
S31502000FA06E6A002EE9D12889B8B1686A00260CE07B
S31502000FB06869811EB01E884206D26989AA6A00FB48
S31502000FC0012002E0012009E00020C4E9056020B109
S31502000FD005F13000E061002000E0022001B0F0BD22
S31502000FE010B582B001A90446FFF742FD08B90021F7
S31502000FF0216002B010BDB0B582B00D4601A904460B
S31502001000FFF736FD10B1C0B202B0B0BD85B12046C1
S3150200101000F012F88107F6D12046294600F03CF886
S315020010200021204600F070F8011F50EA1180EAE71D
S315020010302046FFF799FFE6E7B0B58169044619B382
S31502001040256800BF00BF00BF2846FFF78EFCE8B93F
S31502001050E1690878C0B1C97A01F03F02A2710F2A8C
S3150200106003D02E2818BFE52808D10021204600F01B
S315020010704BF860B9A16929B12FF01BC001F01F001E
S315020010800828F2D00020B0BD042000E00120002193
S31502001090A161B0BDD4D4D4D470B58E4600220EF868
S315020010A0092F82697AB300224FF02E0C00231546CF
S315020010B016460B2A98BF0B25B54213D0C269945D1A
S315020010C0721C1646202CF7D0052C08BFE524092AE7
S315020010D003D15D1C0EF803C02B465D1C0EF80340BF
S315020010E02B46E4E700220EF80320C269D27A02F008
S315020010F03F020A72C269D2690A60C269D28ACA808A
S31502001100C069008B888070BD2DE9F04381B004462A
S31502001110006900F12007B7F5001F02D30020A06185
S315020011200EE0A06960B13D46D4F800906FF35F25EA
S315020011305DB109EB050027613030E061002000E077
S315020011400420C0B201B0BDE8F0830E46616900F129
S315020011500100A06169B1B9F80A0000F6FF7010EA51
S31502001160572FE6D12046FFF71DFC022807D20220A0
S31502001170E7E7B9F80800B0EB571FCFD9D9E78046A1
S31502001180013033D0D9F8140080450FD2C4F8148048
S31502001190D9F81400811EA8F1020088421DD2B9F8BE
S315020011A00A10D9F8282000FB012017E0002EB5D03E
S315020011B061692046FFF74CFD8046013003280FD2B5
S315020011C04FF6F871C0F2FF0101EAC00040F2017168
S315020011D0C0F2020121FA00F0B3E70020A061A8E7FD
S315020011E04846414600F0A4F80028CFD00120A8E7DF
S315020011F02DE9F0412DED048B92B0119011A801A9B1
S315020012000222FEF7D9FF0646002869D1119906A8DF
S31502001210019C0694FFF720FA0646002808BF082616
S31502001220042E5DD102A8002102940026FFF710FDCC
S315020012300028054608BF0726012808BF02260130F6
S3150200124008BF0126002E46D12046294600F070F836
S3150200125008B101263FE032A0267821464FF02E083B
S3150200126090ED009F032E4FEA152784ED468F42F23A
S31502001270200001F8308FA4F839004FF02030C4F86E
S315020012803500C4F831004FF0100084F83B0084F8B2
S315020012904A5084F84B7005D1280C84F84400280E75
S315020012A084F8450004F1500020220AF03EFE032E87
S315020012B0089884F85180A4F86A0005D1010C84F8D4
S315020012C06410000E84F865000120E07006A8FFF79E
S315020012D0C7FA064650B102A800222946FFF7FCFAD1
S315020012E0304612B0BDEC048BBDE8F0810D988576D0
S315020012F0C77680ED168F2178032903D1290C017553
S31502001300290E41751021C1720120E070204612B0EB
S31502001310BDEC048BBDE8F041FFF786BD00BF00BF00
S315020013200000000000000000F30000005C00000066
S31502001330F0B581B00D46044600F00BF908B1012064
S3150200134027E06069811EA81E884204D26789A16AC5
S3150200135000FB071601E06789002604F130054FF409
S3150200136000712846E6620AF0D2FD6FB1002700BF7F
S315020013706078F2190123294601F0F1F8618928B94A
S3150200138001378F42F4D301E0002100278F425FEA42
S315020013900F9001B0F0BD70B504460020E0704FF02A
S315020013A0FF30E0622046FFF7E0FA08B1042070BD84
S315020013B094F83000B4F82E524AF65526E838032837
S315020013C03DD802283BD0B54209D14CF2B74104F1CF
S315020013D08200C0F2002108220AF09CFE68B3B4F82B
S315020013E03B00B0F5007F2AD194F83D0000F1FF01E1
S315020013F00A0A24D0084022D194F83F0094F83E10FD
S3150200140008431CD094F840000138012817D894F8F4
S31502001410420094F84110084311D0B4F843007F28E3
S3150200142005D894F8530094F85210084307D094F85C
S31502001430470094F84610084301D0002070BDB5421B
S315020014404FF0020050EA009070BD2DE9F04381B0E2
S31502001450022917D3044640690E46814212D22078E9
S315020014601546032822D0022811D001280AD106EBFC
S315020014705607206A00EB57212046FFF776FAC8B3D3
S31502001480012700E00227384601B0BDE8F083206A52
S3150200149000EB16212046FFF768FA00284FF00107F5
S315020014A0F1D1F0B204EB4000058620E0206A00EBA1
S315020014B0D6112046FFF759FA00284FF00107E2D16C
S315020014C006F07F0005F0706204EB800090F833109E
S315020014D080F8305001F0F00142EA01612A0A80F8F0
S315020014E031202A0C80F83220090E80F83310E7707A
S315020014F00027C8E704F130085FEAC67907F101065A
S315020015006FF35F27284605D018F8070000F00F0092
S3150200151065F30B1008F80700206A00EB56212046F7
S315020015200127E770FFF721FA0028ACD1B9F1000FC5
S315020015306FF35F2607D118F80600C5F3032100F002
S31502001540F000084400E0280908F806000120E070CF
S31502001550CEE770B50546C078D0B1687805F130049B
S31502001560EA6A01232146012600F0F9FF88B9A96932
S31502001570286AEA6A0026101AEE70884209D2A8780A
S31502001580022806D168780A440123214600F0E7FFC3
S315020015900026304670BDD4D42DE9F04F8BB01D46DF
S315020015A016468846149818999FED1A0A4FF4D8726F
S315020015B00023DDE9169A4FF0000B00F05DF89FED6F
S315020015C0160A6C2200232846514600F055F89FED74
S315020015D0130A902200233046494600F04DF84CF299
S315020015E0D46007AAC0F20020114603AB90E8F000CF
S315020015F04CF2C460C0F20020F0C1194690E8F00037
S31502001600F0C140461599CDE900BB00F049F80BB090
S31502001610BDE8F08FCBF49B3C288F283E2D138B3DE3
S31502001620F0B581B0184616460C4608999FED0E0A8B
S315020016304FF4D8620023DDE9065700F01DF89FED4E
S315020016400B0A4FF4D87200233046394600F014F8DC
S315020016509FED070A4FF4107200232046294601B077
S31502001660BDE8F04000F008B8349FEA3C22EF153E90
S3150200167074F6C63DD4D4D4D480B542F00FC000BFB0
S3150200168010F9012BD21A01EE102AB8EEC11A20EE79
S31502001690011AA1EC011A0FF00DC880BDD4D4D4D41E
S315020016A02DE9F04F8DB01E680296012E089053DB8D
S315020016B09768D0680790784352680590504306971A
S315020016C00190D86804900C461799169E5D68D3F867
S315020016D008A00023DDF81880049F09920A9500BF2E
S315020016E0012D03932FDB0020009109992A463346E8
S315020016F00B90B34600F034F8BAF1010F1CDB059AE1
S31502001700089900FB02104FF000095546079E0C90FF
S31502001710179800904846414652465B4600F020F82C
S315020017200C9900FB061120463A460AF0FEFB013DE3
S315020017303C4409F10109EBD10B980A9D0130179936
S31502001740A8425E46D0D1039B02980133019A834296
S31502001750089810440890C3D10DB0BDE8F08FD4D4D8
S3150200176080B5DDF808C06BB1022A0BDBA1F1010ED0
S3150200177000EE10EA013A01EE102AB8EEC00AB8EEFF
S31502001780411A07E000EE101A01EE102AB8EEC00A5E
S31502001790B8EEC11ABCF1000F03EE100A80EE010A80
S315020017A09FED112AB6EE001AB8EEC33A02FE011AEE
S315020017B031EE031A21EE000A23B1B8FE400ABDEE4D
S315020017C0C00A05E0B7EEC00ABBFE400BBDEEC00B79
S315020017D010EE100A0139884250EAB180BCF1000FBE
S315020017E018BF20EAE07080BD0000000045F2C80084
S315020017F0C2F20020704740F2C800C2F202207047CF
S3150200180041F6C830C2F20220704742F28820C2F284
S315020018100220704742F68830C2F20220704743F235
S315020018204820C2F20220704743F2F830C2F2022088
S3150200183070472DE9F04F89B0044649F2A460C0F220
S31502001840052049F2B462C0F205224DF25029016820
S315020018504AF25020C2F20220C2F2082900EB010B22
S3150200186049F2A861C0F205210968461811684718AD
S3150200187049F2B061C0F2052149F2AC62C0F205221A
S3150200188009684518116800EB010A4AF2D0414AF28A
S31502001890CC42C0F20621C0F2062209681268494407
S315020018A0089109EB020107914AF2C841C0F20621EA
S315020018B049F2A062C0F205220968126849440691FB
S315020018C045F2C8011044C2F200214FF4D8320AF0A0
S315020018D02CFB204600F054F843F2F83042F68831E9
S315020018E043F24822C2F20220029043F23860C2F268
S315020018F00221C2F2022243F24468C2F20220CDE978
S31502001900032131463A462B46C2F20228CDE900A807
S31502001910FFF742FE4AF2C4404FF45852C0F2062084
S315020019205946006848440AF000FB4AF2C0404FF4A8
S31502001930D842C0F206204146006848440AF0F5FA49
S31502001940204600F08DF842F2882040F2C80141F6A6
S31502001950C832C2F2022000904AF24420C2F20221A8
S31502001960C2F20222C2F20220CDE901210899DDE982
S315020019700632FFF755FE09B0BDE8F08FD4D4D4D4B1
S31502001980B0B59EB041F6E0010025C0F20121CDE9D5
S315020019900C1541F6D8014AF25024C0F20121C2F2D6
S315020019A002240028CDE90E45096803914FF4C621A9
S315020019B0CDE910454FF4D8300690CDE9041104F56F
S315020019C0D831CDE912150BD045F2901120460AF016
S315020019D09EFA45F640404FF4077120440AF097FA02
S315020019E045F640411AA02144CDE918154CF2E461AE
S315020019F090ED001FC0F2002145F6F050204404F598
S31502001A005852CDE916250A684CF2F0610CABCDE9C5
S31502001A101A0504F5A240C0F20021CDE91C0590206A
S31502001A200B9003A8009042F66040C2F20F208DEDA3
S31502001A30071FCDE914450824CDE9014506F029F929
S31502001A4001305FEA1FA01EB0B0BD00BF00BF00BFDD
S31502001A5000360000001B0000B00100006C00000010
S31502001A60B0B59CB049F698624DF25024C0F20522F8
S31502001A7049F6A061C2F20824C0F205210C91116850
S31502001A80049104F55841129123A100250D95119553
S31502001A90CDE90E4591ED001F1094139515951494FA
S31502001AA08DED051F50B14FF4107120460AF02FFA42
S31502001AB004F534504FF407610AF029FA04F534515B
S31502001AC0CDE916154FF4D861099149F2B86104F5CA
S31502001AD04F50C0F20521CDE918054FF4D8700A908F
S31502001AE04FF410700B900A6804A8009042F660400A
S31502001AF049F2C061C2F20F20C0F205210CABCDE95A
S31502001B001A450824CDE9014506F0C3F801305FEA1B
S31502001B101FA01CB0B0BD00BF00440100004401007C
S31502001B20006C000000360000002840D0008841F218
S31502001B305063C2F20A23810701D50121197041F2CD
S31502001B40536C41F25462C107C2F20A2CC2F20A2253
S31502001B5019D080B50021197041F2516E41F25263DB
S31502001B60C2F20A2EC2F20A238EF80010197001215F
S31502001B708CF80010117041F25561C2F20A2102235B
S31502001B800B70BDE88040810604D500218CF8001058
S31502001B900121117040060AD541F2566042F2273100
S31502001BA0C2F20A20018001208CF8000010707047F2
S31502001BB02DE9F04FADF51D7D01208DF8040041F2AF
S31502001BC05260C2F20A20007838B141F25060C2F285
S31502001BD00A20007808B1012045E041F2586541F239
S31502001BE05568C2F20A2541F256694AF67466C2F28D
S31502001BF00A282878C2F20A29C0F20626012802D14A
S31502001C003468B76816E0002088F8000040F2E93030
S31502001C10A9F8000000F0B1FEB768D6E900413A68BB
S31502001C202046904720B16FF39F2000F57A7014E0AA
S31502001C3001202870002088F8000040F2EA30A9F856
S31502001C40000000F09AFE7A6A0DF1050120469047DF
S31502001C5068B16FF39F2000F5FA60A9F8000003202F
S31502001C6088F8000000200DF51D7DBDE8F08F42F6D4
S31502001C70A84001AAC2F20F2040F6075107F053FF0F
S31502001C809DF804109DF80720C9B208435FEA1F9029
S31502001C9052B948B941F250610020C2F20A210870D5
S31502001CA0022188F80010DEE741F250600121C2F2FB
S31502001CB00A20017041F25160C2F20A20007838B35C
S31502001CC04CF253440020C0F20024002221464FF079
S31502001CD0000AFEF715FA41F270654FF40C71C2F272
S31502001CE00A2528460AF013F94FF47B7088F800A0FB
S31502001CF0A9F8000000F041FE012228462146FEF71F
S31502001D00FFF9B8B300F57A60A9F80000042059E09B
S31502001D104FF4FA704FF47A7109F0BBFE41F25C653A
S31502001D204FF0000BC2F20A254FF0000A00BF00BFB7
S31502001D300AF2074088F800B0A9F8000080B200F065
S31502001D401CFE7A6820462946904700283FD0064660
S31502001D50BAF1020F0AD04FF496704FF47A710AF173
S31502001D60010A09F096FEBAF1030FE1D1304600F0FE
S31502001D70FAF872E741F6A0044FF4F471C2F20A24AB
S31502001D8004F118000AF0C3F84AF2D440C0F2062061
S31502001D9090E8EE0040F2ED30EEC488F800A0A9F813
S31502001DA0000000F0EAFD4CF2FE3102A8C0F200216A
S31502001DB00A22FEF739FB88B141F2D4710844A9F828
S31502001DC00000052088F8000000F036F94AE741F2E3
S31502001DD051610120C2F20A21087071E740F2EE3029
S31502001DE0002488F80040A9F8000000F0C6FD41F67C
S31502001DF0A00102A8C2F20A214FF4007200F011FCFF
S31502001E004FF0000598B140F2EF3088F80040A9F88B
S31502001E10000000F0B2FD02A8FEF7B2FF30B141F6B3
S31502001E20380100250844A9F8000000E001254FF416
S31502001E307C7088F80040A9F8000000F09EFD02A818
S31502001E40FFF746F818B1B9F8001000297CD0002D2A
S31502001E50B7D040F2F130002488F80040A9F800001B
S31502001E6000F08BFD00F018F900283FF44FAF40F266
S31502001E70F23088F80040A9F8000000F07EFD0DF56A
S31502001E800C7A40F200050AF1090B02AC92AEC2F2DC
S31502001E9000250027302120463A4600F0E1FB304675
S31502001EA02146FFF724F838B930465146FFF7A3F822
S31502001EB048B13046FFF794F8012045F8270001376C
S31502001EC0042FE7D143E000259DF8390250B39DF86F
S31502001ED03802C0061FD4002008215A4600BF00BFA0
S31502001EE012F8013BA3F13A0414F10A0F0FD300EBE7
S31502001EF08000013903EB4000A0F13000F0D19DF8DB
S31502001F0041122E294FF0000150EA018000E0002024
S31502001F10A84250EA858530465146FFF76CF808B963
S31502001F202FF02FC03046FFF75BF84EF2FF0002ACEF
S31502001F30C0F2F55085424FF0010050EA259040F27A
S31502001F400005C2F20025B8E741F69C0136E741F2E8
S31502001F5052610120C2F20A2108700021A9F800107C
S31502001F6088F800007FE640F26C0249F64141C2F26F
S31502001F700022884211680ADC14282AD049F6404217
S31502001F8090421AD101F03F0000F6485152E049F65C
S31502001F904242904221D049F6474290420DD142F642
S31502001FA0EC7048F27F02C2F20F200068024019D09C
S31502001FB0531E1A4218D0092034E081B241F27B4204
S31502001FC0890851436422490C01FB120000F63C7158
S31502001FD030E0322060F39F112CE001F03F0000F662
S31502001FE0E44127E000201DE0C20710D1820710D489
S31502001FF0420710D4020710D4C20610D4820610D4A7
S3150200200010F0400F4FF0070050EA10900AE001204E
S3150200201008E0022006E0032004E0042002E0052096
S3150200202000E0062001F03F0101EB810100EB4100D7
S3150200203000F6B83188B27047B0B54CF25341002071
S31502002040C0F2002100220024FEF75AF841F2586538
S31502002050C2F20A252878012807D14AF67460C0F22E
S31502002060062081680068096B884741F2516041F297
S315020020705261C2F20A20C2F20A212C7004700C705C
S3150200208041F2546041F25361C2F20A20C2F20A21BD
S3150200209004700C70B0BDD4D470B58CB04CF21E4036
S315020020A0C0F20020FFF7A4F810F0F70F08D14CF2A7
S315020020B0C050C0F20020FFF79BF810F0F70F0AD0CD
S315020020C041F28831084441F25661C2F20A2108807F
S315020020D000200CB070BD00266C4600BF00BF00BFDA
S315020020E0F5B2302120462A4600F0BAFA2046FFF71A
S315020020F07FF810F0F70FE3D1032D06F10106EFD3B7
S315020021000120E6E7D4D4D4D42DE9F04F03AFADF2E3
S315020021109C4D6C466FF30404A5460C4641F256618B
S31502002120C2F20A21834600284FF00000088000F020
S31502002130BC80032C00F2B980FFF73AFD002800F0BC
S31502002140B38040F200000DF12808C2F200203821C7
S31502002150224650F82450404600F082FA404609F0E2
S31502002160F5FE411C0894372903D82F2208F80020CF
S3150200217008464FF0000C08F800C04FF0080E9DA963
S3150200218049F280644CF6CD4A01F10109C0F2980485
S31502002190CCF6CC4A00BF00BFB5FBF4F18DF875C290
S315020021A0A1FB0A23DA0802EB8202A1EB42014A46AC
S315020021B041F0300608EB0001431C372B07D801F823
S315020021C0016B12F8016B18460EB12FF00BC8A4FB77
S315020021D00A1208F800C0D4080FF023C007954FF082
S315020021E0040E4CF26D32C0F2002208EB00010132FD
S315020021F02E2300BF00BF00BF461C372E06D801F8AB
S31502002200013B12F8013B30460FF00BC0002408F8E0
S31502002210004018A84FF4007109F079FE41F25566A4
S3150200222041F25665C2F20A26C2F20A2544F6425025
S31502002230ADF860004FF4D970ADF8630002208DF856
S315020022406B0028208DF86E00C0208DF872008DF884
S31502002250760001208DF87A0018208DF87C004FF464
S31502002260D870ADF8830040F61330ADF88600ADF8AD
S315020022708A0040F24D403470288000F07EFB9DA813
S315020022800A224146FEF7D0F8A0B141F27071084425
S3150200229028802888052100284FF0000002D141F647
S315020022A03F722A80317000E00020A7F10C04A54697
S315020022B0BDE8F08F40F24E403470288000F05DFB9E
S315020022C09DA818A94FF4007200F0ABF9002800F09F
S315020022D083804FF000084AF6AB294FF0FC0A4FF014
S315020022E0C00C00BF00BF00BFACF101000990C0EBFB
S315020022F000114AF6AB200901CAF6AA20A1FB001278
S315020023001FFA88F1C90041F6A020D20911FA88F312
S31502002310C2F20A2002EB820100EB8312C02040F0D7
S3150200232001E089010232002303EB83040133A40195
S31502002330A4B204FB09F401EBD4540BEB44061BF8DC
S3150200234014407678C4F3820544EA062045EAC404BA
S31502002350C6F341050AEAD00002F8024C284402F804
S31502002360010C06F0F80040EA561002F8030B0FF0D3
S3150200237025C8BCF1010F08F1010805D01FFA88F043
S31502002380102801D001241FE041F255600025C2F257
S315020023900A2040F24F411FFA88F4057041F2566056
S315020023A0C2F20A20018040F24F4000F0E6FAE00055
S315020023B041F6A02110FA88F0C2F20A2182019DA8F4
S315020023C0A84600F02EF90446DDF824C0BCF1000F41
S315020023D018BF002C7FF488AF41F2556641F256656C
S315020023E0C2F20A26C2F20A25002030704FF48A6031
S315020023F0288000F0C2FA9DA8FEF76AFD30B129884E
S3150200240000297FF446AF41F6641140E7002C3FF401
S3150200241040AF4EF2FF00079AC0F2F550012140F29A
S315020024200003824251EA2290089AC2F2002343F83C
S3150200243022000022012034E741F25560C2F20A204E
S3150200244000787047032801D90020704740F2000146
S31502002450C2F2002151F82000013838BF002070472F
S3150200246041F25660C2F20A200088704708B1012084
S31502002470704741F25160C2F20A20007800285FEAF2
S315020024801F90704708B10120704741F25060C2F2B6
S315020024900A20007840B141F25160C2F20A20007867
S315020024A000285FEA1F9070470320704700284FF00C
S315020024B004002BD151B34BB341F25160C2F20A2050
S315020024C0007810B3B0B54AF6746041F2546CC0F2AB
S315020024D0062041F25364C2F20A2CC2F20A2485682B
S315020024E04FF0000E8CF800E084F800E00068AD685A
S315020024F0A84760B141F6A47151FA80F041F25661E3
S31502002500C2F20A2108800120B0BD0420704700F003
S3150200251003F880F00100B0BDB0B541F2546540F257
S31502002520DC54C2F20A2500BF287878B901204FF49C
S315020025307A7109F0AEFA013CF6D141F2566042F2E6
S315020025402631C2F20A2001800020B0BD41F253605A
S31502002550C2F20A20007800285FEA1F90B0BD002868
S315020025604FF004002BD151B34BB341F25160C2F28A
S315020025700A20007810B3B0B54AF6746041F2546C82
S31502002580C0F2062041F25364C2F20A2CC2F20A24B5
S3150200259085684FF0000E8CF800E084F800E00068D1
S315020025A0ED68A84760B142F2080151FA80F041F2A3
S315020025B05661C2F20A2108800120B0BD042070478C
S315020025C0FFF7AAFF80F00100B0BDD4D408B1032002
S315020025D07047084641F25161C2F20A210978002980
S315020025E0F5D003281BD8DFE800F01B02090EB2B1B2
S315020025F041F25C60C2F20A2080680DE07AB14FF4C3
S315020026000070108009E052B141F25C60C2F20A2009
S315020026100069012898BF012010600020704704203D
S31502002620704710B582B014460022019201AB2246D1
S31502002630FEF736FA18B141F65831084406E0019819
S31502002640A04201D1012007E041F63F7041F25661F6
S31502002650C2F20A210880002002B010BDD4D4D4D41C
S3150200266010B5002303704FF00B0E4CF23B43C0F241
S31502002670002301334FF0300C044600BF00BF00BFF9
S3150200268004F801CB13F801CB0FF007C00346002470
S315020026904FF0060E4FF0490C03F80B4F4CF2D5449F
S315020026A0C0F20024013400BF03F801CB14F801CBB9
S315020026B00FF007C02F23A0F811304AF2F043C0F200
S315020026C0062353F8224094F800E0BEF1000F12D020
S315020026D0A1F1010CA1F1130300F11202013412213E
S315020026E05BB102F801EB013114F801EB013BBEF1DB
S315020026F0000FF5D102E0122100E0614600224254A9
S3150200270010BD70B1007940F21002C2F20022411EE1
S315020027100229107005D845F2A0600121C2F20A20F2
S31502002720017070472DE9F04F81B045F2A36A40F27D
S315020027301109C2F20A2A45F2A16145F2A266C2F263
S3150200274000299AF80000C2F20A21C2F20A264AF6C3
S31502002750C45700244FF0020B0128C0F206278DF859
S31502002760034089F800B00C70347005D1B968386836
S31502002770C96988478AF8004042F6A84540F2051121
S31502002780C2F20F2500222846002407F0DDF91420A4
S315020027904FF47A7109F07DF940F2051101222846BB
S315020027A04FF0010807F0D0F94FF496704FF47A71A2
S315020027B009F06FF9A420C4F2400001880088C1F331
S315020027C0C0210BEAD02008443070032824D197E8B0
S315020027D007001268904708B100241FE001208AF81A
S315020027E000000DF10301A320012200F01DF880B1C3
S315020027F09DF803004FF00308411EFE2945F2A16130
S315020028005FEA2F94C2F20A21087038BF4FF000081F
S3150200281002E000244FF0020889F80080204601B049
S31502002820BDE8F08FD4D4D4D42DE9F04F81B045F26F
S31502002830A3630027C2F20A238DF803001B78012B3B
S3150200284053D14AF6C45045F2A064C0F2062040F2C3
S31502002850100AC2F20A24C2F2002AD0F808800E46F2
S31502002860277001218AF80010D0F800909346D8F814
S3150200287008500DF10301012201234846A847A0BBD7
S315020028804FF2FF65CFF6C275284600BF00BF00BFF4
S315020028902178013011B908B12FF007C000B39AF8B8
S315020028A0000003281CD10027277001208AF80000A7
S315020028B0D8F804C00023484631465A46E04720B1BC
S315020028C013E000BF00BF00BF1DB12078013500280C
S315020028D0FAD02DB19AF80000022801D1012704E0AE
S315020028E0D8F80C10484688470027384601B0BDE89C
S315020028F0F08FB0B582B04FF00005B8B1044605714D
S315020029000DF1030102200522FFF78EFF70B19DF83B
S31502002910030000F00F00C11E11F1020F05D39DF84E
S31502002920041001F0C002402A03D10025284602B055
S31502002930B0BD01F00F019DF805209DF806309DF807
S31502002940075042EA012103F00F028B09042B45EAE4
S31502002950022298BFB2F5F07F08D34B0900250E2B51
S31502002960E4D89309042B1346E0D801E00B4611463E
S315020029700125238061802071D8E7B0B594B001ADFE
S3150200298004464C21284609F0C2FA01208DF8280097
S315020029908DF82C002846ADF82E4001F0B1FC14B09B
S315020029A0B0BD45F2A4610068C2F20A21C3070A68F3
S315020029B040EA0200086008BF704745F2A86001219C
S315020029C0C2F20A2001707047B2B000F081FBFFF735
S315020029D0A9FE81460220494602F0BAFD03F064FDD3
S315020029E098B1C11C4FF62051CFF6FF7108BF6FF4A4
S315020029F0FC6110F1030F84BF4FF60001CFF6FF71A1
S31502002A0088B201F02DFA00BFFEE742F654504AF6AC
S31502002A103061C2F20F20C0F2062108F095FB20B108
S31502002A204FF61F0001F01CFAFEE703F0B5FF20B1D6
S31502002A301F2001F015FA00BFFEE703F0A6F920B148
S31502002A404FF6205001F00CFAFEE7022003F030FAAE
S31502002A5003F07BFF45F2A46645F2A868C2F20A2695
S31502002A60C2F20A28002445F2C067346088F80040A2
S31502002A70BFF35F8F42F65450C2F20A27C2F20F200A
S31502002A80394608F0A6FC20B140F2FF7001F0E8F9E1
S31502002A90FEE724A849F69A1A0C30049011A80122DE
S31502002AA000F12C0103910430029002200D90B6EE43
S31502002AB0009A9FEDD38A9FEDD3AA9FEDD3BA9FEDDD
S31502002AC0D3CAC1F6991A4FF6E075002005900C900C
S31502002AD0CDE908000021CDF81890CDE90F0700BF17
S31502002AE0B9F1000F5FEA0F9011F0010F5FEA108053
S31502002AF007920A910B900027DDF8409000BF00BFB5
S31502002B0041F20120C0F27A0098F8001021B901388A
S31502002B10FAD105E100BF00BFBFF35F8F306810F442
S31502002B20010F40F0FD8045F2C0614AF6C060C2F274
S31502002B300A21CDF83890C2F20C20894550EA018963
S31502002B400B9800284BD011A8CDF840904FF6E075AF
S31502002B50FFF7CFFE81460F98814510D0264640F2F8
S31502002B60FF74B9F1000F4FF0080008BF4FF4FC6480
S31502002B700821172217230094344601F05DFB42F622
S31502002B805450B9F1000FC2F20F2000F082800F9963
S31502002B9000297ED1BDF84610BDF84400CA082E2A87
S31502002BA004D8672971D840F23F11081A81B28A09FE
S31502002BB0042A6AD84CF6CD424A430D99C9B2032972
S31502002BC04FEA925410D1022C3DD0012C39D0002C60
S31502002BD04CD10598013000F00300059039E042F629
S31502002BE05450C2F20F205CE0F03880B250281AD25C
S31502002BF0022003F05DF90598069CC6B2002100206A
S31502002C0009903046224602F0EFFD002200232046BC
S31502002C10314600F00DFA03200D90012007900A9824
S31502002C20089000202FE08C422ED0E6B2304603F008
S31502002C303FF93046069902F08BFC012007900D946D
S31502002C4022E00C9405E0099880F0010009900A98A8
S31502002C50089005980999C0B2069AC9B2002402F0F2
S31502002C60C3FD03200D90012007900EE002200221F1
S31502002C700D9103F01DF90220069902F069FC01206C
S31502002C800790002009900C90002442F65450C2F29C
S31502002C900F2045F2A466CDF83C90C2F20A26DDF872
S31502002CA040900D995FFA81FBBBF1030F2CD1099875
S31502002CB0089A10F0FF0F5FEA0F900A9991425FEAB5
S31502002CC000800C9919B910B900200C9018E00598EB
S31502002CD0CDF84090A146C4B209980123C2B20120A0
S31502002CE007900698214600F0A3F90E9821464C4615
S31502002CF0DDF84090FFF708FA00200C900A98089039
S31502002D0042F65450C2F20F20346088F80040BFF3F6
S31502002D105F8F494608F05DFB002861D000BF00BF07
S31502002D20346088F8004042F654504946BFF35F8F3C
S31502002D30C2F20F20013708F04CFB10B9082FFFF43E
S31502002D40DFAED346CA4642F654594FF6E075C2F292
S31502002D500F29484608F0FDFA4AF630614846C0F2A5
S31502002D60062108F0F1F990B111944DF2C041119883
S31502002D70C0F2010100BF00BF884205D2119801309E
S31502002D8011901198F8E700BFD146DA46B8E6002757
S31502002D90376088F80070484645F2C069BFF35F8F16
S31502002DA0C2F20A29494608F014FBDA4608B92FF09E
S31502002DB059C911944DF2C0411198C0F2010100BFE8
S31502002DC0884204D21198013011901198F8E745F221
S31502002DD0C0690027C2F20A2992E600BF00BF00BFFF
S31502002DE00D98000614D00020002100220023B0EE28
S31502002DF0480A00270B9703F09BF80E9E56E000BF89
S31502002E000000000000809F4300006F430000C8429C
S31502002E100E9803F0CDFD2CA804F07EFB0B9090B328
S31502002E209DED2E0A9DED301A30EE010A9DED2F1A08
S31502002E309DED312A20EE090A31EE021AB5EE400A5C
S31502002E40F1EE10FA48BFB0EE480AB4EE4A0A21EE95
S31502002E50091AF1EE10FAB5EE401A3AFE000AF1EE40
S31502002E6010FA48BFB0EE481AB4EE4B1AF1EE10FA59
S31502002E70BCEEC00A3BFE011ABCEEC11A10EE102AC5
S31502002E8011EE103A01E0002200239DF8B0100B98D3
S31502002E90002851EA10819DED2D0A08FE000AC9B2EA
S31502002EA003F046F80E9E304604F0BAF924A803F061
S31502002EB0CDFA49F20100A021C0F201004FF4A07C34
S31502002EC0304400BF00BF00BF4CF001E000220346C1
S31502002ED0A2FB0A760132F70708BF23F8015C023328
S31502002EE00FF00BC0013100F52070A229ECD10E982B
S31502002EF0CDF8409001F038F90A99DDF81890880764
S31502002F0003D00798002800F08B804821029808F029
S31502002F10FEFF9DF890009DF893108DF84500BDF8D0
S31502002F209100ADF84600269813900B988DF848004C
S31502002F30BDF8AC000024DDE903678DF844908DF8F6
S31502002F404B10ADF8540000BF57F8040B46F8180CA6
S31502002F502046FFF777FA013446F8040B042CF3D126
S31502002F60BBF1030F5FEA1F908DF86800FFF764FA62
S31502002F708DF8690005988DF86A0009988DF86B003E
S31502002F8000248DF86C40FFF76BFA0B99ADF86E00D2
S31502002F90002941D09DED2D0AB0EE491AA0EE0C1A79
S31502002FA09DED2E0A9DED302A9DED313A30EE020A54
S31502002FB09DED2F2A32EE032A40F23F13B0EE493A34
S31502002FC0A0EE093AB0EE490AA2EE090ABDEEC11A0E
S31502002FD0BDEEC32A11EE100ABDEEC00A12EE101A99
S31502002FE010EE102A20EAE070632821EAE17122EA53
S31502002FF0E272A8BF6320B1F59F7F51EAD381EF2A1F
S31502003000A8BFEF229DF8B0308DF84A008DF84930FE
S31502003010ADF85010ADF8522011A801F071F90A99D5
S3150200302045F2A46601310022C2F20A2658E5D4D43A
S315020030302DE9F04194B00DF104080E4607464C21E5
S3150200304040461C46154608F062FF8DF804700120C2
S315020030508DF82800FFF7F0F98DF829008DF82A601F
S315020030608DF82B508DF82C40FFF7FAF908F12C0554
S315020030700024ADF82E0000BF2046FFF7E3F9013425
S3150200308045F8040B042CF7D101A801F039F914B064
S31502003090BDE8F081022818BF704742F6A8404AF6FA
S315020030A0F071C2F20F20C0F2062106F031BD58B10E
S315020030B040F212010079C2F20021087040F2C060AB
S315020030C0C2F20F20012101707047D4D4D4D4D4D4D3
S315020030D02DE9F04F81B040F610108224C4F2400070
S315020030E0C4F240040025402180F8FC5380F8FC130A
S315020030F00422026080F8FC53802380F8FC3342F6F7
S3150200310081062788C2F20F2627F01007278080F84B
S31502003110FC5380F8FC13826180F8FC5380F8FC3380
S31502003120278827F48067278080F8FC5380F8FC13F1
S31502003130426180F8FC5380F8FC33278827F4007735
S31502003140278080F8FC5380F8FC13C26280F8FC5397
S3150200315080F8FC3320886FF3DF302080208840F02F
S3150200316010002080208820F480602080208840F48F
S3150200317000402080307848B94AF60461C0F2062140
S3150200318007C91268904708B901203070208840F4B8
S31502003190007020804DF2C0400095C0F2010000BFD1
S315020031A00099814203D2009901310091F8E7208803
S315020031B04AF68011C0F2030120F40070208000203C
S315020031C0009000BF00BF00BF009A8A4203D2009A55
S315020031D001320092F8E721884FF60015C0F2150574
S315020031E041F40071218000900098A84203D2009811
S315020031F001300090F8E7F7208DF8000020880121C1
S3150200320020F010002080208820F48060208068460C
S3150200321000F056FF2088012140F010002080A920EE
S315020032208DF80000208820F010002080208840F4CD
S3150200323080602080684600F043FF2088012140F02C
S315020032401000208051208DF80000208820F0100008
S315020032502080208840F480602080684600F030FF9D
S315020032602088012140F0100020802C208DF80000DB
S31502003270208820F010002080208840F48060208082
S31502003280684600F01DFF2088012140F010002080D2
S3150200329082208DF80000208820F0100020802088EF
S315020032A040F480602080684600F00AFF20880121F1
S315020032B040F010002080EC208DF80000208820F0DD
S315020032C010002080208820F480602080684600F06C
S315020032D0F7FE20880026012140F0100020808DF89C
S315020032E00060208820F010002080208840F4806052
S315020032F02080684600F0E4FE20884FF0020A012191
S3150200330040F0100020808DF800A0208820F01000E8
S315020033102080208840F480602080684600F0D0FE3D
S315020033202088012140F01000208003208DF8000043
S31502003330208820F010002080208840F480602080C1
S31502003340684600F0BDFE2088012140F01000208072
S315020033507A208DF80000208820F010002080208836
S3150200336040F480602080684600F0AAFE2088012191
S3150200337040F010002080C0208DF80000208820F048
S3150200338010002080208820F480602080684600F0AB
S3150200339097FE20881327012140F0100020808DF827
S315020033A00070208820F010002080208840F4806081
S315020033B02080684600F084FE2088012140F010003B
S315020033C020808DF80070208820F010002080208850
S315020033D040F480602080684600F072FE2088012159
S315020033E040F010002080C1208DF80000208820F0D7
S315020033F010002080208820F480602080684600F03B
S315020034005FFE2088012140F01000208041208DF8C7
S315020034100000208820F010002080208840F4806080
S315020034202080684600F04CFE2088012140F0100002
S315020034302080C5208DF80000208820F01000208012
S31502003440208820F480602080684600F039FE2088BB
S31502003450012140F0100020808DF80060208820F0C5
S3150200346010002080208840F480602080684600F0AA
S3150200347027FE2088012140F01000208028208DF8A8
S315020034800000208820F010002080208840F4806010
S315020034902080684600F014FE2088012140F01000CA
S315020034A0208080208DF80000208820F010002080E7
S315020034B0208840F480602080684600F001FE208863
S315020034C0B027012140F0100020808DF8007020887E
S315020034D020F010002080208820F48060208068463A
S315020034E000F0EEFD2088012140F0100020808DF8CA
S315020034F00060208820F010002080208840F4806040
S315020035002080684600F0DCFD2088012140F0100092
S315020035102080B1208DF80000208820F01000208045
S31502003520208820F480602080684600F0C9FD20884B
S31502003530012140F0100020808DF80070208820F0D4
S3150200354010002080208840F480602080684600F0C9
S31502003550B7FD2088012140F01000208011208DF84F
S315020035600000208820F010002080208840F480602F
S315020035702080684600F0A4FD2088012140F010005A
S315020035802080B4208DF80000208820F010002080D2
S31502003590208820F480602080684600F091FD208813
S315020035A0012140F0100020808DF800A0208820F034
S315020035B010002080208840F480602080684600F059
S315020035C07FFD2088012140F010002080B6208DF872
S315020035D00000208820F010002080208820F48060DF
S315020035E02080684600F06CFD2088012140F0100022
S315020035F020808DF800A0208820F0100020802088EE
S3150200360040F480602080684600F05AFD208801213F
S3150200361040F01000208022208DF80000208820F043
S3150200362010002080208840F480602080684600F0E8
S3150200363047FD2088012140F010002080B7208DF838
S315020036400000208820F010002080208820F480606E
S315020036502080684600F034FD2088012140F01000E9
S315020036602080C6208DF80000208820F010002080DF
S31502003670208840F480602080684600F021FD208882
S31502003680012140F010002080BE208DF80000208825
S3150200369020F010002080208820F480602080684678
S315020036A000F00EFD2088012140F0100020808DF8E8
S315020036B00060208820F010002080208840F480607E
S315020036C02080684600F0FCFC20880427012140F097
S315020036D0100020808DF80070208820F010002080D5
S315020036E0208840F480602080684600F0E9FC20884B
S315020036F0012140F010002080E9208DF8000020888A
S3150200370020F010002080208820F480602080684607
S3150200371000F0D6FC2088012140F0100020808DF8B0
S315020037200060208820F010002080208840F480600D
S315020037302080684600F0C4FC2088012140F0100079
S315020037402080F4208DF80000208820F010002080D0
S31502003750208820F480602080684600F0B1FC208832
S31502003760012140F0100020808DF80060208820F0B2
S3150200377010002080208840F480602080684600F097
S315020037809FFC2088012140F0100020808DF8006007
S31502003790208820F010002080208840F4806020805D
S315020037A0684600F08DFC20884FF00F09012140F099
S315020037B0100020808DF80090208820F010002080D4
S315020037C0208840F480602080684600F079FC2088DA
S315020037D0012140F010002080E0208DF800002088B2
S315020037E020F010002080208820F480602080684627
S315020037F000F066FC2088012140F0100020808DF840
S315020038000060208820F010002080208840F480602C
S315020038102080684600F054FC2088012140F0100008
S3150200382020808DF80070208820F0100020802088EB
S3150200383040F480602080684600F042FC20880E2713
S31502003840012140F0100020808DF80070208820F0C1
S3150200385010002080208840F480602080684600F0B6
S315020038602FFC20884FF0080B012140F01000208029
S315020038708DF800B0208820F010002080208840F4C7
S3150200388080602080684600F01BFC2088012140F001
S315020038901000208017208DF80000208820F01000EC
S315020038A02080208840F480602080684600F008FC72
S315020038B020884FF00A08012140F0100020808DF880
S315020038C00080208820F010002080208840F480604C
S315020038D02080684600F0F4FB2088012140F01000A9
S315020038E0208040208DF80000208820F010002080E3
S315020038F0208840F480602080684600F0E1FB208842
S31502003900012140F01000208079208DF800002088E7
S3150200391020F010002080208840F4806020806846D5
S3150200392000F0CEFB2088012140F0100020804D20BF
S315020039308DF80000208820F010002080208840F4B6
S3150200394080602080684600F0BBFB2088012140F0A1
S315020039501000208007208DF80000208820F010003B
S315020039602080208840F480602080684600F0A8FB12
S315020039702088012140F0100020808DF800702088F8
S3150200398020F010002080208840F480602080684665
S3150200399000F096FB2088012140F0100020808DF86F
S315020039A00080208820F010002080208840F480606B
S315020039B02080684600F084FB2088012140F0100038
S315020039C020801A208DF80000208820F01000208028
S315020039D0208840F480602080684600F071FB2088D1
S315020039E0012140F0100020801D208DF80000208863
S315020039F020F010002080208840F4806020806846F5
S31502003A0000F05EFB2088012140F0100020808DF836
S31502003A100090208820F010002080208840F48060EA
S31502003A202080684600F04CFB2088012140F01000FF
S31502003A302080E1208DF80000208820F010002080F0
S31502003A40208820F480602080684600F039FB2088B8
S31502003A50012140F0100020808DF80060208820F0BF
S31502003A6010002080208840F480602080684600F0A4
S31502003A7027FB2088012140F0100020801B208DF8B2
S31502003A800000208820F010002080208840F480600A
S31502003A902080684600F014FB2088012140F01000C7
S31502003AA020801F208DF80000208820F01000208042
S31502003AB0208840F480602080684600F001FB208860
S31502003AC0012140F0100020808DF800A0208820F00F
S31502003AD010002080208840F480602080684600F034
S31502003AE0EFFA2088012140F01000208010208DF886
S31502003AF00000208820F010002080208840F480609A
S31502003B002080684600F0DCFA2088012140F010008F
S31502003B10208005208DF80000208820F010002080EB
S31502003B20208840F480602080684600F0C9FA208828
S31502003B30012140F01000208032208DF800002088FC
S31502003B4020F010002080208840F4806020806846A3
S31502003B5000F0B6FA2088012140F0100020803420BF
S31502003B608DF80000208820F010002080208840F484
S31502003B7080602080684600F0A3FA2088012140F088
S31502003B801000208043208DF80000208820F01000CD
S31502003B902080208840F480602080684600F090FAF9
S31502003BA02088012140F0100020808DF800A0208896
S31502003BB020F010002080208840F480602080684633
S31502003BC000F07EFA2088012140F0100020808DF856
S31502003BD00080208820F010002080208840F4806039
S31502003BE02080684600F06CFA2088012140F010001F
S31502003BF0208009208DF80000208820F01000208007
S31502003C00208840F480602080684600F059FA2088B7
S31502003C10012140F01000208033208DF8000020881A
S31502003C2020F010002080208840F4806020806846C2
S31502003C3000F046FA2088012140F01000208037204B
S31502003C408DF80000208820F010002080208840F4A3
S31502003C5080602080684600F033FA2088012140F017
S31502003C60100020808DF80090208820F0100020801F
S31502003C70208840F480602080684600F021FA20887F
S31502003C80012140F010002080F4208DF800002088E9
S31502003C9020F010002080208820F480602080684672
S31502003CA000F00EFA2088012140F0100020808DF8E5
S31502003CB00060208820F010002080208840F4806078
S31502003CC02080684600F0FCF92088012140F01000AF
S31502003CD020808DF80060208820F010002080208847
S31502003CE040F480602080684600F0EAF920880121CD
S31502003CF040F0100020808DF80090208820F01000FF
S31502003D002080208840F480602080684600F0D8F940
S31502003D102088012140F01000208036208DF8000016
S31502003D20208820F010002080208820F480602080E7
S31502003D30684600F0C5F92088012140F01000208075
S31502003D408DF800B0208820F010002080208840F4F2
S31502003D5080602080684600F0B3F92088012140F097
S31502003D60100020803A208DF80000208820F01000F4
S31502003D702080208820F480602080684600F0A0F928
S31502003D802088012140F01000208066208DF8000076
S31502003D90208820F010002080208840F48060208057
S31502003DA0684600F08DF92088012140F0100020803D
S31502003DB021208DF80000208820F010002080208825
S31502003DC020F480602080684600F07AF9208801217C
S31502003DD040F01000208011208DF80000208820F08D
S31502003DE010002080208820F480602080684600F041
S31502003DF067F9208840F010002080009600BF00BFBF
S31502003E000098A84203D2009801300090F8E72920D2
S31502003E108DF80000208842F2C0750121C0F2090522
S31502003E2020F010002080208820F4806020806846E0
S31502003E3000F046F9208840F010002080009600BF6E
S31502003E400098A84203D2009801300090F8E70020BB
S31502003E5000F006F801B0BDE8F08FD4D4D4D4D4D49F
S31502003E6070B5F821FC2301EA102100F01F0600F0CC
S31502003E701C0241EA503103EAD000F3004FF4A07E5F
S31502003E8040F2C166C2F20F2643EA9202B31C00BF99
S31502003E9003F8021C03F8010C03F8032B0FF009C008
S31502003EA082250020002140F23F1240F2DF13C4F2C5
S31502003EB0400540F2DF1600F01EF8288840F2C16481
S31502003EC0C2F20F2420F010002880288840F4806077
S31502003ED0288000BF00BF00BF4FF47071204600F07B
S31502003EE0EFF818B9002EA6F10106F5D1288840F0A0
S31502003EF01000288070BD2DE9F04383B082242A2762
S31502003F00C4F240048DF8017089460121278898463B
S31502003F10164627F0100727802588074625F4806075
S31502003F2020800DF1010000F0CBF82088012140F03D
S31502003F3010002080380A8DF80200208820F0100038
S31502003F402080208840F4806020800DF1020000F07D
S31502003F50B7F82088012140F0100020808DF8037008
S31502003F60208820F010002080208840F48060208085
S31502003F700DF1030000F0A4F82088012140F01000A2
S31502003F802080300A8DF80400208820F0100020805E
S31502003F90208840F48060208001A800F091F82088F3
S31502003FA0012140F0100020808DF80560208820F065
S31502003FB010002080208840F4806020800DF10500EA
S31502003FC000F07EF82088012140F0100020802B208E
S31502003FD08DF80600208820F010002080208820F42A
S31502003FE0806020800DF1060000F06AF82088012129
S31502003FF040F0100020804FEA19208DF80700208833
S3150200400020F010002080208840F4806020800DF18E
S31502004010070000F055F82088012140F010002080AA
S315020040208DF80890208820F010002080208840F427
S315020040308060208002A800F043F82088012140F029
S31502004040100020804FEA18208DF80900208820F001
S3150200405010002080208840F4806020800DF1090045
S3150200406000F02EF82088012140F0100020808DF803
S315020040700A80208820F010002080208840F480608A
S3150200408020800DF10A0000F01BF82088012140F083
S31502004090100020802C208DF80B00208820F01000C4
S315020040A02080208820F4806020800DF10B0000F033
S315020040B007F8208840F01000208003B0BDE8F083A6
S315020040C02DE9F04700284FF000064AD00D46002998
S315020040D047D042F681070446C2F20F274AF6046029
S315020040E0C0F206203978D0F80090D0F808A039B985
S315020040F0DAF80020416848469047B0B90120387086
S3150200410040F2C06740F21208C2F20F27C2F200283C
S31502004110002007233870022088F800004846DAF8A3
S31502004120086021462A46B04708B1064619E04BF216
S31502004130C040CFF6B37000BF397819B9002800F134
S315020041400100F9D13878012805D198F80000012834
S3150200415003D1002605E0142601E04FF4967601F01D
S3150200416003FD3046BDE8F0872DE9F04F81B00546E4
S3150200417082240020782140F23F1240F26713C4F2F3
S3150200418040044FF0000BFFF7B6FE208805F1010848
S315020041904FF4A0791C2620F010002080208840F4DD
S315020041A08060208040F68120C2F20F20023000900B
S315020041B04FF0000C4146009F49F001E00B463A469B
S315020041C013F8015C13F8024B04F0F80006EAD50A6C
S315020041D040EA541002F8020C4AEA441002F8010CB2
S315020041E0C5F3820040EAC50002F8030B0FF019C0BE
S315020041F00CF1010C07F57077BCF1080F01F520717F
S31502004200DAD140F681204FF4F051C2F20F20FFF7C7
S3150200421057FF30B9BBF1E80F0BF1080B08F5A058B0
S31502004220C6D38221C4F24001088840F010000880FB
S3150200423001B0BDE8F08FD4D4904288BF70472DE913
S31502004240F04381B00D4659091C460E2953D89109EF
S31502004250042998BFA5424ED8111A11F101091FD29D
S31502004260089BF82103F01C0C03F01F0640F2C168FC
S3150200427001EA1321FC27F600C2F20F2849F001E0F9
S3150200428041EA533107EAD30346EA9C0708F10206DC
S3150200429006F8021C06F8013C06F8037B0FF009C07B
S315020042A040F2820829462346C4F24008FFF723FE5D
S315020042B0B8F8000040F2C16709EB4906C2F20F27BF
S315020042C020F01000A8F80000B8F8000040F4806062
S315020042D0A8F8000000BF00BF38463146FFF7F0FEDF
S315020042E018B90135A8B2A042F6D9B8F8000040F0D4
S315020042F01000A8F8000001B0BDE8F0437047D4D41E
S31502004300002800F099822DE9F04FA9B0024609A8CB
S315020043107021009207F0FBFD009991F83C000028FD
S315020043203DD04CF2E2304FF00B0EC0F200200130CD
S3150200433057230021002700BF7A1C1B2A03D809AE87
S31502004340F3551746B15410F8013B0FF00BC840F273
S31502004350FF70ADF81C004CF232614FF0060E09A850
S31502004360C0F200211C304A1C4726002300250024E7
S31502004370671C1B2F03D806553D463C46C35512F80B
S31502004380016B0FF00BC8009A2595D17929B3B2F9C2
S31502004390102025A901F005FC4FF4FC6034E091F8E9
S315020043A024004FF600024CF2FB384CF21549002865
S315020043B0CFF6FF72C0F20028C0F2002900F03D825B
S315020043C091F825C0BCF1050F00F244824AF248502A
S315020043D0C0F2062050F82C1040E24CF2A4514FF0E5
S315020043E0020EC0F200214A1C2D27002300BF00BF87
S315020043F0611C1B2902D807550C46435412F8017B4F
S315020044000FF00BC048F21040ADF81E0009A800F1EB
S3150200441038084CF272304FF0040EC0F20020013020
S315020044205227002100250022531C1B2B05D808F811
S3150200443002701D461A4608F8031010F8017B0FF0A9
S315020044400DC8009825A92595B0F94820404601F0E7
S31502004450A8FB4CF28B504FF0040E259EC0F20020B2
S31502004460411C2023002200BF701C1B2804D808F818
S315020044700630064608F8002011F8013B0FF00DC081
S31502004480009848F29F61C0F201010DF19A02406C58
S315020044904CF6CD43884250EA3184511E0027CCF6B1
S315020044A0CC430A4600BF00BFA4FB03050A2C07F152
S315020044B0010E4FEAD50505EB8500A4EB400040F05E
S315020044C0300002F8010F03D3092F2C467746EBD3AF
S315020044D0002700BF00BF00BF701C1B2805D8157837
S315020044E008F8007008F806500646013A0FF00DC0AB
S315020044F06FF01F004FF0030E1F30ADF8200009A821
S3150200450000F1540C4CF20C40C0F200204FF6E07B56
S315020045100130522500240022571C1B2F04D80CF808
S3150200452002503A460CF8074010F8015B0FF00DC036
S315020045300098076C44F23F20C0F20F00874257EA08
S315020045403084002000BF00BFA4FB03650A2C00F1E3
S31502004550010E4FEAD50505EB8506A4EB460646F0A5
S31502004560300601F8016F03D309282C467046EBD3B7
S31502004570002000BF00BF00BF531C1B2B05D80C78C0
S315020045800CF803000CF802401A4601390FF00DC070
S315020045904CF2A7504FF0060EC0F200200130202345
S315020045A0002100BF00BF00BF561C1B2E04D80CF80A
S315020045B0023032460CF8061010F8013B0FF00DC01F
S315020045C0002F04BF4FF6000BCFF6FF7B822400209C
S315020045D0002140F23F126F23C4F24004ADF822B02C
S315020045E0FFF789FC208840F2C166C2F20F2620F04E
S315020045F010002080208840F4806020800024B01CB7
S31502004600019000BF00BF00BFA5B243F286101B2D6A
S31502004610029404D0362D18BF512D40F0FD8000F0D3
S315020046200402302100F006034FF4A07701EA1021BC
S31502004630DB0047F001E041EA5031C00843EA92024A
S31502004640019B00BF00BF00BF03F8021C03F8010C68
S3150200465003F8032B0FF009C00021039500BF00BF2A
S315020046604AF240500491C0F2062030F81100854209
S31502004670C0F09B8000F10E01039A89B28A4280F053
S315020046809480049909AAC1EBC10102EB810106914A
S315020046900978002900F08980049F07AAFC24002FCC
S315020046A04FF0000832F817304FF0F8024FF00807C3
S315020046B002EA132203F01C0C42EA533203F01F05EE
S315020046C004EAD303029CA4EB00004FEAC50580B2BC
S315020046D045EA9C0508BF2027400805970127874021
S315020046E0A1F13004092C0BD84AF2AF5001EB81013B
S315020046F0C0F206200144F03924E000BF00BF00BF2B
S31502004700A1F14104192C0BD84AF2E15001EB8101C7
S31502004710C0F206200144A1F2451113E000BF00BF1A
S315020047204AF2AA504AF2A0542529C0F20620C0F243
S31502004730062450EA04844AF2A5502D29C0F2062026
S3150200474050EA048108EB480405984FF0000B00EB91
S31502004750840A00BF00BF00BF11F80B40274217D0E2
S3150200476002200AEB4B0C40F001E04FF0000900BFBB
S315020047704FEA9C14042C07D849EA0C0404EB4404BF
S3150200478030193255437085704FF001090FF011C090
S315020047900BF1010BBBF1050FDED108F101080698FA
S315020047A010F8081009B12FF065C80499039D01316C
S315020047B004297FF455AF029C0023E01F80B2102823
S315020047C01ED200984FF4FC611022007800284FF0A8
S315020047D0F80008BF4FF4784100EA112042F001E0E8
S315020047E040EA5130C90806F11A0200BF00BF00BFF5
S315020047F002F8020C02F8011C02F8033B0FF009C092
S315020048004FF470713046FFF75BFC58B96F2D04F117
S315020048100104FFF4F9AE05E000206C2D08BF43F257
S315020048208610FCE68221C4F24001088840F010009E
S31502004830088029B0BDE8F04F704791F801C0BCF17D
S31502004840020F00F27C824AF27050C0F2062050F843
S315020048502C0078E24CF26841C0F200214CF29A40F8
S315020048604FF0050EC0F20020431C44260027002507
S31502004870681C1B2803D809AC66550546275413F84D
S31502004880016B0FF00BC80F7877B10131002300BF1F
S31502004890681C1B2803D809AE77550546335411F810
S315020048A0017B0FB12FF00DC0BCF1000F09A808BFA4
S315020048B06FF01F02BCF1010F00F11C0108BF4FF49B
S315020048C0FC62ADF81C204CF2DB304FF0060EC0F253
S315020048D000204FF6E07B013043270023002500BF6E
S315020048E06A1C1B2A02D84F5515468B5410F8017BB9
S315020048F00FF00BC0009890F82630032B06D84AF228
S315020049006050C0F2062050F8230003E04CF210403B
S31502004910C0F20020067876B10130002700BF00BF42
S315020049206A1C1B2A02D84E5515468F5410F8016B85
S315020049300EB12FF00BC84CF231404FF0060EC0F20A
S3150200494000200130202600276A1C1B2A02D84E5559
S3150200495015468F5410F8016B0FF00BC000984CF2FD
S3150200496060324CF23847C0F2002290F82700C0F2BB
S315020049700027002852EA0780067866B10130002730
S315020049806A1C1B2A02D84E5515468F5410F8016B25
S315020049900EB12FF00BC8032B06D84AF21050C0F204
S315020049A0062030F8130001E048F21040ADF81E0070
S315020049B009A800F138034CF23E504FF0070EC0F240
S315020049C000200130532200214FF0000A00BF00BF31
S315020049D00AF101061B2E03D803F80A20B24699559E
S315020049E010F8012B0FF00DC0009940F2E730CA6AA9
S315020049F00DF19A018242059252EA30854F1E4CF61B
S31502004A00CD420020CCF6CC423C4600BF00BF00BFE0
S31502004A10A5FB02160A2D00F1010E4FEAD60101EBA3
S31502004A208106A5EB460646F0300604F8016F03D36D
S31502004A3009280D467046EBD3002000BF00BF00BF19
S31502004A400AF101011B2904D82678585403F80A6092
S31502004A508A46013C0FF00DC04FF0020E08F101002C
S31502004A602025002100BF00BF0AF101061B2E03D834
S31502004A7003F80A50B246995510F8015B0FF00DC0C3
S31502004A80009940F2E730CDF818C03C46D1F830C064
S31502004A9084455CEA30850020A5FB02160A2D00F14A
S31502004AA0010E4FEAD60101EB8106A5EB460646F05A
S31502004AB0300604F8016F03D309280D467046EBD37E
S31502004AC0002000BF00BF00BF0AF101011B2904D864
S31502004AD02578585403F80A508A46013C0FF00DC057
S31502004AE04FF0020E4CF20950C0F20020411C202465
S31502004AF0002000BF00BF00BF0AF101051B2D03D82D
S31502004B0003F80A40AA46585511F8014B0FF00DC09A
S31502004B10009940F2E730D1F834803946804558EAA8
S31502004B203084002000BF00BFA4FB02650A2C00F1FE
S31502004B30010E4FEAD50505EB8506A4EB460646F0BF
S31502004B40300601F8016F03D309282C467046EBD3D1
S31502004B50002000BF00BF00BF0AF101041B2C04D8CD
S31502004B600D78185503F80A50A24601390FF00DC008
S31502004B704FF0020E09F101012024002000BF00BF00
S31502004B800AF101051B2D03D803F80A40AA46585517
S31502004B9011F8014B0FF00DC0009940F2E730D1F841
S31502004BA038903946814559EA3084002000BF00BF5B
S31502004BB0A4FB02650A2C00F1010E4FEAD50505EBAE
S31502004BC08506A4EB460646F0300601F8016F03D3CC
S31502004BD009282C467046EBD3002000BF00BF00BF59
S31502004BE00AF101041B2C04D80D78185503F80A5053
S31502004BF0A24601390FF00DC00098468D0BF11F0039
S31502004C00ADF8200009A800F1540A16B34CF2396037
S31502004C104CF24651069BC0F20020C0F20021002B46
S31502004C2050EA018000210478002C00F0A880451C7F
S31502004C30002300BF00BF00BF581C1B2804D80AF877
S31502004C40034003460AF8001015F8014B002CF3D175
S31502004C5096E04CF2DC404FF0060EC0F20020411CFA
S31502004C6054250020002600BF731C1B2B04D80AF80B
S31502004C7006501E460AF8030011F8015B0FF00DC03C
S31502004C80059842F20F71604440444844884250EA13
S31502004C903185002000BF00BFA5FB02130A2D00F1DB
S31502004CA0010E4FEAD30101EB8103A5EB430343F067
S31502004CB0300307F8013F03D309280D467046EBD3AC
S31502004CC0002000BF00BF00BF711C1B2905D83A781F
S31502004CD00AF801000AF806200E46013F0FF00DC041
S31502004CE01A2E04D8701C20212AF8061006460098AF
S31502004CF04CF2AE514CF2B952C0F2002190F82800A3
S31502004D00C0F20022002851EA02810F788FB10131E8
S31502004D10002200BF00BF00BF731C1B2B04D80AF879
S31502004D2006701E460AF8032011F8017B0FB12FF018
S31502004D300DC8002808BF40F2FF7BFFF747BC4CF2C4
S31502004D401750C0F2002007780024002F48D0451CD7
S31502004D50002300BF00BF00BF581C1B2804D809AEA1
S31502004D608146F7540346345415F8017B0FB12FF0F0
S31502004D700DC81A2BCDF8949039D85F1C32E0002367
S31502004D8042F20F700021864256EA308500BF00BF0C
S31502004D90A5FB02060A2D01F1010E4FEAD60606EB25
S31502004DA08600A5EB400040F0300007F8010F03D360
S31502004DB0092935467146EBD3002100BF00BF00BF6B
S31502004DC05A1C1B2A05D838780AF802100AF803007A
S31502004DD01346013F0FF00DC04FF4784BFFF7F6BBB9
S31502004DE00127002309AE2020F0543B46F4558D7866
S31502004DF0082D06D84AF27C50C0F2062050F825004B
S31502004E0003E04CF24D40C0F200200678069596B1BA
S31502004E10441C002700BF00BF581C1B2804D809A940
S31502004E208146CE5403460F5414F8016B0EB12FF08F
S31502004E300DC8CDF894904CF201604FF0020EC0F20C
S31502004E400020471C20250026581C1B2803D809A928
S31502004E50CD5403460E5417F8015B0FF00BC80099A8
S31502004E60C879002840D0B1F91000B0F1FF3F0ADC42
S31502004E701A2B07D809AF03F101092D21CDF8949019
S31502004E80F9524B4640420DF19A014CF6CD474D1E62
S31502004E900026CCF6CC47B0F5004F28BF4FF40040B1
S31502004EA0A0FB07140A2806F1010E4FEAD40404EB0C
S31502004EB08401A0EB410141F0300105F8011F03D343
S31502004EC0092E20467646EBD3002700BF00BF00BF5F
S31502004ED0581C1B2804D809AC2978E15403462754E8
S31502004EE0013D0FF00BC816E04CF2A4504FF0020E33
S31502004EF0C0F20020441C2D26002700BF00BF00BFC1
S31502004F00581C1B2803D809A9CE5403460F5414F87B
S31502004F10016B0FF00BC81A2B06D809A903F1010978
S31502004F20CDF894904720C852BCF1010F48F2104BBD
S31502004F3008BF6FF01F02009CBCF1000F207908BF6A
S31502004F404FF4FC62ADF81C2008B394F805C0BCF11E
S31502004F50030F1CD84AF26050C0F2062050F82C10FB
S31502004F6009A800F11C0300200D7865B34F1C00262A
S31502004F70711C1B2902D89D550E46585417F8015B21
S31502004F800DB12FF00BC81A2E23D8711C1DE04CF25E
S31502004F9064314FF0080E09A8C0F200211C3001311D
S31502004FA044270022002548F2104600BF00BF00BF7A
S31502004FB06B1C1B2B02D847551D46C25411F8017BA8
S31502004FC00FF00BC0BCE00121002620229A550E46A6
S31502004FD058540DF19A00A179441E4CF6CD4A00228E
S31502004FE0CCF6CC4A2746632928BF632100BF00BFFF
S31502004FF0A1FB0A050A2902F1010E4FEAD50000EBD0
S315020050008005A1EB450545F0300507F8015F03D39E
S31502005010092A01467246EBD3002000BF00BF00BF3B
S31502005020711C1B2904D83A7889469A550E4658545B
S31502005030013F0FF00BC8CDF894904CF27D304FF043
S31502005040030EC0F2002001302522002100BF00BF5E
S31502005050771C1B2F02D89A553E46D95510F8012BBC
S315020050600FF00BC00098002187892046B7F59F7F75
S3150200507088BF40F23F1700BFA7FB0A250A2F01F19E
S31502005080010E4FEAD50202EB8205A7EB450545F074
S31502005090300500F8015F03D3092917467146EBD3A1
S315020050A0002100BF00BF00BF721C1B2A03D805786F
S315020050B099549D55164601380FF00BC04CF23F60CD
S315020050C04FF0020EC0F2002001302022002100BF64
S315020050D0771C1B2F02D89A553E46D95510F8012B3C
S315020050E00FF00BC00098C1890020EF2928BFEF21DD
S315020050F0A1FB0A270A2900F1010E4FEAD70202EBA9
S315020051008207A1EB470747F0300704F8017F03D374
S31502005110092811467046EBD3002000BF00BF00BF2E
S31502005120711C1B2903D8227858549A550E46013C05
S315020051300FF00BC04AF21050C0F2062030F81C6085
S3150200514009A8ADF81E6000F138034CF247404FF053
S31502005150050EC0F200200130432200214FF0000A62
S315020051600AF101071B2F03D803F80A20BA46D955BC
S3150200517010F8012B0FF00DC0009940F2E73000261F
S315020051804A690DF19A018242059252EA3084013946
S315020051904CF6CD420846CCF6CC4200BF00BF00BF5B
S315020051A0A4FB02750A2C06F1010E4FEAD50505EBA2
S315020051B08507A4EB470747F0300700F8017F03D3C2
S315020051C0092E2C467646EBD3002500BF00BF00BF52
S315020051D00AF101071B2F04D80678DD5503F80A6089
S315020051E0BA4601380FF00DC04FF0020E08F1010069
S315020051F02024002500BF00BF0AF101071B2F03D898
S3150200520003F80A40BA46DD5510F8014B0FF00DC0FF
S31502005210009F40F2E7300026BF690497874257EAAB
S315020052203084084600BF00BFA4FB02750A2C06F1B3
S31502005230010E4FEAD50505EB8507A4EB470747F0B4
S31502005240300700F8017F03D3092E2C467646EBD3AE
S31502005250002500BF00BF00BF0AF101071B2F04D8BB
S315020052600678DD5503F80A60BA4601380FF00DC01C
S315020052704FF0020E4CF20950C0F2002001302024F9
S31502005280002500BF00BF00BF0AF101071B2F03D88C
S3150200529003F80A40BA46DD5510F8014B0FF00DC06F
S315020052A0009F40F2E7300026D7F81C90814559EA64
S315020052B03084084600BF00BFA4FB02750A2C06F123
S315020052C0010E4FEAD50505EB8507A4EB470747F024
S315020052D0300700F8017F03D3092E2C467646EBD31E
S315020052E0002500BF00BF00BF0AF101071B2F04D82B
S315020052F00678DD5503F80A60BA4601380FF00DC08C
S315020053004FF0020E4CF21540C0F20020013020246C
S31502005310002500BF00BF00BF0AF101071B2F03D8FB
S3150200532003F80A40BA46DD5510F8014B0FF00DC0DE
S31502005330009F40F2E7300026D7F820C084455CEA99
S315020053403085084600BF00BFA5FB02740A2D06F190
S31502005350010E4FEAD40404EB8407A5EB470747F096
S31502005360300700F8017F03D3092E25467646EBD394
S31502005370002600BF00BF00BF0AF101041B2C04D89F
S3150200538005781E5503F80A50A24601380FF00DC0E3
S315020053904FF6E0704FF0070E1F30ADF8200009A857
S315020053A000F154034CF27140C0F200204124013056
S315020053B000264FF0000800BF08F101051B2D03D897
S315020053C003F80840A8465E5510F8014B0FF00DC0D1
S315020053D0009890F803A0BAF1030F06D84AF260507B
S315020053E0C0F2062050F82A0003E04CF21040C0F248
S315020053F000200678069D86B10130002400BF00BF5A
S3150200540008F101071B2F03D803F80860B846DC55DC
S3150200541010F8016B0EB12FF00DC8022D45D14CF2DA
S315020054204D504FF0020EC0F200200130202600251A
S3150200543008F101071B2F03D803F80860B846DD55AB
S3150200544010F8016B0FF00DC0009848F29F67C0F28A
S3150200545001078068B84250EA3785002000BF00BFC6
S31502005460A5FB02760A2D00F1010E4FEAD60606EBDF
S315020054708607A5EB470747F0300701F8017F03D3FC
S31502005480092835467046EBD3002000BF00BF00BF97
S3150200549008F101021B2A04D80F78985403F8087001
S315020054A0904601390FF00DC046E04CF21C504FF009
S315020054B0070EC0F2002001302026002400BF00BFE4
S315020054C008F101051B2D03D803F80860A8465C55B0
S315020054D010F8016B0FF00DC0DDE90470384442F29A
S315020054E00F7748446044B84250EA3785002000BF2F
S315020054F0A5FB02760A2D00F1010E4FEAD60606EB4F
S315020055008607A5EB470747F0300701F8017F03D36B
