S00D00007261696E792E73726563F4
S3150200000020400022F12E0002D92D0002FB2E000212
S31502000010FB2E0002FB2E0002FB2E0002FB2E00022C
S31502000020000000000000000000000000FB2E00029D
S31502000030FB2E000200000000FB2E0002FB2E000237
S3150200004011270002A52100023B2200024F230002D3
S30D020000506D240002C51B00022B
S3080200005802380261
S315020000602DE9F04182B040F2000540F20108C2F2E9
S315020000700025C2F20028022144F24C06297044F2FD
S315020000804D01382388F8003040F66C13C2F2002680
S31502000090C2F20021C4F2400300228DF8032032701E
S315020000A00A7083F8A023402783F8A07354271F60A1
S315020000B05F604FF6E867A220CFF6FF77C4F24000F2
S315020000C004244FF0090EDC5183F8A023802783F81D
S315020000D0A073038843F400630380038843F48053C8
S315020000E0038030F8803C23F0200320F8803C03880C
S315020000F043F40063038000BF038823F48053038024
S315020001000192019B5B094A2B0AD800BF00BF00BFC0
S3150200011000BF019B01330193019BB3F5166FF7D321
S31502000120038843F4805303800192019B5B094A2BA7
S315020001300AD800BF00BF00BF00BF019B0133019375
S31502000140019BB3F5166FF7D30FF02BC0028822F48A
S315020001500062028000220192019B5B094A2B07D8AA
S3150200016000BF019B01330193019BB3F5166FF7D3D1
S31502000170038843F4805303800192019A52094A2A62
S315020001800AD800BF00BF00BF00BF019A0132019228
S31502000190019AB2F5166FF7D3028842F40062028022
S315020001A000220192019B5B094A2B09D800BF00BFBE
S315020001B000BF019B01330193019BB3F5166FF7D381
S315020001C001924AF68012C0F2030200BF00BF00BFCE
S315020001D0019B934204D200BF019B01330193F7E7CF
S315020001E030F8802C42F0200220F8802C0022019266
S315020001F04EF68062C0F23602019B934204D200BFE1
S31502000200019B01330193F7E7428840880223C2F338
S31502000210C02203EAD02010440870032811D10DF140
S315020002200301A320012200F033F868B19DF80320F0
S3150200023003213270501EFE285FEA2F9038BF00213C
S3150200024021E0002001211EE0082700BF00BF00BFF9
S3150200025000F02AF97800C0B200F05EF9044600F018
S31502000260CFF924B1772F07F10107F1D309E00DF198
S315020002700301A320012288F8007000F009F8002883
S31502000280D4D100200221297002B0BDE8F081D4D475
S31502000290F0B581B014460D46064600F005F940F267
S315020002A00107C2F2002738784000C0B200F034F9E4
S315020002B018B9304600F030F928B1002600F0A0F94E
S315020002C0304601B0F0BD00F0EFF83878400001305A
S315020002D0C0B200F021F900284FF00006EED1A220AC
S315020002E04FF0080CC4F24000002300BF00BF00BF5D
S315020002F00188002241F4006101804CF001E000BF58
S31502000300018841F4805101800096009949094A29E1
S315020003100AD800BF00BF00BF00BF0099013100919B
S315020003200099B1F5166FF7D34188078827F48057ED
S3150200033007800096009F7F094A2F09D800BF00BF99
S3150200034000BF009F01370097009FB7F5166FF7D3DE
S31502000350C1F3C02141EA42020FF02FC00788591C9F
S31502000360A14227F4006728BF07F5006707800096B9
S31502000370009F7F094A2F07D800BF009F01370097C9
S31502000380009FB7F5166FF7D3078847F480570780A3
S315020003900096009F7F094A2F0AD800BF00BF00BF00
S315020003A000BF009F01370097009FB7F5166FF7D37E
S315020003B00788A14227F480570780078847F4006719
S315020003C00780EA540B4693D1012677E740F20000F4
S315020003D0C2F200200078704744F24C00C2F20020BC
S315020003E00078704744F24D00C2F200200078704750
S315020003F040F20100C2F2002000787047B0B582B028
S31502000400044600284FF000008DF8070024D0207122
S315020004100DF1070102200122FFF73AFF30B90DF173
S31502000420070102200122FFF733FFA0B19DF8070062
S3150200043000F00F05E81E10F1020F0CD30DF10301B7
S3150200044003200422FFF724FF28B19DF8030000F0E1
S31502000450C001402902D1002002B0B0BD00F00F0059
S315020004609DF804109DF805209DF8063041EA00210A
S3150200047002F00F008A09042A43EA002298BFB2F565
S31502000480F07F09D348090E284FF00000E4D89309FB
S31502000490042B1346E0D801E00B46114601202380C7
S315020004A061802571D8E7D4D482B0A220C4F240007C
S315020004B0018841F400610180018841F48051018084
S315020004C000210091009A52094A2A09D800BF00BFAA
S315020004D000BF009A01320092009AB2F5166FF7D366
S315020004E0028822F4006202800191019949094A298F
S315020004F00AD800BF00BF00BF00BF019901310191B8
S315020005000199B1F5166FF7D3018821F48051018064
S3150200051002B07047D4D4D4D410B581B04FF0080ECF
S31502000520A221C4F2400107224FF0000C00BF00BF17
S315020005300B8820FA02F423F4006364F3CB230B80C6
S31502000540CDF800C0009B5B094A2B09D800BF00BF4B
S3150200055000BF009B01330093009BB3F5166FF7D3E0
S315020005600B8843F480530B80CDF800C0009B5B09D7
S315020005704A2B09D800BF00BF00BF009B013300937E
S31502000580009BB3F5166FF7D30B88013A23F4805319
S315020005900B800FF033C8088840F400600880002002
S315020005A00090009A52094A2A0AD800BF00BF00BF2B
S315020005B000BF009A01320092009AB2F5166FF7D385
S315020005C00A8842F480520A800090009840094A281C
S315020005D00AD800BF00BF00BF00BF009801300090DC
S315020005E00098B0F5166FF7D348880A88C0F3C02082
S315020005F022F480520A8001B010BDD4D4D4D4D4D40B
S3150200060083B0A220C4F24000018821F40061018077
S3150200061000210091009A52094A2A09D800BF00BF58
S3150200062000BF009A01320092009AB2F5166FF7D314
S31502000630028842F4805202800191019949094A29AD
S315020006400AD800BF00BF00BF00BF01990131019166
S315020006500199B1F5166FF7D3018841F40061018063
S3150200066000200290029840094A2809D800BF00BF1C
S3150200067000BF0298013002900298B0F5166FF7D3C8
S3150200068003B07047D4D4D4D486B041F600374AF6C4
S315020006908014C0F2B707C0F2030400F0F5F8FFF7C2
S315020006A0DFFC0546FFF792FE0646FFF795FE01467A
S315020006B0304600F055F84FF000090DF10A0840F2F5
S315020006C0FF7A4FF0000B00BFBDB9CDF8109000BF06
S315020006D00498B84204D2049801300490F8E700BFA7
S315020006E0FFF7BEFC0546FFF771FE0646FFF774FEEE
S315020006F00146304600F034F8E6E74046FFF77EFE54
S31502000700064688B1F820082140F237124723CDF871
S3150200071000A001F09DF9BDF80A00BDF80C104FF6D5
S31502000720FF7201F0FDF80BE0BBF1000F08D0F820D4
S31502000730082140F237124723CDF8009001F088F9DC
S31502000740CDF8149000BF00BF0598A04203D20598C9
S3150200075001300590F8E7B346B6E7D4D4D4D4D4D45E
S315020007602DE9F04782B003288A4606D843F2FC11E7
S31502000770C0F2002131F8108001E04FF6FF78FFF752
S3150200078031FE81460020002600F046FF4FF4FC674A
S315020007905FEAC97008BF4FF478470820082147224C
S315020007A047234FF4FC65009701F052F95FEA89701E
S315020007B04FF0580058BF4FF4784508219722472337
S315020007C0009501F045F9A8200821E7224723CDF834
S315020007D0008001F03DF9262506FB05F0B7B20AFABC
S315020007E007F24FF4FC6400F10801120600F121023F
S315020007F088B258BF42F2041492B25821712300946F
S3150200080001F026F9072F06F10106E5D3FFF7F0FD01
S31502000810044600254FF02C0805FB08F0AFB204FA97
S3150200082007F240F2FF7600F10801520600F12502B6
S3150200083088B258BF42F2041692B280219D230096D6
S3150200084001F006F9062F05F10105E5D302B0BDE870
S31502000850F087022818BF704744F2104043F2143161
S31502000860C2F20020C0F2002101F071BE58B140F27E
S3150200087002010079C2F20021087044F24E00C2F26F
S3150200088000200121017070472DE9F04F81B040F63A
S3150200089010108224C4F24000C4F240040025402114
S315020008A080F8FC5380F8FC130422026080F8FC53A3
S315020008B0802380F8FC3344F20F462788C2F20026D2
S315020008C027F01007278080F8FC5380F8FC1382611A
S315020008D080F8FC5380F8FC33278827F4806727804A
S315020008E080F8FC5380F8FC13426180F8FC5380F8D0
S315020008F0FC33278827F40077278080F8FC5380F89A
S31502000900FC13C26280F8FC5380F8FC3320886FF334
S31502000910DF302080208840F010002080208820F4DC
S3150200092080602080208840F400402080307848B9DA
S3150200093043F23821C0F2002107C91268904708B96C
S3150200094001203070208840F4007020804DF2C040B3
S315020009500095C0F2010000BF0099814203D20099BE
S3150200096001310091F8E720884AF68011C0F20301AE
S3150200097020F4007020800020009000BF00BF00BF5E
S31502000980009A8A4203D2009A01320092F8E721883D
S315020009904FF60015C0F2150541F400712180009052
S315020009A00098A84203D2009801300090F8E7F72099
S315020009B08DF800002088012120F010002080208878
S315020009C020F480602080684600F056FF20880121CE
S315020009D040F010002080A9208DF80000208820F029
S315020009E010002080208840F480602080684600F055
S315020009F043FF2088012140F01000208051208DF80D
S31502000A000000208820F010002080208840F48060BA
S31502000A102080684600F030FF2088012140F0100057
S31502000A2020802C208DF80000208820F010002080E5
S31502000A30208840F480602080684600F01DFF2088F0
S31502000A40012140F01000208082208DF800002088CD
S31502000A5020F010002080208840F4806020806846C4
S31502000A6000F00AFF2088012140F010002080EC20CF
S31502000A708DF80000208820F010002080208820F4C5
S31502000A8080602080684600F0F7FE2088002601215B
S31502000A9040F0100020808DF80060208820F01000C1
S31502000AA02080208840F480602080684600F0E4FEC2
S31502000AB020884FF0020A012140F0100020808DF8B4
S31502000AC000A0208820F010002080208840F480605A
S31502000AD02080684600F0D0FE2088012140F01000F8
S31502000AE0208003208DF80000208820F0100020804E
S31502000AF0208840F480602080684600F0BDFE208891
S31502000B00012140F0100020807A208DF80000208814
S31502000B1020F010002080208840F480602080684603
S31502000B2000F0AAFE2088012140F010002080C0209B
S31502000B308DF80000208820F010002080208820F404
S31502000B4080602080684600F097FE208813270121E6
S31502000B5040F0100020808DF80070208820F01000F0
S31502000B602080208840F480602080684600F084FE61
S31502000B702088012140F0100020808DF80070208826
S31502000B8020F010002080208840F480602080684693
S31502000B9000F072FE2088012140F010002080C12062
S31502000BA08DF80000208820F010002080208820F494
S31502000BB080602080684600F05FFE2088012140F0B8
S31502000BC01000208041208DF80000208820F01000BF
S31502000BD02080208840F480602080684600F04CFE29
S31502000BE02088012140F010002080C5208DF80000E9
S31502000BF0208820F010002080208820F48060208049
S31502000C00684600F039FE2088012140F0100020805D
S31502000C108DF80060208820F010002080208840F4A3
S31502000C2080602080684600F027FE2088012140F07F
S31502000C301000208028208DF80000208820F0100067
S31502000C402080208840F480602080684600F014FEF0
S31502000C502088012140F01000208080208DF80000BD
S31502000C60208820F010002080208840F480602080B8
S31502000C70684600F001FE2088B027012140F01000EE
S31502000C8020808DF80070208820F0100020802088B7
S31502000C9020F480602080684600F0EEFD2088012165
S31502000CA040F0100020808DF80060208820F01000AF
S31502000CB02080208840F480602080684600F0DCFDB9
S31502000CC02088012140F010002080B1208DF800001C
S31502000CD0208820F010002080208820F48060208068
S31502000CE0684600F0C9FD2088012140F010002080EE
S31502000CF08DF80070208820F010002080208840F4B3
S31502000D0080602080684600F0B7FD2088012140F00F
S31502000D101000208011208DF80000208820F010009D
S31502000D202080208840F480602080684600F0A4FD80
S31502000D302088012140F010002080B4208DF80000A8
S31502000D40208820F010002080208820F480602080F7
S31502000D50684600F091FD2088012140F010002080B5
S31502000D608DF800A0208820F010002080208840F412
S31502000D7080602080684600F07FFD2088012140F0D7
S31502000D8010002080B6208DF80000208820F0100088
S31502000D902080208820F480602080684600F06CFD68
S31502000DA02088012140F0100020808DF800A02088C4
S31502000DB020F010002080208840F480602080684661
S31502000DC000F05AFD2088012140F0100020802220E8
S31502000DD08DF80000208820F010002080208840F442
S31502000DE080602080684600F047FD2088012140F09F
S31502000DF010002080B7208DF80000208820F0100017
S31502000E002080208820F480602080684600F034FD2F
S31502000E102088012140F010002080C6208DF80000B5
S31502000E20208820F010002080208840F480602080F6
S31502000E30684600F021FD2088012140F01000208044
S31502000E40BE208DF80000208820F010002080208827
S31502000E5020F480602080684600F00EFD2088012183
S31502000E6040F0100020808DF80060208820F01000ED
S31502000E702080208840F480602080684600F0FCFCD8
S31502000E8020880427012140F0100020808DF8007090
S31502000E90208820F010002080208840F48060208086
S31502000EA0684600F0E9FC2088012140F0100020800D
S31502000EB0E9208DF80000208820F01000208020888C
S31502000EC020F480602080684600F0D6FC208801214C
S31502000ED040F0100020808DF80060208820F010007D
S31502000EE02080208840F480602080684600F0C4FCA0
S31502000EF02088012140F010002080F4208DF80000A7
S31502000F00208820F010002080208820F48060208035
S31502000F10684600F0B1FC2088012140F010002080D4
S31502000F208DF80060208820F010002080208840F490
S31502000F3080602080684600F09FFC2088012140F0F6
S31502000F40100020808DF80060208820F0100020809C
S31502000F50208840F480602080684600F08DFC20885E
S31502000F604FF00F09012140F0100020808DF800900B
S31502000F70208820F010002080208840F480602080A5
S31502000F80684600F079FC2088012140F0100020809C
S31502000F90E0208DF80000208820F0100020802088B4
S31502000FA020F480602080684600F066FC20880121DB
S31502000FB040F0100020808DF80060208820F010009C
S31502000FC02080208840F480602080684600F054FC2F
S31502000FD02088012140F0100020808DF800702088C2
S31502000FE020F010002080208840F48060208068462F
S31502000FF000F042FC20880E27012140F010002080DC
S315020010008DF80070208820F010002080208840F49F
S3150200101080602080684600F02FFC20884FF0080B85
S31502001020012140F0100020808DF800B0208820F0C9
S3150200103010002080208840F480602080684600F0FE
S315020010401BFC2088012140F01000208017208DF81B
S315020010500000208820F010002080208840F4806064
S315020010602080684600F008FC20884FF00A0801211B
S3150200107040F0100020808DF80080208820F01000BB
S315020010802080208840F480602080684600F0F4FBCF
S315020010902088012140F01000208040208DF80000B9
S315020010A0208820F010002080208840F48060208074
S315020010B0684600F0E1FB2088012140F01000208004
S315020010C079208DF80000208820F0100020802088EA
S315020010D040F480602080684600F0CEFB2088012123
S315020010E040F0100020804D208DF80000208820F06E
S315020010F010002080208840F480602080684600F03E
S31502001100BBFB2088012140F01000208007208DF8CB
S315020011100000208820F010002080208840F48060A3
S315020011202080684600F0A8FB2088012140F01000CC
S3150200113020808DF80070208820F010002080208802
S3150200114040F480602080684600F096FB20880121EA
S3150200115040F0100020808DF80080208820F01000DA
S315020011602080208840F480602080684600F084FB5E
S315020011702088012140F0100020801A208DF80000FE
S31502001180208820F010002080208840F48060208093
S31502001190684600F071FB2088012140F01000208093
S315020011A01D208DF80000208820F010002080208865
S315020011B040F480602080684600F05EFB20880121B2
S315020011C040F0100020808DF80090208820F010005A
S315020011D02080208840F480602080684600F04CFB26
S315020011E02088012140F010002080E1208DF80000C7
S315020011F0208820F010002080208820F48060208043
S31502001200684600F039FB2088012140F0100020805A
S315020012108DF80060208820F010002080208840F49D
S3150200122080602080684600F027FB2088012140F07C
S31502001230100020801B208DF80000208820F010006E
S315020012402080208840F480602080684600F014FBED
S315020012502088012140F0100020801F208DF8000018
S31502001260208820F010002080208840F480602080B2
S31502001270684600F001FB2088012140F01000208022
S315020012808DF800A0208820F010002080208840F4ED
S3150200129080602080684600F0EFFA2088012140F045
S315020012A01000208010208DF80000208820F0100009
S315020012B02080208840F480602080684600F0DCFAB6
S315020012C02088012140F01000208005208DF80000C2
S315020012D0208820F010002080208840F48060208042
S315020012E0684600F0C9FA2088012140F010002080EB
S315020012F032208DF80000208820F0100020802088FF
S3150200130040F480602080684600F0B6FA2088012109
S3150200131040F01000208034208DF80000208820F054
S3150200132010002080208840F480602080684600F00B
S31502001330A3FA2088012140F01000208043208DF876
S315020013400000208820F010002080208840F4806071
S315020013502080684600F090FA2088012140F01000B3
S3150200136020808DF800A0208820F0100020802088A0
S3150200137040F480602080684600F07EFA20880121D1
S3150200138040F0100020808DF80080208820F01000A8
S315020013902080208840F480602080684600F06CFA45
S315020013A02088012140F01000208009208DF80000DD
S315020013B0208820F010002080208840F48060208061
S315020013C0684600F059FA2088012140F0100020807A
S315020013D033208DF80000208820F01000208020881D
S315020013E040F480602080684600F046FA2088012199
S315020013F040F01000208037208DF80000208820F071
S3150200140010002080208840F480602080684600F02A
S3150200141033FA2088012140F0100020808DF80090D8
S31502001420208820F010002080208840F480602080F0
S31502001430684600F021FA2088012140F01000208041
S31502001440F4208DF80000208820F0100020802088EB
S3150200145020F480602080684600F00EFA2088012180
S3150200146040F0100020808DF80060208820F01000E7
S315020014702080208840F480602080684600F0FCF9D5
S315020014802088012140F0100020808DF8006020881D
S3150200149020F010002080208840F48060208068467A
S315020014A000F0EAF92088012140F0100020808DF832
S315020014B00090208820F010002080208840F4806070
S315020014C02080684600F0D8F92088012140F01000FB
S315020014D0208036208DF80000208820F01000208021
S315020014E0208820F480602080684600F0C5F92088B4
S315020014F0012140F0100020808DF800B0208820F0F5
S3150200150010002080208840F480602080684600F029
S31502001510B3F92088012140F0100020803A208DF88E
S315020015200000208820F010002080208820F48060AF
S315020015302080684600F0A0F92088012140F01000C2
S31502001540208066208DF80000208820F01000208080
S31502001550208840F480602080684600F08DF920885B
S31502001560012140F01000208021208DF80000208803
S3150200157020F010002080208820F4806020806846B9
S3150200158000F07AF92088012140F010002080112015
S315020015908DF80000208820F010002080208820F49A
S315020015A080602080684600F067F9208840F01000CD
S315020015B02080009600BF00BF0098A84203D2009880
S315020015C001300090F8E729208DF80000208842F2C9
S315020015D0C0750121C0F2090520F010002080208884
S315020015E020F480602080684600F046F9208840F0AA
S315020015F010002080009600BF0098A84203D20098EF
S3150200160001300090F8E7002000F006F801B0BDE8CE
S31502001610F08FD4D4D4D4D4D470B5F821FC2301EA03
S31502001620102100F01F0600F01C0241EA503103EAC5
S31502001630D000F3004FF4A07E44F24F06C2F2002619
S3150200164043EA9202B31C00BF03F8021C03F8010C22
S3150200165003F8032B0FF009C082250020002140F277
S315020016603F1240F2DF13C4F2400540F2DF1600F0EB
S315020016701EF8288844F24F04C2F2002420F010001B
S315020016802880288840F48060288000BF00BF00BF01
S315020016904FF47071204600F0EFF818B9002EA6F14B
S315020016A00106F5D1288840F01000288070BD2DE98A
S315020016B0F04383B082242A27C4F240048DF80170D5
S315020016C08946012127889846164627F01007278063
S315020016D02588074625F4806020800DF1010000F080
S315020016E0CBF82088012140F010002080380A8DF8BE
S315020016F00200208820F010002080208840F48060BC
S3150200170020800DF1020000F0B7F82088012140F098
S31502001710100020808DF80370208820F010002080B1
S31502001720208840F4806020800DF1030000F0A4F8C8
S315020017302088012140F010002080300A8DF8040034
S31502001740208820F010002080208840F480602080CD
S3150200175001A800F091F82088012140F010002080B5
S315020017608DF80560208820F010002080208840F443
S31502001770806020800DF1050000F07EF820880121AE
S3150200178040F0100020802B208DF80600208820F0E3
S3150200179010002080208820F4806020800DF1060051
S315020017A000F06AF82088012140F0100020804FEAFC
S315020017B019208DF80700208820F01000208020884C
S315020017C040F4806020800DF1070000F055F8208873
S315020017D0012140F0100020808DF80890208820F02A
S315020017E010002080208840F48060208002A800F04B
S315020017F043F82088012140F0100020804FEA18208B
S315020018008DF80900208820F010002080208840F4FE
S31502001810806020800DF1090000F02EF82088012159
S3150200182040F0100020808DF80A80208820F01000F9
S315020018302080208840F4806020800DF10A0000F0AC
S315020018401BF82088012140F0100020802C208DF802
S315020018500B00208820F010002080208820F4806071
S3150200186020800DF10B0000F007F8208840F01000F0
S31502001870208003B0BDE8F0832DE9F04700284FF041
S3150200188000064AD00D46002947D044F20F470446C7
S31502001890C2F2002743F23820C0F200203978D0F88D
S315020018A00090D0F808A039B9DAF800204168484615
S315020018B09047B0B90120387044F24E0740F2020850
S315020018C0C2F20027C2F20028002007233870022045
S315020018D088F800004846DAF8086021462A46B047EA
S315020018E008B1064619E04BF2C040CFF6B37000BF0E
S315020018F0397819B9002800F10100F9D138780128A0
S3150200190005D198F80000012803D1002605E0142627
S3150200191001E04FF4967600F0FEF83046BDE8F08717
S315020019202DE9F04F8DB00525B0F59D7F03460C904D
S315020019300846D1FA55FA28BF4FF49D73B1F5ED7FEB
S315020019401FFA8AF728BF4FF4ED700530874200F27E
S3150200195079808C460C99D1FA55F7591D16468BB2E9
S31502001960F8210897BFB201EA16210691D91B02F0A7
S315020019701C020792013106F01F02D200CDE90421B2
S3150200198001EB4101039144F24F014FF0FC08C2F210
S315020019900021DDE907B9CDE90A730231019180B26E
S315020019A00290CDF824C000BF069FDDE9045040F046
S315020019B023C00020019900BF1FFA8AF20C9C6245DF
S315020019C009EB000292B25FEA1F93A2425FEA1F92FC
S315020019D001301A43134614461EBF47EA563308EA35
S315020019E0D60445EA9B0201F8023C01F8014C01F8D3
S315020019F0032B0FF01FC81FFA8AF70A9839460B9A6B
S31502001A003B464FF0FC08FFF752FE8225C4F2400522
S31502001A10288820F010002880288840F480602880DA
S31502001A2044F24F000399C2F20020FFF725FFDDF8CA
S31502001A3024C0288802990AF1010A40F01000288081
S31502001A408F42B1D30DB0BDE8F08FD4D4D4D4D4D460
S31502001A50904288BF70472DE9F04381B00D4659097F
S31502001A601C460E2953D89109042998BFA5424ED87F
S31502001A70111A11F101091FD2089BF82103F01C0C5F
S31502001A8003F01F0644F24F0801EA1321FC27F60071
S31502001A90C2F2002849F001E041EA533107EAD303D2
S31502001AA046EA9C0708F1020606F8021C06F8013C03
S31502001AB006F8037B0FF009C040F282082946234646
S31502001AC0C4F24008FFF7F3FDB8F8000044F24F07EE
S31502001AD009EB4906C2F2002720F01000A8F8000020
S31502001AE0B8F8000040F48060A8F8000000BF00BF0C
S31502001AF038463146FFF7C0FE18B90135A8B2A042F2
S31502001B00F6D9B8F8000040F01000A8F8000001B0BD
S31502001B10BDE8F0437047F0B581B044F20F4543F299
S31502001B203826C2F20025C0F2002628783468B76843
S31502001B30012804D1796920468847002028703A682E
S31502001B4071682046904708B90120287001B0F0BD9F
S31502001B5080B5FEF799FD002080BD01688A6802F013
S31502001B600C0202328A600068416849075CBF41681C
S31502001B705FEAC16101D500207047416809065CBF72
S31502001B8041685FEAC151F6D44068C0F3401070471D
S31502001B9001780131017040BF00207047B0B504469C
S31502001BA0407C012808BFB0BD204602252574FFF7F8
S31502001BB0D4FF002818BF00256574E06ABDE8B0406E
S31502001BC0FFF7E6BFB0B582B04FF07041EFF3038086
S31502001BD001EB006044F2A8428115C2F2002204160B
S31502001BE05558A9680868FFF7D9FFE86868B12869F7
S31502001BF010B10168019100E001A869690160E96814
S31502001C008847286908B1019901604CF20030C4F294
S31502001C10000050F8241021F4803140F8241050F8C6
S31502001C20240002B0B0BD2DE9F04F83B00D4609780D
S31502001C304CF2000983462F69C4F2350909EB0124E7
S31502001C4087B178684FF000610068016078680068C3
S31502001C508460D7E901123868126890470646002860
S31502001C6040F067816869B8B141684FF4002209689B
S31502001C700A60416809684C60D0E90112006812687E
S31502001C80904706462FB126B1B9683868096A88476F
S31502001C904FE1002E40F04D81CBF804504FF0000A80
S31502001CA0A869CBF82400E869CBF82C00CBF828A069
S31502001CB0287809EB002ECBF808E0EF7AA97A6E7B3A
S31502001CC0286A6A7A4FF4441541EA4701C77941EA1C
S31502001CD00636002A08BFA9F596253146047845EA54
S31502001CE0C77508BF41F080014378002C51EA068788
S31502001CF018BF45F0807544798178002B029108BFA0
S31502001D0045F400354FF48071012C90F803C045EA82
S31502001D10037608BF4FF44071002C18BF0E43417A78
S31502001D20002A027A47EA0C6301F0030107798479F3
S31502001D3043EA8105019410D1417B012907D146F47A
S31502001D400056DEF8441041F44071CEF84410017B8F
S31502001D50408945F4604540EA014A0123EFF31089C0
S31502001D6083F310884FF40011DBF80400022F007889
S31502001D7008BF4FF44011C0F11300002F03FA00F020
S31502001D8043F20403C4F2200351EA17844CF20037EB
S31502001D901968C4F2000721EA00001860029819685F
S31502001DA000FA0CF040EA02281E20012100F0D2FFC0
S31502001DB089F310880021DBF80800CFF6805181668E
S31502001DC0DBF80800C0F81080DBF80800C0F804A0B1
S31502001DD0DBF80800C460DBF808004561DBF80800A0
S31502001DE00199016426F08041DBF808008160DBF886
S31502001DF0080081688660DBF8042044F2A840C2F23B
S31502001E00002092F90210002923D44EF2001592798D
S31502001E10CEF2000501266B18120183F8002340F862
S31502001E2021B057F8212022F4803247F8212057F8B2
S31502001E3021204A0901F01F01BFF35F8F05EB8203E0
S31502001E4006FA01F1C3F8801145F82210DBF80420E6
S31502001E5003E04EF20015CEF2000592F901100029B8
S31502001E601ED452796B180126120183F8002340F81A
S31502001E7021B057F8212022F4803247F8212057F862
S31502001E8021204A0901F01F01BFF35F8F05EB820390
S31502001E9006FA01F1C3F8801145F82210DBF8042096
S31502001EA092F90410127A00294FEA021203D46B182F
S31502001EB083F8002307E001F00F034EF61856043BA1
S31502001EC0CEF200069A5540F821B057F8212022F4A6
S31502001ED0803247F8212057F821204A0901F01F01D4
S31502001EE0012705EB820307FA01F1BFF35F8FC3F8FF
S31502001EF0801145F82210DBF8042092F90310D279FA
S31502001F0000294FEA021203D46B1883F8002307E074
S31502001F1001F00F034EF61857043BCEF20007DA55CE
S31502001F2040F821B045F249000026C5F25320CBF80D
S31502001F300000304603B0BDE8F08F80B582B094460B
S31502001F400A4600210093634600F08CF802B080BD79
S31502001F5080B582B0944600220093634600F082F870
S31502001F6002B080BDDDF800C0CDF800C000F07AB83E
S31502001F70844641620020CCE90A32704710B5044615
S31502001F80406800212160416921B18A680868116AA6
S31502001F9088476068006918B181680068096A8847DD
S31502001FA0A068816821F44C11816061684EF280104C
S31502001FB0CEF2000091F90220002A0CD4510902F057
S31502001FC01F02012303FA02F240F82120BFF34F8FCA
S31502001FD0BFF36F8F616891F90120002A0CD4510971
S31502001FE002F01F02012303FA02F240F82120BFF396
S31502001FF04F8FBFF36F8F616891F9031001234A096E
S3150200200001F01F0103FA01F140F82210BFF34F8FCE
S31502002010BFF36F8F616891F904104A0901F01F013D
S3150200202003FA01F140F82210BFF34F8FBFF36F8F0F
S31502002030A068816821F001018160A0680021CFF6C5
S3150200204080518166A068C3666068417A41B9006AB8
S31502002050407B012804D1A068416C21F4407141649F
S31502002060002010BD2DE9F04104468068006E10B1D3
S315020020700820BDE8F08104F10C0C8846002706987A
S315020020808CE8860061680728C4E906731E4684F850
S31502002090200088BF4FF080570F28486988BF4FF04D
S315020020A0005700B3A6614FF6FF754869CCF6F37583
S315020020B0416809680B68CE8103EA050343EA070310
S315020020C043F400250D608A602AB944F248420B6047
S315020020D0C2F200228A60826800685268904708B19C
S315020020E0BDE8F0816168086990B366610869416874
S315020020F009680A6822F040523A430A6063685F7AC6
S315020021003FB91B6A2BB15B7B012B02D1E369012B21
S3150200211043D1CE8122F04062B8F1000F02F1006392
S315020021200B60C1F8048005D144F24C430A60C2F246
S3150200213000234B60A268936823F48013936082683D
S31502002140006852689047002818BFBDE8F0816168B0
S31502002150A068426994F820304F7A22F4F81242EAD3
S31502002160034267B9096A51B1497B012907D1E1697D
S31502002170012902D122F0800201E042F0800242618E
S315020021800121A068C166A068816841F4801141F00E
S31502002190010181600020BDE8F081721E6261CA8180
S315020021A00A68B7E74FF07041EFF3038001EB006076
S315020021B04CF200318015C4F20001425822F48032FA
S315020021C0425044F2A8424158C2F200221058D0E9C5
S315020021D00612914221D0026942B190F82030102BAA
S315020021E007D383681B6842F821300CE082681268C4
S315020021F009E0D0F808C0082BDCF8003002D322F838
S31502002200113000E0535482684FF000430131936667
S315020022108161C269914218BF70474068012290F9F4
S31502002220030000F01F01400902FA01F14EF200120A
S31502002230CEF2000242F8201070474FF07041EFF3E1
S31502002240038001EB00604CF200318015C4F20001FC
S3150200225044F2A8434258C2F2002322F4803242508A
S31502002260425818584268136A5B78012B36D1C36903
S31502002270A3F1010C4369634520D180B592F903208D
S315020022804EF2001CCEF2000C51F8223023F48033B9
S3150200229041F8223051F82210510902F01F0201239F
S315020022A00CEB810E03FA02F2BFF35F8FCEF88021A8
S315020022B04CF82120BDE8804000F012B8116969B1DE
S315020022C092F90310012301F01F02490903FA02F2EF
S315020022D04EF20013CEF2000343F8212000F000B8BC
S315020022E04268517A0029416910D1126A72B1527B51
S315020022F0012A0BD18268136D9B0027D5C369013B66
S31502002300994203D1536923F080035361C269914212
S3150200231008BF7047C2683AB190F82030102B07D335
S31502002320836852F821200AE082680023136007E0DE
S31502002330082B836802D332F8112000E0525C1A603F
S3150200234082684FF00053013193664161704710B5C0
S315020023504FF07041EFF3038001EB00624CF2003E56
S315020023609015C4F2000E44F2A84150F80E30C2F2A3
S31502002370002123F4803340F80E3050F80E3008580E
S315020023808168096D890104D54168497A012918BF16
S3150200239010BD11164EF200144B09CEF2000401F0E4
S315020023A01F014FF0010C04EB83030CFA01F1C3F891
S315020023B08010BFF34F8FBFF36F8F416891F90230E0
S315020023C0002B2AD4590903F01F030CFA03F304EB7A
S315020023D08101C1F88030BFF34F8FBFF36F8F8168E1
S315020023E08B6823F001038B60416891F902105EF855
S315020023F0213023F480334EF821305EF821304B0928
S3150200240001F01F01BFF35F8F04EB83020CFA01F1A7
S31502002410C2F8801144F8231004E081688A6822F029
S3150200242001028A600121BDE8104000F000B82DE9E2
S31502002430F04184B00446806A0DF1040828B10246D0
S31502002440434692E8E000E0C300E040466268127844
S3150200245001710260E16A8160616A8847A06A10B10F
S3150200246098E80E000EC004B0BDE8F081F0B581B068
S315020024704FF07041EFF3038001EB006644F2A8418E
S31502002480B015C2F200214CF200350C58C4F2000518
S31502002490606890F9021000292FD44A094EF2001002
S315020024A0CEF2000001F01F0100EB8202012303FAC3
S315020024B001F1C2F88010BFF34F8FBFF36F8FA1688F
S315020024C08A6822F001028A60616891F9021055F861
S315020024D0212022F4803245F8212055F821204A098C
S315020024E001F01F01BFF35F8F00EB820703FA01F1D0
S315020024F0C7F8801140F8221004E0A068816821F034
S3150200250001018160A0680021CFF68051076D8166C6
S315020025103A0103D505212046FFF789FFF80103D5C5
S3150200252004212046FFF783FFF843361610F0A05F1A
S3150200253003D108212046FFF77AFF55F8260020F43A
S31502002540803045F8260055F8260001B0F0BD80B56A
S3150200255045F25422C5F24F020260084600F004F822
S31502002560002080BDD4D4D4D470B5044600F060F8FF
S3150200257044F2A44CEFF31081C2F2002C012080F346
S315020025801088DCF8000038B940F614500022C4F274
S315020025904000027040220270DCF800000130CCF8E4
S315020025A0000081F31088208828B340F6000E00212F
S315020025B0C4F2400E00BF00BF606800EBC10250F8D3
S315020025C031309288D8034FEA1220D2B20BD50EEBE5
S315020025D0801555F8226026F4803645F8226023F4E9
S315020025E0803645F822600EEB8010013140F8223029
S315020025F020888142E0D30120EFF3108180F3108816
S31502002600DCF8000020B1DCF800000138CCF800004C
S31502002610DCF8000038B940F614500022C4F240003B
S3150200262002708022027081F3108870BDD4D4D4D493
S315020026302DE9F04F81B004460088002865D04EF699
S315020026404C4B0025C4F2010B4FF0010A00BF00BF3C
S3150200265043F2443642F240080027C0F20026C4F292
S31502002660200800BF00BF00BF606836F8021B00EBFF
S31502002670C50082888A423FD100689BF8001000F0AC
S31502002680B8500AFA07F9B0F1807F09EA010017D1BA
S3150200269058B9012000F003FC9BF8000040EA09004B
S315020026A08BF80000012000F0D3FB98F90000002807
S315020026B022D498F8000040F0800017E000BF00BF67
S315020026C058B1012000F0EBFB9BF8000020EA09005C
S315020026D08BF80000012000F0BBFB98F90000B0F176
S315020026E0FF3F09DC98F8000000F07F0088F8000040
S315020026F0C820012100F02EFB013708F10208032F42
S31502002700B2D1208801358542A2D301B0BDE8F08F4F
S31502002710F0B58BB048F27401C4F234010868C243C2
S315020027200A604FF07042EFF3038102EB01614CF253
S3150200273000328915C4F200028B5823F480338B5081
S3150200274044F2A8438A58C2F200235C58616911B365
S3150200275022690DF1040E104001900020CDE902001D
S31502002760A069E369A2680492059360B103460DF17C
S31502002770180C93E8E6008CE8E60001469EE8EC00B9
S31502002780ECC1616900E070468847A06918B106A9E4
S3150200279091E8EC00ECC00BB0F0BDD4D44EF22401AB
S315020027A0C4F201018878098801F00F02A2F108013A
S315020027B003293BD8DFE801F0022C101E44F2200167
S315020027C0C2F2002151F820004AF6AB21CAF6AA212C
S315020027D0A0FB0101480830E044F22001C2F20021C8
S315020027E051F820004AF6AB21CAF6AA21A0FB010144
S315020027F0C80822E044F22001C2F2002151F820006A
S315020028004AF6AB21CAF6AA21A0FB0101080914E087
S3150200281044F22001C2F2002151F820004AF6AB210F
S31502002820CAF6AA21A0FB0101880806E044F22001AB
S31502002830C2F2002151F82000D04044F2CC41C2F24B
S31502002840002108607047D4D42DE9F04381B0BCA0C2
S315020028504EF2FA38C4F201084AF20151CFF6FF717C
S3150200286090ED001F44F220000231A8F80010C2F2D7
S315020028700020B7A14EF6014680ED001F4EF6004736
S315020028804EF2140591ED001F48F2004140F6000297
S3150200289080ED041F2030C1F2D77143F60003C4F263
S315020028A00106C4F20107C4F20105C2F6AF72C1F60F
S315020028B09C430EC0FFF772FF4FF650600A21CFF617
S315020028C0FF703954092085F88E00387818B93078A7
S315020028D0800700F03081387848B901203870C82066
S315020028E0012100F037FA00BF38780128FCD1002018
S315020028F0307038704AF20159002085F82200A87714
S3150200290095F828000007FBD542F602314EF6145020
S31502002910C0F20101C5F8B41040F2234169870022D2
S3150200292085F836204FF60211C5F8981040F251414B
S315020029302987CEF200004EF20001BFF34F8FBFF39C
S315020029406F8F0368CEF2010123F400330360C0F8EF
S315020029503C22BFF34F8FBFF36F8F0A6822F44052B7
S315020029600A60BFF34F8FBFF36F8F2A7802F0F80227
S3150200297001322A7000BF00BF2A78D206FCD40A6848
S3150200298042F440520A60BFF34F8FBFF36F8F016864
S31502002990890312D4BFF34F8FBFF36F8F0021C0F8A4
S315020029A03C12BFF34F8FBFF36F8F016841F40031C2
S315020029B00160BFF34F8FBFF36F8F0020A87500BF72
S315020029C095F828008006FBD54CF200070020C4F2D9
S315020029D0130738703878387838787868FA2807D044
S315020029E0FA20C1F6006000BF78607968FA29FBD147
S315020029F0B8687D2808D07D20CEF2001000BF00BF47
S31502002A00B860B9687D29FBD143F232400524C3F28E
S31502002A102320E86042F220102882AC74FFF7BEFE43
S31502002A201E200121012600F095F978686FF39F2098
S31502002A30652828BF3E70FFF7B1FE42F200004FF450
S31502002A402541C4F20000A0F80090BFF35F8F067222
S31502002A50BFF35F8F01800DF1020085F83F60ADF88C
S31502002A60024000F07DF895F8410040F0400085F8FC
S31502002A70410000BF00BF00BF95F94100B0F1FF3F22
S31502002A80FADC022085F84000CA2085F8410095F854
S31502002A90410000F0BF0085F8410000BF00BF00BF43
S31502002AA095F941000028FBD495F8490040F0400012
S31502002AB085F8490000BF00BF95F94900B0F1FF3F14
S31502002AC0FADC052085F84800C02085F8490095F80B
S31502002AD0490000F0BF0085F8490000BF00BF00BFF3
S31502002AE095F949000028FBD495F8640040F04000AF
S31502002AF085F8640000BF00BF95F96400B0F1FF3F9E
S31502002B00FADC022085F85C00C82085F8640095F896
S31502002B10640000F0BF0085F8640000BF00BF00BF7C
S31502002B2095F964000028FBD44FF42540A8F800006C
S31502002B3001B0BDE8F0834FF47A7000F0C2F8D9E62E
S31502002B40006CDC0200127A000080000000366E0182
S31502002B500080000000CA9A3B0046C3235543DE1399
S31502002B602DE9F04F81B04EF2FA3143F20406C4F277
S31502002B7001018246C4F220064AF20350B1F80090DF
S31502002B8008804FF0010B00254FF480340127002006
S31502002B9004FA00F132680A4210D1EFF310888BF37F
S31502002BA0108832680BFA00F0114331603168054330
S31502002BB01E20012100F0CEF888F31088F8074FF0A6
S31502002BC001004FF00007E3D14EF2750744F22001EF
S31502002BD0C4F20107C2F20021387800F00F0051F862
S31502002BE0200017F8081C01F00F01022901D8012262
S31502002BF00BE0CA1E052A06D243F29851C0F2002102
S31502002C0051F8221003E00839102202FA01F1B0FB52
S31502002C10F1F04DF68361C4F21B31A0FB01016FF0A6
S31502002C20010000EA5140012100F094F8387840F0A2
S31502002C304000387000BF00BF97F90000B0F1FF3FB7
S31502002C40FADC9AF8010007F8080C9AF8000040F03E
S31502002C50400038709AF80000387000BF00BF00BF0D
S31502002C6097F900000028FBD400204FF0010A4FF428
S31502002C708038012400BF00BF25FA00F1C90710D031
S31502002C80EFF310878AF3108808FA00F0316821EA18
S31502002C900000306030681E20012100F05BF887F3E7
S31502002CA01088E0074FF001004FF00004E4D14EF225
S31502002CB0FA3149F42540C4F20101088001B0BDE8A9
S31502002CC0F08F7047D4D4D4D4B0B542F22404C820CD
S31502002CD0C4F2200401210025257100F03BF825707D
S31502002CE0207808B12FF005C0207840F0020020704D
S31502002CF020788007FCD4002004F8020C00BF00BF35
S31502002D0014F8020C08B12FF005C84FF0030E00208C
S31502002D1004F11C0100BF00BF11F8102002F07F026F
S31502002D2001F8102000BF00BF11F91020002AFBD4C1
S31502002D3001300FF00FC8012000F0B1F84EF64C41F9
S31502002D400120C4F2010100220A70BDE8B04000F081
S31502002D507FB8704744F2CC4241F20023C2F200220D
S31502002D60C0F27A03484312689A420FD344F23F21D3
S31502002D70C0F20F0111444DF68362C4F21B32A1FB6D
S31502002D800212910CA0FB0101C9B11BE04CF6002115
S31502002D90C3F69A31B1FBF2F148F63812C0F241029B
S31502002DA0904205D24FF47A725043B0FBF1F006E03E
S31502002DB0B0FBF1F0904205D24FF47A71484328B144
S31502002DC000F006B84FF0FF3000F002B87047D4D4D6
S31502002DD001380028FCD17047F0B581B04CF20015DD
S31502002DE044F25047C4F200050024C2F200272868C4
S31502002DF0296A01EA000600BF26FA04F0C00703D0DA
S31502002E00396809B12046884701340437152CF3D1B5
S31502002E102E6100BF00BF00BF286A3042FCD101B05C
S31502002E20F0BDD4D4D4D4D4D480B54FF0060E4CF22F
S31502002E30003043F22031C4F20000C0F2002100BF8C
S31502002E4031F8022B02B1026004300FF007C880BDD0
S31502002E50EFF31081012282F3108844F2C042C2F2DB
S31502002E60002232F8103023B132F81030013B22F83A
S31502002E70103032F810207AB94EF2FA3243F2AC5CD4
S31502002E80C4F20102C0F2002C13883CF8100043F48D
S31502002E90254323EA0000108081F31088704710B59D
S31502002EA0EFF31081012282F3108844F2C042C2F28B
S31502002EB0002232F8103083B94EF2FA3E43F2AC5C8D
S31502002EC0C4F2010EC0F2002CBEF800403CF81030ED
S31502002ED0234343F42543AEF8003032F81030013371
S31502002EE022F8103081F3108810BDD4D4D4D4D4D4AF
S31502002EF000F006F8FEF72CFEFEE700BE7047D4D4BB
S31502002F0070B54EF6005540F20120CEF20005C0F231
S31502002F100E004EF200066861CEF20106BFF34F8F35
S31502002F20BFF36F8F2968C1F3035001285FEA1F922E
S31502002F3011F00F0F5FEA0F911142316811D1022889
S31502002F400FD241F0040030604EF20800BFF34F8FFB
S31502002F50CEF20000BFF36F8F016841F48031016049
S31502002F6002E021F004003060BFF34F8FBFF36F8F92
S31502002F704FF4700040F20001C5F888000020C0F24C
S31502002F800021A9600024FDF764FCFFF75DFC4EF208
S31502002F90FA304EF6B022C4F20100C4F201024AF23D
S31502002FA00251018014704FF4254101800120FDF782
S31502002FB050FC40F22000C2F2002080F30A883068FA
S31502002FC0800721D5A868B0F1007F1DD130694FF482
S31502002FD00071C0F3C300726901FA00F3C2F3C300C1
S31502002FE081400020DA08CB080146064642F005C0B9
S31502002FF0E6E802010FF005C04FF0005243F005C0AB
S31502003000E2E802010FF005C0002000F095F8FFF794
S31502003010C5FBFFF759FE0320FFF741FF4FF00E0EE7
S3150200302040F63050C4F2400020F8044B0FF005C0C1
S315020030304EF210140320C4F20104FFF709FF032025
S31502003040FFF72DFF44F204000021C4F220000160C4
S3150200305041608160C1600320FFF7FAFED4F8C8021E
S31502003060800714D42078A0B10120FFF718FF00BF13
S3150200307094F9000010F1410FFADC0020207000BF25
S3150200308020783F28FCD80120FFF7E2FE01E0D4F8C1
S31502003090C802D4F8C802400715D42079A8B1012085
S315020030A0FFF7FDFE00BF00BF94F9040010F1410FC7
S315020030B0FADC0020207100BF20793F28FCD80120CD
S315020030C0FFF7C6FE01E0D4F8C8020220FDF7C1FBF5
S315020030D0012000F031F844F2D444C2F20024204622
S315020030E000F06EF8204600F07FF8BFF34F8FBFF373
S315020030F06F8F0020C5F8500243F2066043F2066164
S31502003100C0F20020C0F20021BFF34F8F081ABFF3AE
S315020031106F8F8410012C08DB43F20665C0F200258E
S3150200312055F8040B8047013CFAD1FFF77DFE0020DB
S31502003130BDE87040FFF70DBEF0B581B043F26C35C5
S315020031400446C0F200252E6876B16868071D00BFE6
S315020031507879844204D157E90101091A00F01BF873
S31502003160013E07F10C07F3D1AE6896B1E86800F1AB
S31502003170080500BF00BF00BF6879844205D155E942
S3150200318002022968121A00F00AF8013E05F110053A
S31502003190F2D101B0F0BD0A46002100F009B810B51F
S315020031A0002322B1CC5C013AC4540133F9E710BDC5
S315020031B003461AB103F8011B013AFAE77047D4D461
S315020031C010B505490446054AFFF7E9FF04480549D3
S315020031D02044FFF7E0FF10BD5B0000020000000084
S315020031E000000000000000000249401A024908607F
S315020031F0704700BF08000000D0440022E00700F834
S315020032001FF8E0FF010100000000000101000000BC
S315020032100001D4D401010203040C0C0C0C000000C2
S315020032200100000000000000000000006D0800021E
S315020032300000000004320002184400221432000288
S315020032402C3300020400000000000000050000000C
S31502003250010000000000010602010000000001005A
S31502003260080200000000010009020000000001003F
S315020032700A020000000001000B0200000000010F1C
S31502003280000400000000010F010400000400000019
S31502003290040400000000010F050400000000010FF5
S315020032A006040000040000000904000004000000F7
S315020032B00A0400000000011F0B0400000000010FB9
S315020032C00E040000000001030F04000005000000C8
S315020032D00206000005000000030600000000010FC0
S315020032E0000700000000010F010700000000010FA7
S315020032F0020700000000010F030700000004010698
S31502003300080700000000010F020B00000000010F79
S31502003310030B00001A000000443200020000000005
S3150200332097031D031E03210320036700271C0002C7
S315020033303B1F0002511F0002651F0002711F00029F
S315020033407D1F0002020403040404D4D400000068B2
S31502003350000000680000008000000080000000708D
S315020033600000007020000022200000220B00000056
S315020033708433000219000000083400020400000031
S315020033804C33000200000068000000680001000DD6
S3150200339000000068000000680001000D00000080C7
S315020033A0000000800001000800000080000000808C
S315020033B00001000800000070000000700001000A11
S315020033C000000070000000700001000A000000000A
S315020033D0000000000100000500000020000000209F
S315020033E00100000420000022200000220000000349
S315020033F04C400022D444002200000003D4440022A0
S31502003400D4440022000000030000006800000068A7
S31502003410000000900001090D00000068000000682D
S315020034200000007800010B0D000000680000006833
S31502003430000000270001020D00000068000000687D
S31502003440580000020001010D00000080000000800B
S3150200345000000090000109080000008000000080C2
S315020034600000007800010B080000008000000080C8
S315020034700000002700010208000000800000008012
S3150200348058000002000101080000007000000070F0
S31502003490000000900001090A0000007000000070A0
S315020034A00000007800010B0A0000007000000070A6
S315020034B0000000270001020A0000007000000070F0
S315020034C0580000020001010A00000000000000008E
S315020034D00000009001010905000000000000000044
S315020034E00000007801010B0500000000000000004A
S315020034F00000002701000205000000000000000095
S315020035005800000201000105000000200000002012
S3150200351000000090010109040000002000000020C4
S315020035200000007801010B040000002000000020CA
S315020035300000002701000204000000200000002015
S3150200354058000002010001040000002200000022CF
S315020035500000009000010903000000220000002282
S315020035600000007800010B03000000220000002288
S3150200357000000027000002030000002203000022D0
S315020035805800000200000103D4440022D444002261
S315020035905B000002000001030600000008000000B4
S315020035A003000000050000000A00000001000200FE
S315020035B0080010002000D4D400000406362E342E53
S315020035C030004275696C7420776974682052656EA2
S315020035D06573617320416476616E63656420466C2F
S315020035E0657869626C6520536F66747761726520CF
S315020035F05061636B6167652076657273696F6E20D1
S30B02003600362E342E3000C6
S30902C9F040FFFFFFFFFF
S30902C9F044EFFFFFFF0B
S30902C9F0C0FFFFFFFD81
S30902C9F0C4FFFFFFFF7B
S30902C9F120000000001A
S30902C9F1240000000016
S70502002EF1D9
